{"contracts/ProductRegistration.sol":{"ProductRegistration":{"abi":[{"inputs":[],"stateMutability":"nonpayable","type":"constructor"},{"inputs":[],"name":"AccessControlBadConfirmation","type":"error"},{"inputs":[{"internalType":"address","name":"account","type":"address"},{"internalType":"bytes32","name":"neededRole","type":"bytes32"}],"name":"AccessControlUnauthorizedAccount","type":"error"},{"anonymous":false,"inputs":[{"indexed":false,"internalType":"uint256","name":"productId","type":"uint256"},{"indexed":false,"internalType":"address","name":"producer","type":"address"},{"indexed":false,"internalType":"string","name":"quantity","type":"string"},{"indexed":false,"internalType":"string","name":"details","type":"string"},{"indexed":false,"internalType":"uint256","name":"timestamp","type":"uint256"}],"name":"ProductRegistered","type":"event"},{"anonymous":false,"inputs":[{"indexed":true,"internalType":"bytes32","name":"role","type":"bytes32"},{"indexed":true,"internalType":"bytes32","name":"previousAdminRole","type":"bytes32"},{"indexed":true,"internalType":"bytes32","name":"newAdminRole","type":"bytes32"}],"name":"RoleAdminChanged","type":"event"},{"anonymous":false,"inputs":[{"indexed":true,"internalType":"bytes32","name":"role","type":"bytes32"},{"indexed":true,"internalType":"address","name":"account","type":"address"},{"indexed":true,"internalType":"address","name":"sender","type":"address"}],"name":"RoleGranted","type":"event"},{"anonymous":false,"inputs":[{"indexed":true,"internalType":"bytes32","name":"role","type":"bytes32"},{"indexed":true,"internalType":"address","name":"account","type":"address"},{"indexed":true,"internalType":"address","name":"sender","type":"address"}],"name":"RoleRevoked","type":"event"},{"inputs":[],"name":"DEFAULT_ADMIN_ROLE","outputs":[{"internalType":"bytes32","name":"","type":"bytes32"}],"stateMutability":"view","type":"function"},{"inputs":[],"name":"PRODUCER_ROLE","outputs":[{"internalType":"bytes32","name":"","type":"bytes32"}],"stateMutability":"view","type":"function"},{"inputs":[{"internalType":"uint256","name":"productId","type":"uint256"}],"name":"getProduct","outputs":[{"components":[{"internalType":"uint256","name":"productId","type":"uint256"},{"internalType":"address","name":"producer","type":"address"},{"internalType":"string","name":"quantity","type":"string"},{"internalType":"string","name":"details","type":"string"},{"internalType":"uint256","name":"timestamp","type":"uint256"}],"internalType":"struct ProductRegistration.Product","name":"","type":"tuple"}],"stateMutability":"view","type":"function"},{"inputs":[{"internalType":"bytes32","name":"role","type":"bytes32"}],"name":"getRoleAdmin","outputs":[{"internalType":"bytes32","name":"","type":"bytes32"}],"stateMutability":"view","type":"function"},{"inputs":[{"internalType":"address","name":"account","type":"address"}],"name":"grantProducerRole","outputs":[],"stateMutability":"nonpayable","type":"function"},{"inputs":[{"internalType":"bytes32","name":"role","type":"bytes32"},{"internalType":"address","name":"account","type":"address"}],"name":"grantRole","outputs":[],"stateMutability":"nonpayable","type":"function"},{"inputs":[{"internalType":"bytes32","name":"role","type":"bytes32"},{"internalType":"address","name":"account","type":"address"}],"name":"hasRole","outputs":[{"internalType":"bool","name":"","type":"bool"}],"stateMutability":"view","type":"function"},{"inputs":[],"name":"productCounter","outputs":[{"internalType":"uint256","name":"","type":"uint256"}],"stateMutability":"view","type":"function"},{"inputs":[{"internalType":"uint256","name":"","type":"uint256"}],"name":"products","outputs":[{"internalType":"uint256","name":"productId","type":"uint256"},{"internalType":"address","name":"producer","type":"address"},{"internalType":"string","name":"quantity","type":"string"},{"internalType":"string","name":"details","type":"string"},{"internalType":"uint256","name":"timestamp","type":"uint256"}],"stateMutability":"view","type":"function"},{"inputs":[{"internalType":"string","name":"details","type":"string"},{"internalType":"string","name":"quantity","type":"string"}],"name":"registerProduct","outputs":[],"stateMutability":"nonpayable","type":"function"},{"inputs":[{"internalType":"bytes32","name":"role","type":"bytes32"},{"internalType":"address","name":"callerConfirmation","type":"address"}],"name":"renounceRole","outputs":[],"stateMutability":"nonpayable","type":"function"},{"inputs":[{"internalType":"bytes32","name":"role","type":"bytes32"},{"internalType":"address","name":"account","type":"address"}],"name":"revokeRole","outputs":[],"stateMutability":"nonpayable","type":"function"},{"inputs":[{"internalType":"bytes4","name":"interfaceId","type":"bytes4"}],"name":"supportsInterface","outputs":[{"internalType":"bool","name":"","type":"bool"}],"stateMutability":"view","type":"function"}],"evm":{"bytecode":{"linkReferences":{},"object":"60806040523461002c5761001233610031565b5061001c336100ad565b50604051610d8090816101468239f35b600080fd5b6001600160a01b0381166000908152600080516020610f06833981519152602052604090205460ff166100a7576001600160a01b03166000818152600080516020610f0683398151915260205260408120805460ff19166001179055339190600080516020610ec68339815191528180a4600190565b50600090565b6001600160a01b0381166000908152600080516020610ee6833981519152602052604090205460ff166100a7576001600160a01b03166000818152600080516020610ee683398151915260205260408120805460ff191660011790553391907f8eb467f061ca67f42a2d2ca4a346fc9fb645efc0ba75056ee9f71c3a0ccc10a890600080516020610ec68339815191529080a460019056fe608080604052600436101561001357600080fd5b60003560e01c90816301ffc9a7146108c1575080631f16653b146108a3578063248a9ca31461086e5780632d14145e146107ad5780632f2ff15d1461076d57806336568abe146107275780637acc0b20146106c45780638fbd0dcf146102d657806391d1485414610289578063a217fddf1461026d578063b9db15b414610123578063cb3e1fe7146100fa5763d547741f146100ae57600080fd5b346100f55760403660031901126100f5576100f36004356100cd610914565b906100ee6100e982600052600060205260016040600020015490565b610b20565b610ca8565b005b600080fd5b346100f55760003660031901126100f5576020604051600080516020610d2b8339815191528152f35b346100f55760203660031901126100f5576004356000608060405161014781610964565b8281528260208201526060604082015260608082015201528060005260016020526040600020541561022f576000526001602052604060002060405161018c81610964565b8154815260018201546001600160a01b031660208201908152916102246101b5600283016109a2565b916040840192835261021160046101ce600384016109a2565b9260608701938452015493608086019485526040519687966020885251602088015260018060a01b0390511660408701525160a0606087015260c0860190610a46565b9051848203601f19016080860152610a46565b905160a08301520390f35b60405162461bcd60e51b8152602060048201526016602482015275141c9bd91d58dd08191bd95cc81b9bdd08195e1a5cdd60521b6044820152606490fd5b346100f55760003660031901126100f557602060405160008152f35b346100f55760403660031901126100f5576102a2610914565b600435600052600060205260406000209060018060a01b0316600052602052602060ff604060002054166040519015158152f35b346100f55760403660031901126100f55760043567ffffffffffffffff81116100f557610307903690600401610ac9565b60243567ffffffffffffffff81116100f557610327903690600401610ac9565b3360009081527f06320dbdbf18953a1af49a3fe4ea5804853716848e42abbca49898582e53bfc0602052604090205490919060ff161561069d57600254600019811461068757600101918260025560405161038181610964565b838152602081019333855260408201838152606083019585875260808401924284526000526001602052604060002093518455600184019060018060a01b039051166bffffffffffffffffffffffff60a01b82541617905560028301905180519067ffffffffffffffff82116105ae5781906103fd845461092a565b601f8111610634575b50602090601f83116001146105cf576000926105c4575b50508160011b916000199060031b1c19161790555b60038201945194855167ffffffffffffffff81116105ae57610454825461092a565b601f8111610566575b506020601f82116001146104db57908060049493927f28c8966a5b6b16c4dd03ae53ea7c406eed3dead5b68f6a1b75337631b1f65a3e996000926104d0575b50508160011b916000199060031b1c19161790555b519101556104cb6002546040519384934292339086610a87565b0390a1005b01519050898061049c565b601f1982169783600052816000209860005b81811061054e575098600192849260049796957f28c8966a5b6b16c4dd03ae53ea7c406eed3dead5b68f6a1b75337631b1f65a3e9c10610535575b505050811b0190556104b1565b015160001960f88460031b161c19169055898080610528565b838301518b556001909a0199602093840193016104ed565b826000526020600020601f830160051c810191602084106105a4575b601f0160051c01905b818110610598575061045d565b6000815560010161058b565b9091508190610582565b634e487b7160e01b600052604160045260246000fd5b01519050888061041d565b60008581528281209350601f198516905b81811061061c5750908460019594939210610603575b505050811b019055610432565b015160001960f88460031b161c191690558880806105f6565b929360206001819287860151815501950193016105e0565b909150836000526020600020601f840160051c8101916020851061067d575b90601f859493920160051c01905b81811061066e5750610406565b60008155849350600101610661565b9091508190610653565b634e487b7160e01b600052601160045260246000fd5b63e2517d3f60e01b60005233600452600080516020610d2b83398151915260245260446000fd5b346100f55760203660031901126100f55760043560005260016020526040600020805461072360018060a01b0360018401541692610704600282016109a2565b906004610713600383016109a2565b9101549160405195869586610a87565b0390f35b346100f55760403660031901126100f557610740610914565b336001600160a01b0382160361075c576100f390600435610ca8565b63334bd91960e11b60005260046000fd5b346100f55760403660031901126100f5576100f360043561078c610914565b906107a86100e982600052600060205260016040600020015490565b610c1d565b346100f55760203660031901126100f5576004356001600160a01b03811681036100f5573360009081527fad3228b676f7d3cd4284a5443f17f1962b36e491b30a40b2405849e597ba5fb5602052604090205460ff161561085457600080516020610d2b83398151915260009081526020527f06320dbdbf18953a1af49a3fe4ea5804853716848e42abbca49898582e53bfc1546100f3919061084f90610b20565b610b5b565b63e2517d3f60e01b60005233600452600060245260446000fd5b346100f55760203660031901126100f557602061089b600435600052600060205260016040600020015490565b604051908152f35b346100f55760003660031901126100f5576020600254604051908152f35b346100f55760203660031901126100f5576004359063ffffffff60e01b82168092036100f557602091637965db0b60e01b8114908115610903575b5015158152f35b6301ffc9a760e01b149050836108fc565b602435906001600160a01b03821682036100f557565b90600182811c9216801561095a575b602083101461094457565b634e487b7160e01b600052602260045260246000fd5b91607f1691610939565b60a0810190811067ffffffffffffffff8211176105ae57604052565b90601f8019910116810190811067ffffffffffffffff8211176105ae57604052565b90604051918260008254926109b68461092a565b8084529360018116908115610a2457506001146109dd575b506109db92500383610980565b565b90506000929192526020600020906000915b818310610a085750509060206109db92820101386109ce565b60209193508060019154838589010152019101909184926109ef565b9050602092506109db94915060ff191682840152151560051b820101386109ce565b919082519283825260005b848110610a72575050826000602080949584010152601f8019910116010190565b80602080928401015182828601015201610a51565b95949390608093610ac493610ab692895260018060a01b0316602089015260a0604089015260a0880190610a46565b908682036060880152610a46565b930152565b81601f820112156100f55780359067ffffffffffffffff82116105ae5760405192610afe601f8401601f191660200185610980565b828452602083830101116100f557816000926020809301838601378301015290565b60008181526020818152604080832033845290915290205460ff1615610b435750565b63e2517d3f60e01b6000523360045260245260446000fd5b6001600160a01b03811660009081527f06320dbdbf18953a1af49a3fe4ea5804853716848e42abbca49898582e53bfc0602052604090205460ff16610c17576001600160a01b031660008181527f06320dbdbf18953a1af49a3fe4ea5804853716848e42abbca49898582e53bfc060205260408120805460ff19166001179055339190600080516020610d2b833981519152907f2f8788117e7eff1d82e926ec794901d17c78024a50270940304540a733656f0d9080a4600190565b50600090565b6000818152602081815260408083206001600160a01b038616845290915290205460ff16610ca1576000818152602081815260408083206001600160a01b0395909516808452949091528120805460ff19166001179055339291907f2f8788117e7eff1d82e926ec794901d17c78024a50270940304540a733656f0d9080a4600190565b5050600090565b6000818152602081815260408083206001600160a01b038616845290915290205460ff1615610ca1576000818152602081815260408083206001600160a01b0395909516808452949091528120805460ff19169055339291907ff6391f5c32d9c69d2a47ea670b442974b53935d1edc7fd64eb21e047a839171b9080a460019056fe8eb467f061ca67f42a2d2ca4a346fc9fb645efc0ba75056ee9f71c3a0ccc10a8a26469706673582212208a243cc0de9e48a779612ebde59632d7e8a003f081bbd0fc1177dda9b260945a64736f6c634300081c00332f8788117e7eff1d82e926ec794901d17c78024a50270940304540a733656f0d06320dbdbf18953a1af49a3fe4ea5804853716848e42abbca49898582e53bfc0ad3228b676f7d3cd4284a5443f17f1962b36e491b30a40b2405849e597ba5fb5","opcodes":"PUSH1 0x80 PUSH1 0x40 MSTORE CALLVALUE PUSH2 0x2C JUMPI PUSH2 0x12 CALLER PUSH2 0x31 JUMP JUMPDEST POP PUSH2 0x1C CALLER PUSH2 0xAD JUMP JUMPDEST POP PUSH1 0x40 MLOAD PUSH2 0xD80 SWAP1 DUP2 PUSH2 0x146 DUP3 CODECOPY RETURN JUMPDEST PUSH1 0x0 DUP1 REVERT JUMPDEST PUSH1 0x1 PUSH1 0x1 PUSH1 0xA0 SHL SUB DUP2 AND PUSH1 0x0 SWAP1 DUP2 MSTORE PUSH1 0x0 DUP1 MLOAD PUSH1 0x20 PUSH2 0xF06 DUP4 CODECOPY DUP2 MLOAD SWAP2 MSTORE PUSH1 0x20 MSTORE PUSH1 0x40 SWAP1 KECCAK256 SLOAD PUSH1 0xFF AND PUSH2 0xA7 JUMPI PUSH1 0x1 PUSH1 0x1 PUSH1 0xA0 SHL SUB AND PUSH1 0x0 DUP2 DUP2 MSTORE PUSH1 0x0 DUP1 MLOAD PUSH1 0x20 PUSH2 0xF06 DUP4 CODECOPY DUP2 MLOAD SWAP2 MSTORE PUSH1 0x20 MSTORE PUSH1 0x40 DUP2 KECCAK256 DUP1 SLOAD PUSH1 0xFF NOT AND PUSH1 0x1 OR SWAP1 SSTORE CALLER SWAP2 SWAP1 PUSH1 0x0 DUP1 MLOAD PUSH1 0x20 PUSH2 0xEC6 DUP4 CODECOPY DUP2 MLOAD SWAP2 MSTORE DUP2 DUP1 LOG4 PUSH1 0x1 SWAP1 JUMP JUMPDEST POP PUSH1 0x0 SWAP1 JUMP JUMPDEST PUSH1 0x1 PUSH1 0x1 PUSH1 0xA0 SHL SUB DUP2 AND PUSH1 0x0 SWAP1 DUP2 MSTORE PUSH1 0x0 DUP1 MLOAD PUSH1 0x20 PUSH2 0xEE6 DUP4 CODECOPY DUP2 MLOAD SWAP2 MSTORE PUSH1 0x20 MSTORE PUSH1 0x40 SWAP1 KECCAK256 SLOAD PUSH1 0xFF AND PUSH2 0xA7 JUMPI PUSH1 0x1 PUSH1 0x1 PUSH1 0xA0 SHL SUB AND PUSH1 0x0 DUP2 DUP2 MSTORE PUSH1 0x0 DUP1 MLOAD PUSH1 0x20 PUSH2 0xEE6 DUP4 CODECOPY DUP2 MLOAD SWAP2 MSTORE PUSH1 0x20 MSTORE PUSH1 0x40 DUP2 KECCAK256 DUP1 SLOAD PUSH1 0xFF NOT AND PUSH1 0x1 OR SWAP1 SSTORE CALLER SWAP2 SWAP1 PUSH32 0x8EB467F061CA67F42A2D2CA4A346FC9FB645EFC0BA75056EE9F71C3A0CCC10A8 SWAP1 PUSH1 0x0 DUP1 MLOAD PUSH1 0x20 PUSH2 0xEC6 DUP4 CODECOPY DUP2 MLOAD SWAP2 MSTORE SWAP1 DUP1 LOG4 PUSH1 0x1 SWAP1 JUMP INVALID PUSH1 0x80 DUP1 PUSH1 0x40 MSTORE PUSH1 0x4 CALLDATASIZE LT ISZERO PUSH2 0x13 JUMPI PUSH1 0x0 DUP1 REVERT JUMPDEST PUSH1 0x0 CALLDATALOAD PUSH1 0xE0 SHR SWAP1 DUP2 PUSH4 0x1FFC9A7 EQ PUSH2 0x8C1 JUMPI POP DUP1 PUSH4 0x1F16653B EQ PUSH2 0x8A3 JUMPI DUP1 PUSH4 0x248A9CA3 EQ PUSH2 0x86E JUMPI DUP1 PUSH4 0x2D14145E EQ PUSH2 0x7AD JUMPI DUP1 PUSH4 0x2F2FF15D EQ PUSH2 0x76D JUMPI DUP1 PUSH4 0x36568ABE EQ PUSH2 0x727 JUMPI DUP1 PUSH4 0x7ACC0B20 EQ PUSH2 0x6C4 JUMPI DUP1 PUSH4 0x8FBD0DCF EQ PUSH2 0x2D6 JUMPI DUP1 PUSH4 0x91D14854 EQ PUSH2 0x289 JUMPI DUP1 PUSH4 0xA217FDDF EQ PUSH2 0x26D JUMPI DUP1 PUSH4 0xB9DB15B4 EQ PUSH2 0x123 JUMPI DUP1 PUSH4 0xCB3E1FE7 EQ PUSH2 0xFA JUMPI PUSH4 0xD547741F EQ PUSH2 0xAE JUMPI PUSH1 0x0 DUP1 REVERT JUMPDEST CALLVALUE PUSH2 0xF5 JUMPI PUSH1 0x40 CALLDATASIZE PUSH1 0x3 NOT ADD SLT PUSH2 0xF5 JUMPI PUSH2 0xF3 PUSH1 0x4 CALLDATALOAD PUSH2 0xCD PUSH2 0x914 JUMP JUMPDEST SWAP1 PUSH2 0xEE PUSH2 0xE9 DUP3 PUSH1 0x0 MSTORE PUSH1 0x0 PUSH1 0x20 MSTORE PUSH1 0x1 PUSH1 0x40 PUSH1 0x0 KECCAK256 ADD SLOAD SWAP1 JUMP JUMPDEST PUSH2 0xB20 JUMP JUMPDEST PUSH2 0xCA8 JUMP JUMPDEST STOP JUMPDEST PUSH1 0x0 DUP1 REVERT JUMPDEST CALLVALUE PUSH2 0xF5 JUMPI PUSH1 0x0 CALLDATASIZE PUSH1 0x3 NOT ADD SLT PUSH2 0xF5 JUMPI PUSH1 0x20 PUSH1 0x40 MLOAD PUSH1 0x0 DUP1 MLOAD PUSH1 0x20 PUSH2 0xD2B DUP4 CODECOPY DUP2 MLOAD SWAP2 MSTORE DUP2 MSTORE RETURN JUMPDEST CALLVALUE PUSH2 0xF5 JUMPI PUSH1 0x20 CALLDATASIZE PUSH1 0x3 NOT ADD SLT PUSH2 0xF5 JUMPI PUSH1 0x4 CALLDATALOAD PUSH1 0x0 PUSH1 0x80 PUSH1 0x40 MLOAD PUSH2 0x147 DUP2 PUSH2 0x964 JUMP JUMPDEST DUP3 DUP2 MSTORE DUP3 PUSH1 0x20 DUP3 ADD MSTORE PUSH1 0x60 PUSH1 0x40 DUP3 ADD MSTORE PUSH1 0x60 DUP1 DUP3 ADD MSTORE ADD MSTORE DUP1 PUSH1 0x0 MSTORE PUSH1 0x1 PUSH1 0x20 MSTORE PUSH1 0x40 PUSH1 0x0 KECCAK256 SLOAD ISZERO PUSH2 0x22F JUMPI PUSH1 0x0 MSTORE PUSH1 0x1 PUSH1 0x20 MSTORE PUSH1 0x40 PUSH1 0x0 KECCAK256 PUSH1 0x40 MLOAD PUSH2 0x18C DUP2 PUSH2 0x964 JUMP JUMPDEST DUP2 SLOAD DUP2 MSTORE PUSH1 0x1 DUP3 ADD SLOAD PUSH1 0x1 PUSH1 0x1 PUSH1 0xA0 SHL SUB AND PUSH1 0x20 DUP3 ADD SWAP1 DUP2 MSTORE SWAP2 PUSH2 0x224 PUSH2 0x1B5 PUSH1 0x2 DUP4 ADD PUSH2 0x9A2 JUMP JUMPDEST SWAP2 PUSH1 0x40 DUP5 ADD SWAP3 DUP4 MSTORE PUSH2 0x211 PUSH1 0x4 PUSH2 0x1CE PUSH1 0x3 DUP5 ADD PUSH2 0x9A2 JUMP JUMPDEST SWAP3 PUSH1 0x60 DUP8 ADD SWAP4 DUP5 MSTORE ADD SLOAD SWAP4 PUSH1 0x80 DUP7 ADD SWAP5 DUP6 MSTORE PUSH1 0x40 MLOAD SWAP7 DUP8 SWAP7 PUSH1 0x20 DUP9 MSTORE MLOAD PUSH1 0x20 DUP9 ADD MSTORE PUSH1 0x1 DUP1 PUSH1 0xA0 SHL SUB SWAP1 MLOAD AND PUSH1 0x40 DUP8 ADD MSTORE MLOAD PUSH1 0xA0 PUSH1 0x60 DUP8 ADD MSTORE PUSH1 0xC0 DUP7 ADD SWAP1 PUSH2 0xA46 JUMP JUMPDEST SWAP1 MLOAD DUP5 DUP3 SUB PUSH1 0x1F NOT ADD PUSH1 0x80 DUP7 ADD MSTORE PUSH2 0xA46 JUMP JUMPDEST SWAP1 MLOAD PUSH1 0xA0 DUP4 ADD MSTORE SUB SWAP1 RETURN JUMPDEST PUSH1 0x40 MLOAD PUSH3 0x461BCD PUSH1 0xE5 SHL DUP2 MSTORE PUSH1 0x20 PUSH1 0x4 DUP3 ADD MSTORE PUSH1 0x16 PUSH1 0x24 DUP3 ADD MSTORE PUSH22 0x141C9BD91D58DD08191BD95CC81B9BDD08195E1A5CDD PUSH1 0x52 SHL PUSH1 0x44 DUP3 ADD MSTORE PUSH1 0x64 SWAP1 REVERT JUMPDEST CALLVALUE PUSH2 0xF5 JUMPI PUSH1 0x0 CALLDATASIZE PUSH1 0x3 NOT ADD SLT PUSH2 0xF5 JUMPI PUSH1 0x20 PUSH1 0x40 MLOAD PUSH1 0x0 DUP2 MSTORE RETURN JUMPDEST CALLVALUE PUSH2 0xF5 JUMPI PUSH1 0x40 CALLDATASIZE PUSH1 0x3 NOT ADD SLT PUSH2 0xF5 JUMPI PUSH2 0x2A2 PUSH2 0x914 JUMP JUMPDEST PUSH1 0x4 CALLDATALOAD PUSH1 0x0 MSTORE PUSH1 0x0 PUSH1 0x20 MSTORE PUSH1 0x40 PUSH1 0x0 KECCAK256 SWAP1 PUSH1 0x1 DUP1 PUSH1 0xA0 SHL SUB AND PUSH1 0x0 MSTORE PUSH1 0x20 MSTORE PUSH1 0x20 PUSH1 0xFF PUSH1 0x40 PUSH1 0x0 KECCAK256 SLOAD AND PUSH1 0x40 MLOAD SWAP1 ISZERO ISZERO DUP2 MSTORE RETURN JUMPDEST CALLVALUE PUSH2 0xF5 JUMPI PUSH1 0x40 CALLDATASIZE PUSH1 0x3 NOT ADD SLT PUSH2 0xF5 JUMPI PUSH1 0x4 CALLDATALOAD PUSH8 0xFFFFFFFFFFFFFFFF DUP2 GT PUSH2 0xF5 JUMPI PUSH2 0x307 SWAP1 CALLDATASIZE SWAP1 PUSH1 0x4 ADD PUSH2 0xAC9 JUMP JUMPDEST PUSH1 0x24 CALLDATALOAD PUSH8 0xFFFFFFFFFFFFFFFF DUP2 GT PUSH2 0xF5 JUMPI PUSH2 0x327 SWAP1 CALLDATASIZE SWAP1 PUSH1 0x4 ADD PUSH2 0xAC9 JUMP JUMPDEST CALLER PUSH1 0x0 SWAP1 DUP2 MSTORE PUSH32 0x6320DBDBF18953A1AF49A3FE4EA5804853716848E42ABBCA49898582E53BFC0 PUSH1 0x20 MSTORE PUSH1 0x40 SWAP1 KECCAK256 SLOAD SWAP1 SWAP2 SWAP1 PUSH1 0xFF AND ISZERO PUSH2 0x69D JUMPI PUSH1 0x2 SLOAD PUSH1 0x0 NOT DUP2 EQ PUSH2 0x687 JUMPI PUSH1 0x1 ADD SWAP2 DUP3 PUSH1 0x2 SSTORE PUSH1 0x40 MLOAD PUSH2 0x381 DUP2 PUSH2 0x964 JUMP JUMPDEST DUP4 DUP2 MSTORE PUSH1 0x20 DUP2 ADD SWAP4 CALLER DUP6 MSTORE PUSH1 0x40 DUP3 ADD DUP4 DUP2 MSTORE PUSH1 0x60 DUP4 ADD SWAP6 DUP6 DUP8 MSTORE PUSH1 0x80 DUP5 ADD SWAP3 TIMESTAMP DUP5 MSTORE PUSH1 0x0 MSTORE PUSH1 0x1 PUSH1 0x20 MSTORE PUSH1 0x40 PUSH1 0x0 KECCAK256 SWAP4 MLOAD DUP5 SSTORE PUSH1 0x1 DUP5 ADD SWAP1 PUSH1 0x1 DUP1 PUSH1 0xA0 SHL SUB SWAP1 MLOAD AND PUSH12 0xFFFFFFFFFFFFFFFFFFFFFFFF PUSH1 0xA0 SHL DUP3 SLOAD AND OR SWAP1 SSTORE PUSH1 0x2 DUP4 ADD SWAP1 MLOAD DUP1 MLOAD SWAP1 PUSH8 0xFFFFFFFFFFFFFFFF DUP3 GT PUSH2 0x5AE JUMPI DUP2 SWAP1 PUSH2 0x3FD DUP5 SLOAD PUSH2 0x92A JUMP JUMPDEST PUSH1 0x1F DUP2 GT PUSH2 0x634 JUMPI JUMPDEST POP PUSH1 0x20 SWAP1 PUSH1 0x1F DUP4 GT PUSH1 0x1 EQ PUSH2 0x5CF JUMPI PUSH1 0x0 SWAP3 PUSH2 0x5C4 JUMPI JUMPDEST POP POP DUP2 PUSH1 0x1 SHL SWAP2 PUSH1 0x0 NOT SWAP1 PUSH1 0x3 SHL SHR NOT AND OR SWAP1 SSTORE JUMPDEST PUSH1 0x3 DUP3 ADD SWAP5 MLOAD SWAP5 DUP6 MLOAD PUSH8 0xFFFFFFFFFFFFFFFF DUP2 GT PUSH2 0x5AE JUMPI PUSH2 0x454 DUP3 SLOAD PUSH2 0x92A JUMP JUMPDEST PUSH1 0x1F DUP2 GT PUSH2 0x566 JUMPI JUMPDEST POP PUSH1 0x20 PUSH1 0x1F DUP3 GT PUSH1 0x1 EQ PUSH2 0x4DB JUMPI SWAP1 DUP1 PUSH1 0x4 SWAP5 SWAP4 SWAP3 PUSH32 0x28C8966A5B6B16C4DD03AE53EA7C406EED3DEAD5B68F6A1B75337631B1F65A3E SWAP10 PUSH1 0x0 SWAP3 PUSH2 0x4D0 JUMPI JUMPDEST POP POP DUP2 PUSH1 0x1 SHL SWAP2 PUSH1 0x0 NOT SWAP1 PUSH1 0x3 SHL SHR NOT AND OR SWAP1 SSTORE JUMPDEST MLOAD SWAP2 ADD SSTORE PUSH2 0x4CB PUSH1 0x2 SLOAD PUSH1 0x40 MLOAD SWAP4 DUP5 SWAP4 TIMESTAMP SWAP3 CALLER SWAP1 DUP7 PUSH2 0xA87 JUMP JUMPDEST SUB SWAP1 LOG1 STOP JUMPDEST ADD MLOAD SWAP1 POP DUP10 DUP1 PUSH2 0x49C JUMP JUMPDEST PUSH1 0x1F NOT DUP3 AND SWAP8 DUP4 PUSH1 0x0 MSTORE DUP2 PUSH1 0x0 KECCAK256 SWAP9 PUSH1 0x0 JUMPDEST DUP2 DUP2 LT PUSH2 0x54E JUMPI POP SWAP9 PUSH1 0x1 SWAP3 DUP5 SWAP3 PUSH1 0x4 SWAP8 SWAP7 SWAP6 PUSH32 0x28C8966A5B6B16C4DD03AE53EA7C406EED3DEAD5B68F6A1B75337631B1F65A3E SWAP13 LT PUSH2 0x535 JUMPI JUMPDEST POP POP POP DUP2 SHL ADD SWAP1 SSTORE PUSH2 0x4B1 JUMP JUMPDEST ADD MLOAD PUSH1 0x0 NOT PUSH1 0xF8 DUP5 PUSH1 0x3 SHL AND SHR NOT AND SWAP1 SSTORE DUP10 DUP1 DUP1 PUSH2 0x528 JUMP JUMPDEST DUP4 DUP4 ADD MLOAD DUP12 SSTORE PUSH1 0x1 SWAP1 SWAP11 ADD SWAP10 PUSH1 0x20 SWAP4 DUP5 ADD SWAP4 ADD PUSH2 0x4ED JUMP JUMPDEST DUP3 PUSH1 0x0 MSTORE PUSH1 0x20 PUSH1 0x0 KECCAK256 PUSH1 0x1F DUP4 ADD PUSH1 0x5 SHR DUP2 ADD SWAP2 PUSH1 0x20 DUP5 LT PUSH2 0x5A4 JUMPI JUMPDEST PUSH1 0x1F ADD PUSH1 0x5 SHR ADD SWAP1 JUMPDEST DUP2 DUP2 LT PUSH2 0x598 JUMPI POP PUSH2 0x45D JUMP JUMPDEST PUSH1 0x0 DUP2 SSTORE PUSH1 0x1 ADD PUSH2 0x58B JUMP JUMPDEST SWAP1 SWAP2 POP DUP2 SWAP1 PUSH2 0x582 JUMP JUMPDEST PUSH4 0x4E487B71 PUSH1 0xE0 SHL PUSH1 0x0 MSTORE PUSH1 0x41 PUSH1 0x4 MSTORE PUSH1 0x24 PUSH1 0x0 REVERT JUMPDEST ADD MLOAD SWAP1 POP DUP9 DUP1 PUSH2 0x41D JUMP JUMPDEST PUSH1 0x0 DUP6 DUP2 MSTORE DUP3 DUP2 KECCAK256 SWAP4 POP PUSH1 0x1F NOT DUP6 AND SWAP1 JUMPDEST DUP2 DUP2 LT PUSH2 0x61C JUMPI POP SWAP1 DUP5 PUSH1 0x1 SWAP6 SWAP5 SWAP4 SWAP3 LT PUSH2 0x603 JUMPI JUMPDEST POP POP POP DUP2 SHL ADD SWAP1 SSTORE PUSH2 0x432 JUMP JUMPDEST ADD MLOAD PUSH1 0x0 NOT PUSH1 0xF8 DUP5 PUSH1 0x3 SHL AND SHR NOT AND SWAP1 SSTORE DUP9 DUP1 DUP1 PUSH2 0x5F6 JUMP JUMPDEST SWAP3 SWAP4 PUSH1 0x20 PUSH1 0x1 DUP2 SWAP3 DUP8 DUP7 ADD MLOAD DUP2 SSTORE ADD SWAP6 ADD SWAP4 ADD PUSH2 0x5E0 JUMP JUMPDEST SWAP1 SWAP2 POP DUP4 PUSH1 0x0 MSTORE PUSH1 0x20 PUSH1 0x0 KECCAK256 PUSH1 0x1F DUP5 ADD PUSH1 0x5 SHR DUP2 ADD SWAP2 PUSH1 0x20 DUP6 LT PUSH2 0x67D JUMPI JUMPDEST SWAP1 PUSH1 0x1F DUP6 SWAP5 SWAP4 SWAP3 ADD PUSH1 0x5 SHR ADD SWAP1 JUMPDEST DUP2 DUP2 LT PUSH2 0x66E JUMPI POP PUSH2 0x406 JUMP JUMPDEST PUSH1 0x0 DUP2 SSTORE DUP5 SWAP4 POP PUSH1 0x1 ADD PUSH2 0x661 JUMP JUMPDEST SWAP1 SWAP2 POP DUP2 SWAP1 PUSH2 0x653 JUMP JUMPDEST PUSH4 0x4E487B71 PUSH1 0xE0 SHL PUSH1 0x0 MSTORE PUSH1 0x11 PUSH1 0x4 MSTORE PUSH1 0x24 PUSH1 0x0 REVERT JUMPDEST PUSH4 0xE2517D3F PUSH1 0xE0 SHL PUSH1 0x0 MSTORE CALLER PUSH1 0x4 MSTORE PUSH1 0x0 DUP1 MLOAD PUSH1 0x20 PUSH2 0xD2B DUP4 CODECOPY DUP2 MLOAD SWAP2 MSTORE PUSH1 0x24 MSTORE PUSH1 0x44 PUSH1 0x0 REVERT JUMPDEST CALLVALUE PUSH2 0xF5 JUMPI PUSH1 0x20 CALLDATASIZE PUSH1 0x3 NOT ADD SLT PUSH2 0xF5 JUMPI PUSH1 0x4 CALLDATALOAD PUSH1 0x0 MSTORE PUSH1 0x1 PUSH1 0x20 MSTORE PUSH1 0x40 PUSH1 0x0 KECCAK256 DUP1 SLOAD PUSH2 0x723 PUSH1 0x1 DUP1 PUSH1 0xA0 SHL SUB PUSH1 0x1 DUP5 ADD SLOAD AND SWAP3 PUSH2 0x704 PUSH1 0x2 DUP3 ADD PUSH2 0x9A2 JUMP JUMPDEST SWAP1 PUSH1 0x4 PUSH2 0x713 PUSH1 0x3 DUP4 ADD PUSH2 0x9A2 JUMP JUMPDEST SWAP2 ADD SLOAD SWAP2 PUSH1 0x40 MLOAD SWAP6 DUP7 SWAP6 DUP7 PUSH2 0xA87 JUMP JUMPDEST SUB SWAP1 RETURN JUMPDEST CALLVALUE PUSH2 0xF5 JUMPI PUSH1 0x40 CALLDATASIZE PUSH1 0x3 NOT ADD SLT PUSH2 0xF5 JUMPI PUSH2 0x740 PUSH2 0x914 JUMP JUMPDEST CALLER PUSH1 0x1 PUSH1 0x1 PUSH1 0xA0 SHL SUB DUP3 AND SUB PUSH2 0x75C JUMPI PUSH2 0xF3 SWAP1 PUSH1 0x4 CALLDATALOAD PUSH2 0xCA8 JUMP JUMPDEST PUSH4 0x334BD919 PUSH1 0xE1 SHL PUSH1 0x0 MSTORE PUSH1 0x4 PUSH1 0x0 REVERT JUMPDEST CALLVALUE PUSH2 0xF5 JUMPI PUSH1 0x40 CALLDATASIZE PUSH1 0x3 NOT ADD SLT PUSH2 0xF5 JUMPI PUSH2 0xF3 PUSH1 0x4 CALLDATALOAD PUSH2 0x78C PUSH2 0x914 JUMP JUMPDEST SWAP1 PUSH2 0x7A8 PUSH2 0xE9 DUP3 PUSH1 0x0 MSTORE PUSH1 0x0 PUSH1 0x20 MSTORE PUSH1 0x1 PUSH1 0x40 PUSH1 0x0 KECCAK256 ADD SLOAD SWAP1 JUMP JUMPDEST PUSH2 0xC1D JUMP JUMPDEST CALLVALUE PUSH2 0xF5 JUMPI PUSH1 0x20 CALLDATASIZE PUSH1 0x3 NOT ADD SLT PUSH2 0xF5 JUMPI PUSH1 0x4 CALLDATALOAD PUSH1 0x1 PUSH1 0x1 PUSH1 0xA0 SHL SUB DUP2 AND DUP2 SUB PUSH2 0xF5 JUMPI CALLER PUSH1 0x0 SWAP1 DUP2 MSTORE PUSH32 0xAD3228B676F7D3CD4284A5443F17F1962B36E491B30A40B2405849E597BA5FB5 PUSH1 0x20 MSTORE PUSH1 0x40 SWAP1 KECCAK256 SLOAD PUSH1 0xFF AND ISZERO PUSH2 0x854 JUMPI PUSH1 0x0 DUP1 MLOAD PUSH1 0x20 PUSH2 0xD2B DUP4 CODECOPY DUP2 MLOAD SWAP2 MSTORE PUSH1 0x0 SWAP1 DUP2 MSTORE PUSH1 0x20 MSTORE PUSH32 0x6320DBDBF18953A1AF49A3FE4EA5804853716848E42ABBCA49898582E53BFC1 SLOAD PUSH2 0xF3 SWAP2 SWAP1 PUSH2 0x84F SWAP1 PUSH2 0xB20 JUMP JUMPDEST PUSH2 0xB5B JUMP JUMPDEST PUSH4 0xE2517D3F PUSH1 0xE0 SHL PUSH1 0x0 MSTORE CALLER PUSH1 0x4 MSTORE PUSH1 0x0 PUSH1 0x24 MSTORE PUSH1 0x44 PUSH1 0x0 REVERT JUMPDEST CALLVALUE PUSH2 0xF5 JUMPI PUSH1 0x20 CALLDATASIZE PUSH1 0x3 NOT ADD SLT PUSH2 0xF5 JUMPI PUSH1 0x20 PUSH2 0x89B PUSH1 0x4 CALLDATALOAD PUSH1 0x0 MSTORE PUSH1 0x0 PUSH1 0x20 MSTORE PUSH1 0x1 PUSH1 0x40 PUSH1 0x0 KECCAK256 ADD SLOAD SWAP1 JUMP JUMPDEST PUSH1 0x40 MLOAD SWAP1 DUP2 MSTORE RETURN JUMPDEST CALLVALUE PUSH2 0xF5 JUMPI PUSH1 0x0 CALLDATASIZE PUSH1 0x3 NOT ADD SLT PUSH2 0xF5 JUMPI PUSH1 0x20 PUSH1 0x2 SLOAD PUSH1 0x40 MLOAD SWAP1 DUP2 MSTORE RETURN JUMPDEST CALLVALUE PUSH2 0xF5 JUMPI PUSH1 0x20 CALLDATASIZE PUSH1 0x3 NOT ADD SLT PUSH2 0xF5 JUMPI PUSH1 0x4 CALLDATALOAD SWAP1 PUSH4 0xFFFFFFFF PUSH1 0xE0 SHL DUP3 AND DUP1 SWAP3 SUB PUSH2 0xF5 JUMPI PUSH1 0x20 SWAP2 PUSH4 0x7965DB0B PUSH1 0xE0 SHL DUP2 EQ SWAP1 DUP2 ISZERO PUSH2 0x903 JUMPI JUMPDEST POP ISZERO ISZERO DUP2 MSTORE RETURN JUMPDEST PUSH4 0x1FFC9A7 PUSH1 0xE0 SHL EQ SWAP1 POP DUP4 PUSH2 0x8FC JUMP JUMPDEST PUSH1 0x24 CALLDATALOAD SWAP1 PUSH1 0x1 PUSH1 0x1 PUSH1 0xA0 SHL SUB DUP3 AND DUP3 SUB PUSH2 0xF5 JUMPI JUMP JUMPDEST SWAP1 PUSH1 0x1 DUP3 DUP2 SHR SWAP3 AND DUP1 ISZERO PUSH2 0x95A JUMPI JUMPDEST PUSH1 0x20 DUP4 LT EQ PUSH2 0x944 JUMPI JUMP JUMPDEST PUSH4 0x4E487B71 PUSH1 0xE0 SHL PUSH1 0x0 MSTORE PUSH1 0x22 PUSH1 0x4 MSTORE PUSH1 0x24 PUSH1 0x0 REVERT JUMPDEST SWAP2 PUSH1 0x7F AND SWAP2 PUSH2 0x939 JUMP JUMPDEST PUSH1 0xA0 DUP2 ADD SWAP1 DUP2 LT PUSH8 0xFFFFFFFFFFFFFFFF DUP3 GT OR PUSH2 0x5AE JUMPI PUSH1 0x40 MSTORE JUMP JUMPDEST SWAP1 PUSH1 0x1F DUP1 NOT SWAP2 ADD AND DUP2 ADD SWAP1 DUP2 LT PUSH8 0xFFFFFFFFFFFFFFFF DUP3 GT OR PUSH2 0x5AE JUMPI PUSH1 0x40 MSTORE JUMP JUMPDEST SWAP1 PUSH1 0x40 MLOAD SWAP2 DUP3 PUSH1 0x0 DUP3 SLOAD SWAP3 PUSH2 0x9B6 DUP5 PUSH2 0x92A JUMP JUMPDEST DUP1 DUP5 MSTORE SWAP4 PUSH1 0x1 DUP2 AND SWAP1 DUP2 ISZERO PUSH2 0xA24 JUMPI POP PUSH1 0x1 EQ PUSH2 0x9DD JUMPI JUMPDEST POP PUSH2 0x9DB SWAP3 POP SUB DUP4 PUSH2 0x980 JUMP JUMPDEST JUMP JUMPDEST SWAP1 POP PUSH1 0x0 SWAP3 SWAP2 SWAP3 MSTORE PUSH1 0x20 PUSH1 0x0 KECCAK256 SWAP1 PUSH1 0x0 SWAP2 JUMPDEST DUP2 DUP4 LT PUSH2 0xA08 JUMPI POP POP SWAP1 PUSH1 0x20 PUSH2 0x9DB SWAP3 DUP3 ADD ADD CODESIZE PUSH2 0x9CE JUMP JUMPDEST PUSH1 0x20 SWAP2 SWAP4 POP DUP1 PUSH1 0x1 SWAP2 SLOAD DUP4 DUP6 DUP10 ADD ADD MSTORE ADD SWAP2 ADD SWAP1 SWAP2 DUP5 SWAP3 PUSH2 0x9EF JUMP JUMPDEST SWAP1 POP PUSH1 0x20 SWAP3 POP PUSH2 0x9DB SWAP5 SWAP2 POP PUSH1 0xFF NOT AND DUP3 DUP5 ADD MSTORE ISZERO ISZERO PUSH1 0x5 SHL DUP3 ADD ADD CODESIZE PUSH2 0x9CE JUMP JUMPDEST SWAP2 SWAP1 DUP3 MLOAD SWAP3 DUP4 DUP3 MSTORE PUSH1 0x0 JUMPDEST DUP5 DUP2 LT PUSH2 0xA72 JUMPI POP POP DUP3 PUSH1 0x0 PUSH1 0x20 DUP1 SWAP5 SWAP6 DUP5 ADD ADD MSTORE PUSH1 0x1F DUP1 NOT SWAP2 ADD AND ADD ADD SWAP1 JUMP JUMPDEST DUP1 PUSH1 0x20 DUP1 SWAP3 DUP5 ADD ADD MLOAD DUP3 DUP3 DUP7 ADD ADD MSTORE ADD PUSH2 0xA51 JUMP JUMPDEST SWAP6 SWAP5 SWAP4 SWAP1 PUSH1 0x80 SWAP4 PUSH2 0xAC4 SWAP4 PUSH2 0xAB6 SWAP3 DUP10 MSTORE PUSH1 0x1 DUP1 PUSH1 0xA0 SHL SUB AND PUSH1 0x20 DUP10 ADD MSTORE PUSH1 0xA0 PUSH1 0x40 DUP10 ADD MSTORE PUSH1 0xA0 DUP9 ADD SWAP1 PUSH2 0xA46 JUMP JUMPDEST SWAP1 DUP7 DUP3 SUB PUSH1 0x60 DUP9 ADD MSTORE PUSH2 0xA46 JUMP JUMPDEST SWAP4 ADD MSTORE JUMP JUMPDEST DUP2 PUSH1 0x1F DUP3 ADD SLT ISZERO PUSH2 0xF5 JUMPI DUP1 CALLDATALOAD SWAP1 PUSH8 0xFFFFFFFFFFFFFFFF DUP3 GT PUSH2 0x5AE JUMPI PUSH1 0x40 MLOAD SWAP3 PUSH2 0xAFE PUSH1 0x1F DUP5 ADD PUSH1 0x1F NOT AND PUSH1 0x20 ADD DUP6 PUSH2 0x980 JUMP JUMPDEST DUP3 DUP5 MSTORE PUSH1 0x20 DUP4 DUP4 ADD ADD GT PUSH2 0xF5 JUMPI DUP2 PUSH1 0x0 SWAP3 PUSH1 0x20 DUP1 SWAP4 ADD DUP4 DUP7 ADD CALLDATACOPY DUP4 ADD ADD MSTORE SWAP1 JUMP JUMPDEST PUSH1 0x0 DUP2 DUP2 MSTORE PUSH1 0x20 DUP2 DUP2 MSTORE PUSH1 0x40 DUP1 DUP4 KECCAK256 CALLER DUP5 MSTORE SWAP1 SWAP2 MSTORE SWAP1 KECCAK256 SLOAD PUSH1 0xFF AND ISZERO PUSH2 0xB43 JUMPI POP JUMP JUMPDEST PUSH4 0xE2517D3F PUSH1 0xE0 SHL PUSH1 0x0 MSTORE CALLER PUSH1 0x4 MSTORE PUSH1 0x24 MSTORE PUSH1 0x44 PUSH1 0x0 REVERT JUMPDEST PUSH1 0x1 PUSH1 0x1 PUSH1 0xA0 SHL SUB DUP2 AND PUSH1 0x0 SWAP1 DUP2 MSTORE PUSH32 0x6320DBDBF18953A1AF49A3FE4EA5804853716848E42ABBCA49898582E53BFC0 PUSH1 0x20 MSTORE PUSH1 0x40 SWAP1 KECCAK256 SLOAD PUSH1 0xFF AND PUSH2 0xC17 JUMPI PUSH1 0x1 PUSH1 0x1 PUSH1 0xA0 SHL SUB AND PUSH1 0x0 DUP2 DUP2 MSTORE PUSH32 0x6320DBDBF18953A1AF49A3FE4EA5804853716848E42ABBCA49898582E53BFC0 PUSH1 0x20 MSTORE PUSH1 0x40 DUP2 KECCAK256 DUP1 SLOAD PUSH1 0xFF NOT AND PUSH1 0x1 OR SWAP1 SSTORE CALLER SWAP2 SWAP1 PUSH1 0x0 DUP1 MLOAD PUSH1 0x20 PUSH2 0xD2B DUP4 CODECOPY DUP2 MLOAD SWAP2 MSTORE SWAP1 PUSH32 0x2F8788117E7EFF1D82E926EC794901D17C78024A50270940304540A733656F0D SWAP1 DUP1 LOG4 PUSH1 0x1 SWAP1 JUMP JUMPDEST POP PUSH1 0x0 SWAP1 JUMP JUMPDEST PUSH1 0x0 DUP2 DUP2 MSTORE PUSH1 0x20 DUP2 DUP2 MSTORE PUSH1 0x40 DUP1 DUP4 KECCAK256 PUSH1 0x1 PUSH1 0x1 PUSH1 0xA0 SHL SUB DUP7 AND DUP5 MSTORE SWAP1 SWAP2 MSTORE SWAP1 KECCAK256 SLOAD PUSH1 0xFF AND PUSH2 0xCA1 JUMPI PUSH1 0x0 DUP2 DUP2 MSTORE PUSH1 0x20 DUP2 DUP2 MSTORE PUSH1 0x40 DUP1 DUP4 KECCAK256 PUSH1 0x1 PUSH1 0x1 PUSH1 0xA0 SHL SUB SWAP6 SWAP1 SWAP6 AND DUP1 DUP5 MSTORE SWAP5 SWAP1 SWAP2 MSTORE DUP2 KECCAK256 DUP1 SLOAD PUSH1 0xFF NOT AND PUSH1 0x1 OR SWAP1 SSTORE CALLER SWAP3 SWAP2 SWAP1 PUSH32 0x2F8788117E7EFF1D82E926EC794901D17C78024A50270940304540A733656F0D SWAP1 DUP1 LOG4 PUSH1 0x1 SWAP1 JUMP JUMPDEST POP POP PUSH1 0x0 SWAP1 JUMP JUMPDEST PUSH1 0x0 DUP2 DUP2 MSTORE PUSH1 0x20 DUP2 DUP2 MSTORE PUSH1 0x40 DUP1 DUP4 KECCAK256 PUSH1 0x1 PUSH1 0x1 PUSH1 0xA0 SHL SUB DUP7 AND DUP5 MSTORE SWAP1 SWAP2 MSTORE SWAP1 KECCAK256 SLOAD PUSH1 0xFF AND ISZERO PUSH2 0xCA1 JUMPI PUSH1 0x0 DUP2 DUP2 MSTORE PUSH1 0x20 DUP2 DUP2 MSTORE PUSH1 0x40 DUP1 DUP4 KECCAK256 PUSH1 0x1 PUSH1 0x1 PUSH1 0xA0 SHL SUB SWAP6 SWAP1 SWAP6 AND DUP1 DUP5 MSTORE SWAP5 SWAP1 SWAP2 MSTORE DUP2 KECCAK256 DUP1 SLOAD PUSH1 0xFF NOT AND SWAP1 SSTORE CALLER SWAP3 SWAP2 SWAP1 PUSH32 0xF6391F5C32D9C69D2A47EA670B442974B53935D1EDC7FD64EB21E047A839171B SWAP1 DUP1 LOG4 PUSH1 0x1 SWAP1 JUMP INVALID DUP15 0xB4 PUSH8 0xF061CA67F42A2D2C LOG4 LOG3 CHAINID 0xFC SWAP16 0xB6 GASLIMIT 0xEF 0xC0 0xBA PUSH22 0x56EE9F71C3A0CCC10A8A26469706673582212208A24 EXTCODECOPY 0xC0 0xDE SWAP15 BASEFEE 0xA7 PUSH26 0x612EBDE59632D7E8A003F081BBD0FC1177DDA9B260945A64736F PUSH13 0x634300081C00332F8788117E7E SELFDESTRUCT SAR DUP3 0xE9 0x26 0xEC PUSH26 0x4901D17C78024A50270940304540A733656F0D06320DBDBF1895 GASPRICE BYTE DELEGATECALL SWAP11 EXTCODEHASH 0xE4 0xEA PC DIV DUP6 CALLDATACOPY AND DUP5 DUP15 TIMESTAMP 0xAB 0xBC LOG4 SWAP9 SWAP9 PC 0x2E MSTORE8 0xBF 0xC0 0xAD ORIGIN 0x28 0xB6 PUSH23 0xF7D3CD4284A5443F17F1962B36E491B30A40B2405849E5 SWAP8 0xBA PUSH0 0xB5 "},"methodIdentifiers":{"DEFAULT_ADMIN_ROLE()":"a217fddf","PRODUCER_ROLE()":"cb3e1fe7","getProduct(uint256)":"b9db15b4","getRoleAdmin(bytes32)":"248a9ca3","grantProducerRole(address)":"2d14145e","grantRole(bytes32,address)":"2f2ff15d","hasRole(bytes32,address)":"91d14854","productCounter()":"1f16653b","products(uint256)":"7acc0b20","registerProduct(string,string)":"8fbd0dcf","renounceRole(bytes32,address)":"36568abe","revokeRole(bytes32,address)":"d547741f","supportsInterface(bytes4)":"01ffc9a7"}}}}}