{"contracts/Bidding.sol":{"Bidding":{"abi":[{"inputs":[],"stateMutability":"nonpayable","type":"constructor"},{"inputs":[],"name":"AccessControlBadConfirmation","type":"error"},{"inputs":[{"internalType":"address","name":"account","type":"address"},{"internalType":"bytes32","name":"neededRole","type":"bytes32"}],"name":"AccessControlUnauthorizedAccount","type":"error"},{"anonymous":false,"inputs":[{"indexed":false,"internalType":"uint256","name":"contractId","type":"uint256"},{"indexed":false,"internalType":"address","name":"carrier","type":"address"},{"indexed":false,"internalType":"uint256","name":"amount","type":"uint256"}],"name":"BidPlaced","type":"event"},{"anonymous":false,"inputs":[{"indexed":false,"internalType":"uint256","name":"contractId","type":"uint256"},{"indexed":false,"internalType":"address","name":"awardedCarrier","type":"address"},{"indexed":false,"internalType":"uint256","name":"awardedAmount","type":"uint256"}],"name":"ContractAwarded","type":"event"},{"anonymous":false,"inputs":[{"indexed":true,"internalType":"bytes32","name":"role","type":"bytes32"},{"indexed":true,"internalType":"bytes32","name":"previousAdminRole","type":"bytes32"},{"indexed":true,"internalType":"bytes32","name":"newAdminRole","type":"bytes32"}],"name":"RoleAdminChanged","type":"event"},{"anonymous":false,"inputs":[{"indexed":true,"internalType":"bytes32","name":"role","type":"bytes32"},{"indexed":true,"internalType":"address","name":"account","type":"address"},{"indexed":true,"internalType":"address","name":"sender","type":"address"}],"name":"RoleGranted","type":"event"},{"anonymous":false,"inputs":[{"indexed":true,"internalType":"bytes32","name":"role","type":"bytes32"},{"indexed":true,"internalType":"address","name":"account","type":"address"},{"indexed":true,"internalType":"address","name":"sender","type":"address"}],"name":"RoleRevoked","type":"event"},{"anonymous":false,"inputs":[{"indexed":false,"internalType":"uint256","name":"contractId","type":"uint256"},{"indexed":false,"internalType":"address","name":"producer","type":"address"},{"indexed":false,"internalType":"string","name":"details","type":"string"},{"indexed":false,"internalType":"uint256","name":"startTime","type":"uint256"},{"indexed":false,"internalType":"uint256","name":"endTime","type":"uint256"}],"name":"TransportationContractCreated","type":"event"},{"inputs":[],"name":"CARRIER_ROLE","outputs":[{"internalType":"bytes32","name":"","type":"bytes32"}],"stateMutability":"view","type":"function"},{"inputs":[],"name":"DEFAULT_ADMIN_ROLE","outputs":[{"internalType":"bytes32","name":"","type":"bytes32"}],"stateMutability":"view","type":"function"},{"inputs":[],"name":"PRODUCER_ROLE","outputs":[{"internalType":"bytes32","name":"","type":"bytes32"}],"stateMutability":"view","type":"function"},{"inputs":[{"internalType":"uint256","name":"contractId","type":"uint256"}],"name":"awardContract","outputs":[],"stateMutability":"nonpayable","type":"function"},{"inputs":[],"name":"contractCounter","outputs":[{"internalType":"uint256","name":"","type":"uint256"}],"stateMutability":"view","type":"function"},{"inputs":[{"internalType":"uint256","name":"","type":"uint256"}],"name":"contracts","outputs":[{"internalType":"uint256","name":"contractId","type":"uint256"},{"internalType":"address","name":"producer","type":"address"},{"internalType":"string","name":"details","type":"string"},{"internalType":"uint256","name":"startTime","type":"uint256"},{"internalType":"uint256","name":"endTime","type":"uint256"},{"internalType":"bool","name":"awarded","type":"bool"},{"internalType":"address","name":"awardedCarrier","type":"address"},{"internalType":"uint256","name":"awardedAmount","type":"uint256"},{"internalType":"uint256","name":"bidsCount","type":"uint256"}],"stateMutability":"view","type":"function"},{"inputs":[{"internalType":"string","name":"details","type":"string"},{"internalType":"uint256","name":"endTime","type":"uint256"}],"name":"createTransportContract","outputs":[],"stateMutability":"nonpayable","type":"function"},{"inputs":[{"internalType":"uint256","name":"contractId","type":"uint256"},{"internalType":"uint256","name":"bidIndex","type":"uint256"}],"name":"getBid","outputs":[{"components":[{"internalType":"uint256","name":"contractId","type":"uint256"},{"internalType":"address","name":"carrier","type":"address"},{"internalType":"uint256","name":"amount","type":"uint256"},{"internalType":"uint256","name":"timestamp","type":"uint256"}],"internalType":"struct Bidding.Bid","name":"","type":"tuple"}],"stateMutability":"view","type":"function"},{"inputs":[{"internalType":"uint256","name":"contractId","type":"uint256"}],"name":"getBids","outputs":[{"components":[{"internalType":"uint256","name":"contractId","type":"uint256"},{"internalType":"address","name":"carrier","type":"address"},{"internalType":"uint256","name":"amount","type":"uint256"},{"internalType":"uint256","name":"timestamp","type":"uint256"}],"internalType":"struct Bidding.Bid[]","name":"","type":"tuple[]"}],"stateMutability":"view","type":"function"},{"inputs":[{"internalType":"bytes32","name":"role","type":"bytes32"}],"name":"getRoleAdmin","outputs":[{"internalType":"bytes32","name":"","type":"bytes32"}],"stateMutability":"view","type":"function"},{"inputs":[{"internalType":"bytes32","name":"role","type":"bytes32"},{"internalType":"address","name":"account","type":"address"}],"name":"grantRole","outputs":[],"stateMutability":"nonpayable","type":"function"},{"inputs":[{"internalType":"bytes32","name":"role","type":"bytes32"},{"internalType":"address","name":"account","type":"address"}],"name":"hasRole","outputs":[{"internalType":"bool","name":"","type":"bool"}],"stateMutability":"view","type":"function"},{"inputs":[{"internalType":"uint256","name":"contractId","type":"uint256"},{"internalType":"uint256","name":"amount","type":"uint256"}],"name":"placeBid","outputs":[],"stateMutability":"nonpayable","type":"function"},{"inputs":[{"internalType":"bytes32","name":"role","type":"bytes32"},{"internalType":"address","name":"callerConfirmation","type":"address"}],"name":"renounceRole","outputs":[],"stateMutability":"nonpayable","type":"function"},{"inputs":[{"internalType":"bytes32","name":"role","type":"bytes32"},{"internalType":"address","name":"account","type":"address"}],"name":"revokeRole","outputs":[],"stateMutability":"nonpayable","type":"function"},{"inputs":[{"internalType":"bytes4","name":"interfaceId","type":"bytes4"}],"name":"supportsInterface","outputs":[{"internalType":"bool","name":"","type":"bool"}],"stateMutability":"view","type":"function"}],"evm":{"bytecode":{"linkReferences":{},"object":"608060405234610036576100123361003b565b5061001c336100b7565b506100263361014f565b5060405161107590816101e88239f35b600080fd5b6001600160a01b03811660009081526000805160206112bd833981519152602052604090205460ff166100b1576001600160a01b031660008181526000805160206112bd83398151915260205260408120805460ff1916600117905533919060008051602061125d8339815191528180a4600190565b50600090565b6001600160a01b038116600090815260008051602061127d833981519152602052604090205460ff166100b1576001600160a01b0316600081815260008051602061127d83398151915260205260408120805460ff191660011790553391907f8eb467f061ca67f42a2d2ca4a346fc9fb645efc0ba75056ee9f71c3a0ccc10a89060008051602061125d8339815191529080a4600190565b6001600160a01b038116600090815260008051602061129d833981519152602052604090205460ff166100b1576001600160a01b0316600081815260008051602061129d83398151915260205260408120805460ff191660011790553391907feb998ffefd22a823ed46d63e27357a1eefa908b6ba6804ac328694f77956b4699060008051602061125d8339815191529080a460019056fe608080604052600436101561001357600080fd5b60003560e01c90816301ffc9a714610c6557508063067bd3b414610c47578063131d9a2714610aef57806319da7ca51461094257806319f5c0a014610665578063248a9ca3146106305780632f2ff15d146105fe57806336568abe146105c6578063474da79a1461047957806357c90de5146102c5578063582c7ffd146101df57806365a1be48146101a457806391d1485414610164578063a217fddf14610148578063cb3e1fe71461010d5763d547741f146100cf57600080fd5b34610108576101066100e036610cf6565b906101016100fc82600052600060205260016040600020015490565b610ef7565b610fbd565b005b600080fd5b346101085760003660031901126101085760206040517f8eb467f061ca67f42a2d2ca4a346fc9fb645efc0ba75056ee9f71c3a0ccc10a88152f35b3461010857600036600319011261010857602060405160008152f35b346101085761017236610cf6565b90600052600060205260406000209060018060a01b0316600052602052602060ff604060002054166040519015158152f35b346101085760003660031901126101085760206040517feb998ffefd22a823ed46d63e27357a1eefa908b6ba6804ac328694f77956b4698152f35b34610108576101ed36610d97565b906101f6610dc5565b5060005260016020526040600020600781015482101561028c57600891600052016020526080604060002060036040519161023083610cb8565b8054835260018060a01b036001820154166020840152600281015460408401520154606082015261028a6040518092606080918051845260018060a01b036020820151166020850152604081015160408501520151910152565bf35b60405162461bcd60e51b8152602060048201526011602482015270092dcecc2d8d2c840c4d2c840d2dcc8caf607b1b6044820152606490fd5b34610108576102d336610d97565b3360009081527f78a77cfe307ce8994419a2f35babe178ca6c2ed7d27e92a502e3530dbdf492f0602052604090205460ff16156104405781600052600160205260406000209160048301544210156103fb578261035860ff60057f0e54eff26401bf69b81b26f60bd85ef47f5d85275c1d268d84f68d6897431c479601541615610e14565b6007810190600382546040519261036e84610cb8565b858452602084013381526008604086019289845260608701944286526000520160205260406000209451855560018060a01b03905116600185019060018060a01b03166bffffffffffffffffffffffff60a01b825416179055516002840155519101556103db8154610e60565b90556040805191825233602083015281019190915280606081015b0390a1005b60405162461bcd60e51b815260206004820152601860248201527f42696464696e6720706572696f642068617320656e64656400000000000000006044820152606490fd5b63e2517d3f60e01b600052336004527feb998ffefd22a823ed46d63e27357a1eefa908b6ba6804ac328694f77956b46960245260446000fd5b346101085760203660031901126101085760043560005260016020526040600020805460018060a01b036001830154169160028101604051908160008254926104c184610d1c565b80845293600181169081156105a4575060011461055d575b506104e692500382610cd4565b60038201549160048101546005820154906105256007600685015494015494604051988998895260208901526101206040890152610120880190610d56565b6060870195909552608086015260ff8116151560a086015260081c6001600160a01b031660c085015260e08401526101008301520390f35b90506000929192526020600020906000915b8183106105885750509060206104e692820101876104d9565b602091935080600191548385880101520191019091839261056f565b9050602092506104e694915060ff191682840152151560051b820101876104d9565b34610108576105d436610cf6565b336001600160a01b038216036105ed5761010691610fbd565b63334bd91960e11b60005260046000fd5b346101085761010661060f36610cf6565b9061062b6100fc82600052600060205260016040600020015490565b610f32565b3461010857602036600319011261010857602061065d600435600052600060205260016040600020015490565b604051908152f35b346101085760403660031901126101085760043567ffffffffffffffff8111610108573660238201121561010857806004013567ffffffffffffffff81116108e757604051916106bf601f8301601f191660200184610cd4565b818352366024838301011161010857816000926024602093018386013783010152602435906106ec610e85565b428211156108fd576106ff600254610e60565b60028181556000828152600160208190526040909120928355820180546001600160a01b0319163317905582519193919084019067ffffffffffffffff81116108e75761074c8254610d1c565b601f811161089f575b506020601f82116001146108155794600092826007937f3afc7b58b17cec2dfc3c2d89f8bc1157152fbec26bb8eeef30fb355f2060c2ad98869161080a575b508160011b9186199060031b1c19161790555b426003820155600481018490556005810180546001600160a81b03191690556006810183905501556002546040805191825233602083015260a090820181905290928392916107f99190840190610d56565b9042606084015260808301520390a1005b905087015189610794565b601f1982169083600052806000209160005b8181106108875750837f3afc7b58b17cec2dfc3c2d89f8bc1157152fbec26bb8eeef30fb355f2060c2ad9893600096936007966001941061086f575b5050811b0190556107a7565b890151871960f88460031b161c191690558980610863565b9192602060018192868b015181550194019201610827565b826000526020600020601f830160051c810191602084106108dd575b601f0160051c01905b8181106108d15750610755565b600081556001016108c4565b90915081906108bb565b634e487b7160e01b600052604160045260246000fd5b60405162461bcd60e51b815260206004820152601e60248201527f456e642074696d65206d75737420626520696e207468652066757475726500006044820152606490fd5b346101085760203660031901126101085760043561095e610e85565b80600052600160205260406000209060048201544210610aaa57600582019081549261098d60ff851615610e14565b60078101546000936000199160088401865b828110610a5f575050506001600160a01b03851615610a2a576001600160a81b0319909516600885901b610100600160a81b031617600117909455600601839055604080519182526001600160a01b039092166020820152908101919091527f95cfe5dda435c017fba94f4be156f154f205ebac397f2374272a04d2ef1b89d69080606081016103f6565b60405162461bcd60e51b815260206004820152600d60248201526c4e6f2076616c6964206269647360981b6044820152606490fd5b80600052816020528460026040600020015410610a7f575b60010161099f565b600081815260208390526040902060028101546001909101546001600160a01b031698509450610a77565b60405162461bcd60e51b815260206004820152601860248201527f42696464696e672074696d65206973206e6f74206f76657200000000000000006044820152606490fd5b346101085760203660031901126101085760043560005260016020526040600020600781015490610b1f82610dad565b91610b2d6040519384610cd4565b808352601f19610b3c82610dad565b0160005b818110610c3057505090600860009101905b828110610bd0578360405180916020820160208352815180915260206040840192019060005b818110610b86575050500390f35b919350916020608082610bc26001948851606080918051845260018060a01b036020820151166020850152604081015160408501520151910152565b019401910191849392610b78565b80600191600052826020526040600020600360405191610bef83610cb8565b80548352848060a01b03858201541660208401526002810154604084015201546060820152610c1e8287610dea565b52610c298186610dea565b5001610b52565b602090610c3b610dc5565b82828801015201610b40565b34610108576000366003190112610108576020600254604051908152f35b34610108576020366003190112610108576004359063ffffffff60e01b821680920361010857602091637965db0b60e01b8114908115610ca7575b5015158152f35b6301ffc9a760e01b14905083610ca0565b6080810190811067ffffffffffffffff8211176108e757604052565b90601f8019910116810190811067ffffffffffffffff8211176108e757604052565b604090600319011261010857600435906024356001600160a01b03811681036101085790565b90600182811c92168015610d4c575b6020831014610d3657565b634e487b7160e01b600052602260045260246000fd5b91607f1691610d2b565b919082519283825260005b848110610d82575050826000602080949584010152601f8019910116010190565b80602080928401015182828601015201610d61565b6040906003190112610108576004359060243590565b67ffffffffffffffff81116108e75760051b60200190565b60405190610dd282610cb8565b60006060838281528260208201528260408201520152565b8051821015610dfe5760209160051b010190565b634e487b7160e01b600052603260045260246000fd5b15610e1b57565b60405162461bcd60e51b815260206004820152601860248201527f436f6e747261637420616c7265616479206177617264656400000000000000006044820152606490fd5b6000198114610e6f5760010190565b634e487b7160e01b600052601160045260246000fd5b3360009081527f06320dbdbf18953a1af49a3fe4ea5804853716848e42abbca49898582e53bfc0602052604090205460ff1615610ebe57565b63e2517d3f60e01b600052336004527f8eb467f061ca67f42a2d2ca4a346fc9fb645efc0ba75056ee9f71c3a0ccc10a860245260446000fd5b60008181526020818152604080832033845290915290205460ff1615610f1a5750565b63e2517d3f60e01b6000523360045260245260446000fd5b6000818152602081815260408083206001600160a01b038616845290915290205460ff16610fb6576000818152602081815260408083206001600160a01b0395909516808452949091528120805460ff19166001179055339291907f2f8788117e7eff1d82e926ec794901d17c78024a50270940304540a733656f0d9080a4600190565b5050600090565b6000818152602081815260408083206001600160a01b038616845290915290205460ff1615610fb6576000818152602081815260408083206001600160a01b0395909516808452949091528120805460ff19169055339291907ff6391f5c32d9c69d2a47ea670b442974b53935d1edc7fd64eb21e047a839171b9080a460019056fea2646970667358221220f63dc183c1486124a643ea575e64cd3e0ac52d1165a8c195f3c8c736e7a7342064736f6c634300081c00332f8788117e7eff1d82e926ec794901d17c78024a50270940304540a733656f0d06320dbdbf18953a1af49a3fe4ea5804853716848e42abbca49898582e53bfc078a77cfe307ce8994419a2f35babe178ca6c2ed7d27e92a502e3530dbdf492f0ad3228b676f7d3cd4284a5443f17f1962b36e491b30a40b2405849e597ba5fb5","opcodes":"PUSH1 0x80 PUSH1 0x40 MSTORE CALLVALUE PUSH2 0x36 JUMPI PUSH2 0x12 CALLER PUSH2 0x3B JUMP JUMPDEST POP PUSH2 0x1C CALLER PUSH2 0xB7 JUMP JUMPDEST POP PUSH2 0x26 CALLER PUSH2 0x14F JUMP JUMPDEST POP PUSH1 0x40 MLOAD PUSH2 0x1075 SWAP1 DUP2 PUSH2 0x1E8 DUP3 CODECOPY RETURN JUMPDEST PUSH1 0x0 DUP1 REVERT JUMPDEST PUSH1 0x1 PUSH1 0x1 PUSH1 0xA0 SHL SUB DUP2 AND PUSH1 0x0 SWAP1 DUP2 MSTORE PUSH1 0x0 DUP1 MLOAD PUSH1 0x20 PUSH2 0x12BD DUP4 CODECOPY DUP2 MLOAD SWAP2 MSTORE PUSH1 0x20 MSTORE PUSH1 0x40 SWAP1 KECCAK256 SLOAD PUSH1 0xFF AND PUSH2 0xB1 JUMPI PUSH1 0x1 PUSH1 0x1 PUSH1 0xA0 SHL SUB AND PUSH1 0x0 DUP2 DUP2 MSTORE PUSH1 0x0 DUP1 MLOAD PUSH1 0x20 PUSH2 0x12BD DUP4 CODECOPY DUP2 MLOAD SWAP2 MSTORE PUSH1 0x20 MSTORE PUSH1 0x40 DUP2 KECCAK256 DUP1 SLOAD PUSH1 0xFF NOT AND PUSH1 0x1 OR SWAP1 SSTORE CALLER SWAP2 SWAP1 PUSH1 0x0 DUP1 MLOAD PUSH1 0x20 PUSH2 0x125D DUP4 CODECOPY DUP2 MLOAD SWAP2 MSTORE DUP2 DUP1 LOG4 PUSH1 0x1 SWAP1 JUMP JUMPDEST POP PUSH1 0x0 SWAP1 JUMP JUMPDEST PUSH1 0x1 PUSH1 0x1 PUSH1 0xA0 SHL SUB DUP2 AND PUSH1 0x0 SWAP1 DUP2 MSTORE PUSH1 0x0 DUP1 MLOAD PUSH1 0x20 PUSH2 0x127D DUP4 CODECOPY DUP2 MLOAD SWAP2 MSTORE PUSH1 0x20 MSTORE PUSH1 0x40 SWAP1 KECCAK256 SLOAD PUSH1 0xFF AND PUSH2 0xB1 JUMPI PUSH1 0x1 PUSH1 0x1 PUSH1 0xA0 SHL SUB AND PUSH1 0x0 DUP2 DUP2 MSTORE PUSH1 0x0 DUP1 MLOAD PUSH1 0x20 PUSH2 0x127D DUP4 CODECOPY DUP2 MLOAD SWAP2 MSTORE PUSH1 0x20 MSTORE PUSH1 0x40 DUP2 KECCAK256 DUP1 SLOAD PUSH1 0xFF NOT AND PUSH1 0x1 OR SWAP1 SSTORE CALLER SWAP2 SWAP1 PUSH32 0x8EB467F061CA67F42A2D2CA4A346FC9FB645EFC0BA75056EE9F71C3A0CCC10A8 SWAP1 PUSH1 0x0 DUP1 MLOAD PUSH1 0x20 PUSH2 0x125D DUP4 CODECOPY DUP2 MLOAD SWAP2 MSTORE SWAP1 DUP1 LOG4 PUSH1 0x1 SWAP1 JUMP JUMPDEST PUSH1 0x1 PUSH1 0x1 PUSH1 0xA0 SHL SUB DUP2 AND PUSH1 0x0 SWAP1 DUP2 MSTORE PUSH1 0x0 DUP1 MLOAD PUSH1 0x20 PUSH2 0x129D DUP4 CODECOPY DUP2 MLOAD SWAP2 MSTORE PUSH1 0x20 MSTORE PUSH1 0x40 SWAP1 KECCAK256 SLOAD PUSH1 0xFF AND PUSH2 0xB1 JUMPI PUSH1 0x1 PUSH1 0x1 PUSH1 0xA0 SHL SUB AND PUSH1 0x0 DUP2 DUP2 MSTORE PUSH1 0x0 DUP1 MLOAD PUSH1 0x20 PUSH2 0x129D DUP4 CODECOPY DUP2 MLOAD SWAP2 MSTORE PUSH1 0x20 MSTORE PUSH1 0x40 DUP2 KECCAK256 DUP1 SLOAD PUSH1 0xFF NOT AND PUSH1 0x1 OR SWAP1 SSTORE CALLER SWAP2 SWAP1 PUSH32 0xEB998FFEFD22A823ED46D63E27357A1EEFA908B6BA6804AC328694F77956B469 SWAP1 PUSH1 0x0 DUP1 MLOAD PUSH1 0x20 PUSH2 0x125D DUP4 CODECOPY DUP2 MLOAD SWAP2 MSTORE SWAP1 DUP1 LOG4 PUSH1 0x1 SWAP1 JUMP INVALID PUSH1 0x80 DUP1 PUSH1 0x40 MSTORE PUSH1 0x4 CALLDATASIZE LT ISZERO PUSH2 0x13 JUMPI PUSH1 0x0 DUP1 REVERT JUMPDEST PUSH1 0x0 CALLDATALOAD PUSH1 0xE0 SHR SWAP1 DUP2 PUSH4 0x1FFC9A7 EQ PUSH2 0xC65 JUMPI POP DUP1 PUSH4 0x67BD3B4 EQ PUSH2 0xC47 JUMPI DUP1 PUSH4 0x131D9A27 EQ PUSH2 0xAEF JUMPI DUP1 PUSH4 0x19DA7CA5 EQ PUSH2 0x942 JUMPI DUP1 PUSH4 0x19F5C0A0 EQ PUSH2 0x665 JUMPI DUP1 PUSH4 0x248A9CA3 EQ PUSH2 0x630 JUMPI DUP1 PUSH4 0x2F2FF15D EQ PUSH2 0x5FE JUMPI DUP1 PUSH4 0x36568ABE EQ PUSH2 0x5C6 JUMPI DUP1 PUSH4 0x474DA79A EQ PUSH2 0x479 JUMPI DUP1 PUSH4 0x57C90DE5 EQ PUSH2 0x2C5 JUMPI DUP1 PUSH4 0x582C7FFD EQ PUSH2 0x1DF JUMPI DUP1 PUSH4 0x65A1BE48 EQ PUSH2 0x1A4 JUMPI DUP1 PUSH4 0x91D14854 EQ PUSH2 0x164 JUMPI DUP1 PUSH4 0xA217FDDF EQ PUSH2 0x148 JUMPI DUP1 PUSH4 0xCB3E1FE7 EQ PUSH2 0x10D JUMPI PUSH4 0xD547741F EQ PUSH2 0xCF JUMPI PUSH1 0x0 DUP1 REVERT JUMPDEST CALLVALUE PUSH2 0x108 JUMPI PUSH2 0x106 PUSH2 0xE0 CALLDATASIZE PUSH2 0xCF6 JUMP JUMPDEST SWAP1 PUSH2 0x101 PUSH2 0xFC DUP3 PUSH1 0x0 MSTORE PUSH1 0x0 PUSH1 0x20 MSTORE PUSH1 0x1 PUSH1 0x40 PUSH1 0x0 KECCAK256 ADD SLOAD SWAP1 JUMP JUMPDEST PUSH2 0xEF7 JUMP JUMPDEST PUSH2 0xFBD JUMP JUMPDEST STOP JUMPDEST PUSH1 0x0 DUP1 REVERT JUMPDEST CALLVALUE PUSH2 0x108 JUMPI PUSH1 0x0 CALLDATASIZE PUSH1 0x3 NOT ADD SLT PUSH2 0x108 JUMPI PUSH1 0x20 PUSH1 0x40 MLOAD PUSH32 0x8EB467F061CA67F42A2D2CA4A346FC9FB645EFC0BA75056EE9F71C3A0CCC10A8 DUP2 MSTORE RETURN JUMPDEST CALLVALUE PUSH2 0x108 JUMPI PUSH1 0x0 CALLDATASIZE PUSH1 0x3 NOT ADD SLT PUSH2 0x108 JUMPI PUSH1 0x20 PUSH1 0x40 MLOAD PUSH1 0x0 DUP2 MSTORE RETURN JUMPDEST CALLVALUE PUSH2 0x108 JUMPI PUSH2 0x172 CALLDATASIZE PUSH2 0xCF6 JUMP JUMPDEST SWAP1 PUSH1 0x0 MSTORE PUSH1 0x0 PUSH1 0x20 MSTORE PUSH1 0x40 PUSH1 0x0 KECCAK256 SWAP1 PUSH1 0x1 DUP1 PUSH1 0xA0 SHL SUB AND PUSH1 0x0 MSTORE PUSH1 0x20 MSTORE PUSH1 0x20 PUSH1 0xFF PUSH1 0x40 PUSH1 0x0 KECCAK256 SLOAD AND PUSH1 0x40 MLOAD SWAP1 ISZERO ISZERO DUP2 MSTORE RETURN JUMPDEST CALLVALUE PUSH2 0x108 JUMPI PUSH1 0x0 CALLDATASIZE PUSH1 0x3 NOT ADD SLT PUSH2 0x108 JUMPI PUSH1 0x20 PUSH1 0x40 MLOAD PUSH32 0xEB998FFEFD22A823ED46D63E27357A1EEFA908B6BA6804AC328694F77956B469 DUP2 MSTORE RETURN JUMPDEST CALLVALUE PUSH2 0x108 JUMPI PUSH2 0x1ED CALLDATASIZE PUSH2 0xD97 JUMP JUMPDEST SWAP1 PUSH2 0x1F6 PUSH2 0xDC5 JUMP JUMPDEST POP PUSH1 0x0 MSTORE PUSH1 0x1 PUSH1 0x20 MSTORE PUSH1 0x40 PUSH1 0x0 KECCAK256 PUSH1 0x7 DUP2 ADD SLOAD DUP3 LT ISZERO PUSH2 0x28C JUMPI PUSH1 0x8 SWAP2 PUSH1 0x0 MSTORE ADD PUSH1 0x20 MSTORE PUSH1 0x80 PUSH1 0x40 PUSH1 0x0 KECCAK256 PUSH1 0x3 PUSH1 0x40 MLOAD SWAP2 PUSH2 0x230 DUP4 PUSH2 0xCB8 JUMP JUMPDEST DUP1 SLOAD DUP4 MSTORE PUSH1 0x1 DUP1 PUSH1 0xA0 SHL SUB PUSH1 0x1 DUP3 ADD SLOAD AND PUSH1 0x20 DUP5 ADD MSTORE PUSH1 0x2 DUP2 ADD SLOAD PUSH1 0x40 DUP5 ADD MSTORE ADD SLOAD PUSH1 0x60 DUP3 ADD MSTORE PUSH2 0x28A PUSH1 0x40 MLOAD DUP1 SWAP3 PUSH1 0x60 DUP1 SWAP2 DUP1 MLOAD DUP5 MSTORE PUSH1 0x1 DUP1 PUSH1 0xA0 SHL SUB PUSH1 0x20 DUP3 ADD MLOAD AND PUSH1 0x20 DUP6 ADD MSTORE PUSH1 0x40 DUP2 ADD MLOAD PUSH1 0x40 DUP6 ADD MSTORE ADD MLOAD SWAP2 ADD MSTORE JUMP JUMPDEST RETURN JUMPDEST PUSH1 0x40 MLOAD PUSH3 0x461BCD PUSH1 0xE5 SHL DUP2 MSTORE PUSH1 0x20 PUSH1 0x4 DUP3 ADD MSTORE PUSH1 0x11 PUSH1 0x24 DUP3 ADD MSTORE PUSH17 0x92DCECC2D8D2C840C4D2C840D2DCC8CAF PUSH1 0x7B SHL PUSH1 0x44 DUP3 ADD MSTORE PUSH1 0x64 SWAP1 REVERT JUMPDEST CALLVALUE PUSH2 0x108 JUMPI PUSH2 0x2D3 CALLDATASIZE PUSH2 0xD97 JUMP JUMPDEST CALLER PUSH1 0x0 SWAP1 DUP2 MSTORE PUSH32 0x78A77CFE307CE8994419A2F35BABE178CA6C2ED7D27E92A502E3530DBDF492F0 PUSH1 0x20 MSTORE PUSH1 0x40 SWAP1 KECCAK256 SLOAD PUSH1 0xFF AND ISZERO PUSH2 0x440 JUMPI DUP2 PUSH1 0x0 MSTORE PUSH1 0x1 PUSH1 0x20 MSTORE PUSH1 0x40 PUSH1 0x0 KECCAK256 SWAP2 PUSH1 0x4 DUP4 ADD SLOAD TIMESTAMP LT ISZERO PUSH2 0x3FB JUMPI DUP3 PUSH2 0x358 PUSH1 0xFF PUSH1 0x5 PUSH32 0xE54EFF26401BF69B81B26F60BD85EF47F5D85275C1D268D84F68D6897431C47 SWAP7 ADD SLOAD AND ISZERO PUSH2 0xE14 JUMP JUMPDEST PUSH1 0x7 DUP2 ADD SWAP1 PUSH1 0x3 DUP3 SLOAD PUSH1 0x40 MLOAD SWAP3 PUSH2 0x36E DUP5 PUSH2 0xCB8 JUMP JUMPDEST DUP6 DUP5 MSTORE PUSH1 0x20 DUP5 ADD CALLER DUP2 MSTORE PUSH1 0x8 PUSH1 0x40 DUP7 ADD SWAP3 DUP10 DUP5 MSTORE PUSH1 0x60 DUP8 ADD SWAP5 TIMESTAMP DUP7 MSTORE PUSH1 0x0 MSTORE ADD PUSH1 0x20 MSTORE PUSH1 0x40 PUSH1 0x0 KECCAK256 SWAP5 MLOAD DUP6 SSTORE PUSH1 0x1 DUP1 PUSH1 0xA0 SHL SUB SWAP1 MLOAD AND PUSH1 0x1 DUP6 ADD SWAP1 PUSH1 0x1 DUP1 PUSH1 0xA0 SHL SUB AND PUSH12 0xFFFFFFFFFFFFFFFFFFFFFFFF PUSH1 0xA0 SHL DUP3 SLOAD AND OR SWAP1 SSTORE MLOAD PUSH1 0x2 DUP5 ADD SSTORE MLOAD SWAP2 ADD SSTORE PUSH2 0x3DB DUP2 SLOAD PUSH2 0xE60 JUMP JUMPDEST SWAP1 SSTORE PUSH1 0x40 DUP1 MLOAD SWAP2 DUP3 MSTORE CALLER PUSH1 0x20 DUP4 ADD MSTORE DUP2 ADD SWAP2 SWAP1 SWAP2 MSTORE DUP1 PUSH1 0x60 DUP2 ADD JUMPDEST SUB SWAP1 LOG1 STOP JUMPDEST PUSH1 0x40 MLOAD PUSH3 0x461BCD PUSH1 0xE5 SHL DUP2 MSTORE PUSH1 0x20 PUSH1 0x4 DUP3 ADD MSTORE PUSH1 0x18 PUSH1 0x24 DUP3 ADD MSTORE PUSH32 0x42696464696E6720706572696F642068617320656E6465640000000000000000 PUSH1 0x44 DUP3 ADD MSTORE PUSH1 0x64 SWAP1 REVERT JUMPDEST PUSH4 0xE2517D3F PUSH1 0xE0 SHL PUSH1 0x0 MSTORE CALLER PUSH1 0x4 MSTORE PUSH32 0xEB998FFEFD22A823ED46D63E27357A1EEFA908B6BA6804AC328694F77956B469 PUSH1 0x24 MSTORE PUSH1 0x44 PUSH1 0x0 REVERT JUMPDEST CALLVALUE PUSH2 0x108 JUMPI PUSH1 0x20 CALLDATASIZE PUSH1 0x3 NOT ADD SLT PUSH2 0x108 JUMPI PUSH1 0x4 CALLDATALOAD PUSH1 0x0 MSTORE PUSH1 0x1 PUSH1 0x20 MSTORE PUSH1 0x40 PUSH1 0x0 KECCAK256 DUP1 SLOAD PUSH1 0x1 DUP1 PUSH1 0xA0 SHL SUB PUSH1 0x1 DUP4 ADD SLOAD AND SWAP2 PUSH1 0x2 DUP2 ADD PUSH1 0x40 MLOAD SWAP1 DUP2 PUSH1 0x0 DUP3 SLOAD SWAP3 PUSH2 0x4C1 DUP5 PUSH2 0xD1C JUMP JUMPDEST DUP1 DUP5 MSTORE SWAP4 PUSH1 0x1 DUP2 AND SWAP1 DUP2 ISZERO PUSH2 0x5A4 JUMPI POP PUSH1 0x1 EQ PUSH2 0x55D JUMPI JUMPDEST POP PUSH2 0x4E6 SWAP3 POP SUB DUP3 PUSH2 0xCD4 JUMP JUMPDEST PUSH1 0x3 DUP3 ADD SLOAD SWAP2 PUSH1 0x4 DUP2 ADD SLOAD PUSH1 0x5 DUP3 ADD SLOAD SWAP1 PUSH2 0x525 PUSH1 0x7 PUSH1 0x6 DUP6 ADD SLOAD SWAP5 ADD SLOAD SWAP5 PUSH1 0x40 MLOAD SWAP9 DUP10 SWAP9 DUP10 MSTORE PUSH1 0x20 DUP10 ADD MSTORE PUSH2 0x120 PUSH1 0x40 DUP10 ADD MSTORE PUSH2 0x120 DUP9 ADD SWAP1 PUSH2 0xD56 JUMP JUMPDEST PUSH1 0x60 DUP8 ADD SWAP6 SWAP1 SWAP6 MSTORE PUSH1 0x80 DUP7 ADD MSTORE PUSH1 0xFF DUP2 AND ISZERO ISZERO PUSH1 0xA0 DUP7 ADD MSTORE PUSH1 0x8 SHR PUSH1 0x1 PUSH1 0x1 PUSH1 0xA0 SHL SUB AND PUSH1 0xC0 DUP6 ADD MSTORE PUSH1 0xE0 DUP5 ADD MSTORE PUSH2 0x100 DUP4 ADD MSTORE SUB SWAP1 RETURN JUMPDEST SWAP1 POP PUSH1 0x0 SWAP3 SWAP2 SWAP3 MSTORE PUSH1 0x20 PUSH1 0x0 KECCAK256 SWAP1 PUSH1 0x0 SWAP2 JUMPDEST DUP2 DUP4 LT PUSH2 0x588 JUMPI POP POP SWAP1 PUSH1 0x20 PUSH2 0x4E6 SWAP3 DUP3 ADD ADD DUP8 PUSH2 0x4D9 JUMP JUMPDEST PUSH1 0x20 SWAP2 SWAP4 POP DUP1 PUSH1 0x1 SWAP2 SLOAD DUP4 DUP6 DUP9 ADD ADD MSTORE ADD SWAP2 ADD SWAP1 SWAP2 DUP4 SWAP3 PUSH2 0x56F JUMP JUMPDEST SWAP1 POP PUSH1 0x20 SWAP3 POP PUSH2 0x4E6 SWAP5 SWAP2 POP PUSH1 0xFF NOT AND DUP3 DUP5 ADD MSTORE ISZERO ISZERO PUSH1 0x5 SHL DUP3 ADD ADD DUP8 PUSH2 0x4D9 JUMP JUMPDEST CALLVALUE PUSH2 0x108 JUMPI PUSH2 0x5D4 CALLDATASIZE PUSH2 0xCF6 JUMP JUMPDEST CALLER PUSH1 0x1 PUSH1 0x1 PUSH1 0xA0 SHL SUB DUP3 AND SUB PUSH2 0x5ED JUMPI PUSH2 0x106 SWAP2 PUSH2 0xFBD JUMP JUMPDEST PUSH4 0x334BD919 PUSH1 0xE1 SHL PUSH1 0x0 MSTORE PUSH1 0x4 PUSH1 0x0 REVERT JUMPDEST CALLVALUE PUSH2 0x108 JUMPI PUSH2 0x106 PUSH2 0x60F CALLDATASIZE PUSH2 0xCF6 JUMP JUMPDEST SWAP1 PUSH2 0x62B PUSH2 0xFC DUP3 PUSH1 0x0 MSTORE PUSH1 0x0 PUSH1 0x20 MSTORE PUSH1 0x1 PUSH1 0x40 PUSH1 0x0 KECCAK256 ADD SLOAD SWAP1 JUMP JUMPDEST PUSH2 0xF32 JUMP JUMPDEST CALLVALUE PUSH2 0x108 JUMPI PUSH1 0x20 CALLDATASIZE PUSH1 0x3 NOT ADD SLT PUSH2 0x108 JUMPI PUSH1 0x20 PUSH2 0x65D PUSH1 0x4 CALLDATALOAD PUSH1 0x0 MSTORE PUSH1 0x0 PUSH1 0x20 MSTORE PUSH1 0x1 PUSH1 0x40 PUSH1 0x0 KECCAK256 ADD SLOAD SWAP1 JUMP JUMPDEST PUSH1 0x40 MLOAD SWAP1 DUP2 MSTORE RETURN JUMPDEST CALLVALUE PUSH2 0x108 JUMPI PUSH1 0x40 CALLDATASIZE PUSH1 0x3 NOT ADD SLT PUSH2 0x108 JUMPI PUSH1 0x4 CALLDATALOAD PUSH8 0xFFFFFFFFFFFFFFFF DUP2 GT PUSH2 0x108 JUMPI CALLDATASIZE PUSH1 0x23 DUP3 ADD SLT ISZERO PUSH2 0x108 JUMPI DUP1 PUSH1 0x4 ADD CALLDATALOAD PUSH8 0xFFFFFFFFFFFFFFFF DUP2 GT PUSH2 0x8E7 JUMPI PUSH1 0x40 MLOAD SWAP2 PUSH2 0x6BF PUSH1 0x1F DUP4 ADD PUSH1 0x1F NOT AND PUSH1 0x20 ADD DUP5 PUSH2 0xCD4 JUMP JUMPDEST DUP2 DUP4 MSTORE CALLDATASIZE PUSH1 0x24 DUP4 DUP4 ADD ADD GT PUSH2 0x108 JUMPI DUP2 PUSH1 0x0 SWAP3 PUSH1 0x24 PUSH1 0x20 SWAP4 ADD DUP4 DUP7 ADD CALLDATACOPY DUP4 ADD ADD MSTORE PUSH1 0x24 CALLDATALOAD SWAP1 PUSH2 0x6EC PUSH2 0xE85 JUMP JUMPDEST TIMESTAMP DUP3 GT ISZERO PUSH2 0x8FD JUMPI PUSH2 0x6FF PUSH1 0x2 SLOAD PUSH2 0xE60 JUMP JUMPDEST PUSH1 0x2 DUP2 DUP2 SSTORE PUSH1 0x0 DUP3 DUP2 MSTORE PUSH1 0x1 PUSH1 0x20 DUP2 SWAP1 MSTORE PUSH1 0x40 SWAP1 SWAP2 KECCAK256 SWAP3 DUP4 SSTORE DUP3 ADD DUP1 SLOAD PUSH1 0x1 PUSH1 0x1 PUSH1 0xA0 SHL SUB NOT AND CALLER OR SWAP1 SSTORE DUP3 MLOAD SWAP2 SWAP4 SWAP2 SWAP1 DUP5 ADD SWAP1 PUSH8 0xFFFFFFFFFFFFFFFF DUP2 GT PUSH2 0x8E7 JUMPI PUSH2 0x74C DUP3 SLOAD PUSH2 0xD1C JUMP JUMPDEST PUSH1 0x1F DUP2 GT PUSH2 0x89F JUMPI JUMPDEST POP PUSH1 0x20 PUSH1 0x1F DUP3 GT PUSH1 0x1 EQ PUSH2 0x815 JUMPI SWAP5 PUSH1 0x0 SWAP3 DUP3 PUSH1 0x7 SWAP4 PUSH32 0x3AFC7B58B17CEC2DFC3C2D89F8BC1157152FBEC26BB8EEEF30FB355F2060C2AD SWAP9 DUP7 SWAP2 PUSH2 0x80A JUMPI JUMPDEST POP DUP2 PUSH1 0x1 SHL SWAP2 DUP7 NOT SWAP1 PUSH1 0x3 SHL SHR NOT AND OR SWAP1 SSTORE JUMPDEST TIMESTAMP PUSH1 0x3 DUP3 ADD SSTORE PUSH1 0x4 DUP2 ADD DUP5 SWAP1 SSTORE PUSH1 0x5 DUP2 ADD DUP1 SLOAD PUSH1 0x1 PUSH1 0x1 PUSH1 0xA8 SHL SUB NOT AND SWAP1 SSTORE PUSH1 0x6 DUP2 ADD DUP4 SWAP1 SSTORE ADD SSTORE PUSH1 0x2 SLOAD PUSH1 0x40 DUP1 MLOAD SWAP2 DUP3 MSTORE CALLER PUSH1 0x20 DUP4 ADD MSTORE PUSH1 0xA0 SWAP1 DUP3 ADD DUP2 SWAP1 MSTORE SWAP1 SWAP3 DUP4 SWAP3 SWAP2 PUSH2 0x7F9 SWAP2 SWAP1 DUP5 ADD SWAP1 PUSH2 0xD56 JUMP JUMPDEST SWAP1 TIMESTAMP PUSH1 0x60 DUP5 ADD MSTORE PUSH1 0x80 DUP4 ADD MSTORE SUB SWAP1 LOG1 STOP JUMPDEST SWAP1 POP DUP8 ADD MLOAD DUP10 PUSH2 0x794 JUMP JUMPDEST PUSH1 0x1F NOT DUP3 AND SWAP1 DUP4 PUSH1 0x0 MSTORE DUP1 PUSH1 0x0 KECCAK256 SWAP2 PUSH1 0x0 JUMPDEST DUP2 DUP2 LT PUSH2 0x887 JUMPI POP DUP4 PUSH32 0x3AFC7B58B17CEC2DFC3C2D89F8BC1157152FBEC26BB8EEEF30FB355F2060C2AD SWAP9 SWAP4 PUSH1 0x0 SWAP7 SWAP4 PUSH1 0x7 SWAP7 PUSH1 0x1 SWAP5 LT PUSH2 0x86F JUMPI JUMPDEST POP POP DUP2 SHL ADD SWAP1 SSTORE PUSH2 0x7A7 JUMP JUMPDEST DUP10 ADD MLOAD DUP8 NOT PUSH1 0xF8 DUP5 PUSH1 0x3 SHL AND SHR NOT AND SWAP1 SSTORE DUP10 DUP1 PUSH2 0x863 JUMP JUMPDEST SWAP2 SWAP3 PUSH1 0x20 PUSH1 0x1 DUP2 SWAP3 DUP7 DUP12 ADD MLOAD DUP2 SSTORE ADD SWAP5 ADD SWAP3 ADD PUSH2 0x827 JUMP JUMPDEST DUP3 PUSH1 0x0 MSTORE PUSH1 0x20 PUSH1 0x0 KECCAK256 PUSH1 0x1F DUP4 ADD PUSH1 0x5 SHR DUP2 ADD SWAP2 PUSH1 0x20 DUP5 LT PUSH2 0x8DD JUMPI JUMPDEST PUSH1 0x1F ADD PUSH1 0x5 SHR ADD SWAP1 JUMPDEST DUP2 DUP2 LT PUSH2 0x8D1 JUMPI POP PUSH2 0x755 JUMP JUMPDEST PUSH1 0x0 DUP2 SSTORE PUSH1 0x1 ADD PUSH2 0x8C4 JUMP JUMPDEST SWAP1 SWAP2 POP DUP2 SWAP1 PUSH2 0x8BB JUMP JUMPDEST PUSH4 0x4E487B71 PUSH1 0xE0 SHL PUSH1 0x0 MSTORE PUSH1 0x41 PUSH1 0x4 MSTORE PUSH1 0x24 PUSH1 0x0 REVERT JUMPDEST PUSH1 0x40 MLOAD PUSH3 0x461BCD PUSH1 0xE5 SHL DUP2 MSTORE PUSH1 0x20 PUSH1 0x4 DUP3 ADD MSTORE PUSH1 0x1E PUSH1 0x24 DUP3 ADD MSTORE PUSH32 0x456E642074696D65206D75737420626520696E20746865206675747572650000 PUSH1 0x44 DUP3 ADD MSTORE PUSH1 0x64 SWAP1 REVERT JUMPDEST CALLVALUE PUSH2 0x108 JUMPI PUSH1 0x20 CALLDATASIZE PUSH1 0x3 NOT ADD SLT PUSH2 0x108 JUMPI PUSH1 0x4 CALLDATALOAD PUSH2 0x95E PUSH2 0xE85 JUMP JUMPDEST DUP1 PUSH1 0x0 MSTORE PUSH1 0x1 PUSH1 0x20 MSTORE PUSH1 0x40 PUSH1 0x0 KECCAK256 SWAP1 PUSH1 0x4 DUP3 ADD SLOAD TIMESTAMP LT PUSH2 0xAAA JUMPI PUSH1 0x5 DUP3 ADD SWAP1 DUP2 SLOAD SWAP3 PUSH2 0x98D PUSH1 0xFF DUP6 AND ISZERO PUSH2 0xE14 JUMP JUMPDEST PUSH1 0x7 DUP2 ADD SLOAD PUSH1 0x0 SWAP4 PUSH1 0x0 NOT SWAP2 PUSH1 0x8 DUP5 ADD DUP7 JUMPDEST DUP3 DUP2 LT PUSH2 0xA5F JUMPI POP POP POP PUSH1 0x1 PUSH1 0x1 PUSH1 0xA0 SHL SUB DUP6 AND ISZERO PUSH2 0xA2A JUMPI PUSH1 0x1 PUSH1 0x1 PUSH1 0xA8 SHL SUB NOT SWAP1 SWAP6 AND PUSH1 0x8 DUP6 SWAP1 SHL PUSH2 0x100 PUSH1 0x1 PUSH1 0xA8 SHL SUB AND OR PUSH1 0x1 OR SWAP1 SWAP5 SSTORE PUSH1 0x6 ADD DUP4 SWAP1 SSTORE PUSH1 0x40 DUP1 MLOAD SWAP2 DUP3 MSTORE PUSH1 0x1 PUSH1 0x1 PUSH1 0xA0 SHL SUB SWAP1 SWAP3 AND PUSH1 0x20 DUP3 ADD MSTORE SWAP1 DUP2 ADD SWAP2 SWAP1 SWAP2 MSTORE PUSH32 0x95CFE5DDA435C017FBA94F4BE156F154F205EBAC397F2374272A04D2EF1B89D6 SWAP1 DUP1 PUSH1 0x60 DUP2 ADD PUSH2 0x3F6 JUMP JUMPDEST PUSH1 0x40 MLOAD PUSH3 0x461BCD PUSH1 0xE5 SHL DUP2 MSTORE PUSH1 0x20 PUSH1 0x4 DUP3 ADD MSTORE PUSH1 0xD PUSH1 0x24 DUP3 ADD MSTORE PUSH13 0x4E6F2076616C69642062696473 PUSH1 0x98 SHL PUSH1 0x44 DUP3 ADD MSTORE PUSH1 0x64 SWAP1 REVERT JUMPDEST DUP1 PUSH1 0x0 MSTORE DUP2 PUSH1 0x20 MSTORE DUP5 PUSH1 0x2 PUSH1 0x40 PUSH1 0x0 KECCAK256 ADD SLOAD LT PUSH2 0xA7F JUMPI JUMPDEST PUSH1 0x1 ADD PUSH2 0x99F JUMP JUMPDEST PUSH1 0x0 DUP2 DUP2 MSTORE PUSH1 0x20 DUP4 SWAP1 MSTORE PUSH1 0x40 SWAP1 KECCAK256 PUSH1 0x2 DUP2 ADD SLOAD PUSH1 0x1 SWAP1 SWAP2 ADD SLOAD PUSH1 0x1 PUSH1 0x1 PUSH1 0xA0 SHL SUB AND SWAP9 POP SWAP5 POP PUSH2 0xA77 JUMP JUMPDEST PUSH1 0x40 MLOAD PUSH3 0x461BCD PUSH1 0xE5 SHL DUP2 MSTORE PUSH1 0x20 PUSH1 0x4 DUP3 ADD MSTORE PUSH1 0x18 PUSH1 0x24 DUP3 ADD MSTORE PUSH32 0x42696464696E672074696D65206973206E6F74206F7665720000000000000000 PUSH1 0x44 DUP3 ADD MSTORE PUSH1 0x64 SWAP1 REVERT JUMPDEST CALLVALUE PUSH2 0x108 JUMPI PUSH1 0x20 CALLDATASIZE PUSH1 0x3 NOT ADD SLT PUSH2 0x108 JUMPI PUSH1 0x4 CALLDATALOAD PUSH1 0x0 MSTORE PUSH1 0x1 PUSH1 0x20 MSTORE PUSH1 0x40 PUSH1 0x0 KECCAK256 PUSH1 0x7 DUP2 ADD SLOAD SWAP1 PUSH2 0xB1F DUP3 PUSH2 0xDAD JUMP JUMPDEST SWAP2 PUSH2 0xB2D PUSH1 0x40 MLOAD SWAP4 DUP5 PUSH2 0xCD4 JUMP JUMPDEST DUP1 DUP4 MSTORE PUSH1 0x1F NOT PUSH2 0xB3C DUP3 PUSH2 0xDAD JUMP JUMPDEST ADD PUSH1 0x0 JUMPDEST DUP2 DUP2 LT PUSH2 0xC30 JUMPI POP POP SWAP1 PUSH1 0x8 PUSH1 0x0 SWAP2 ADD SWAP1 JUMPDEST DUP3 DUP2 LT PUSH2 0xBD0 JUMPI DUP4 PUSH1 0x40 MLOAD DUP1 SWAP2 PUSH1 0x20 DUP3 ADD PUSH1 0x20 DUP4 MSTORE DUP2 MLOAD DUP1 SWAP2 MSTORE PUSH1 0x20 PUSH1 0x40 DUP5 ADD SWAP3 ADD SWAP1 PUSH1 0x0 JUMPDEST DUP2 DUP2 LT PUSH2 0xB86 JUMPI POP POP POP SUB SWAP1 RETURN JUMPDEST SWAP2 SWAP4 POP SWAP2 PUSH1 0x20 PUSH1 0x80 DUP3 PUSH2 0xBC2 PUSH1 0x1 SWAP5 DUP9 MLOAD PUSH1 0x60 DUP1 SWAP2 DUP1 MLOAD DUP5 MSTORE PUSH1 0x1 DUP1 PUSH1 0xA0 SHL SUB PUSH1 0x20 DUP3 ADD MLOAD AND PUSH1 0x20 DUP6 ADD MSTORE PUSH1 0x40 DUP2 ADD MLOAD PUSH1 0x40 DUP6 ADD MSTORE ADD MLOAD SWAP2 ADD MSTORE JUMP JUMPDEST ADD SWAP5 ADD SWAP2 ADD SWAP2 DUP5 SWAP4 SWAP3 PUSH2 0xB78 JUMP JUMPDEST DUP1 PUSH1 0x1 SWAP2 PUSH1 0x0 MSTORE DUP3 PUSH1 0x20 MSTORE PUSH1 0x40 PUSH1 0x0 KECCAK256 PUSH1 0x3 PUSH1 0x40 MLOAD SWAP2 PUSH2 0xBEF DUP4 PUSH2 0xCB8 JUMP JUMPDEST DUP1 SLOAD DUP4 MSTORE DUP5 DUP1 PUSH1 0xA0 SHL SUB DUP6 DUP3 ADD SLOAD AND PUSH1 0x20 DUP5 ADD MSTORE PUSH1 0x2 DUP2 ADD SLOAD PUSH1 0x40 DUP5 ADD MSTORE ADD SLOAD PUSH1 0x60 DUP3 ADD MSTORE PUSH2 0xC1E DUP3 DUP8 PUSH2 0xDEA JUMP JUMPDEST MSTORE PUSH2 0xC29 DUP2 DUP7 PUSH2 0xDEA JUMP JUMPDEST POP ADD PUSH2 0xB52 JUMP JUMPDEST PUSH1 0x20 SWAP1 PUSH2 0xC3B PUSH2 0xDC5 JUMP JUMPDEST DUP3 DUP3 DUP9 ADD ADD MSTORE ADD PUSH2 0xB40 JUMP JUMPDEST CALLVALUE PUSH2 0x108 JUMPI PUSH1 0x0 CALLDATASIZE PUSH1 0x3 NOT ADD SLT PUSH2 0x108 JUMPI PUSH1 0x20 PUSH1 0x2 SLOAD PUSH1 0x40 MLOAD SWAP1 DUP2 MSTORE RETURN JUMPDEST CALLVALUE PUSH2 0x108 JUMPI PUSH1 0x20 CALLDATASIZE PUSH1 0x3 NOT ADD SLT PUSH2 0x108 JUMPI PUSH1 0x4 CALLDATALOAD SWAP1 PUSH4 0xFFFFFFFF PUSH1 0xE0 SHL DUP3 AND DUP1 SWAP3 SUB PUSH2 0x108 JUMPI PUSH1 0x20 SWAP2 PUSH4 0x7965DB0B PUSH1 0xE0 SHL DUP2 EQ SWAP1 DUP2 ISZERO PUSH2 0xCA7 JUMPI JUMPDEST POP ISZERO ISZERO DUP2 MSTORE RETURN JUMPDEST PUSH4 0x1FFC9A7 PUSH1 0xE0 SHL EQ SWAP1 POP DUP4 PUSH2 0xCA0 JUMP JUMPDEST PUSH1 0x80 DUP2 ADD SWAP1 DUP2 LT PUSH8 0xFFFFFFFFFFFFFFFF DUP3 GT OR PUSH2 0x8E7 JUMPI PUSH1 0x40 MSTORE JUMP JUMPDEST SWAP1 PUSH1 0x1F DUP1 NOT SWAP2 ADD AND DUP2 ADD SWAP1 DUP2 LT PUSH8 0xFFFFFFFFFFFFFFFF DUP3 GT OR PUSH2 0x8E7 JUMPI PUSH1 0x40 MSTORE JUMP JUMPDEST PUSH1 0x40 SWAP1 PUSH1 0x3 NOT ADD SLT PUSH2 0x108 JUMPI PUSH1 0x4 CALLDATALOAD SWAP1 PUSH1 0x24 CALLDATALOAD PUSH1 0x1 PUSH1 0x1 PUSH1 0xA0 SHL SUB DUP2 AND DUP2 SUB PUSH2 0x108 JUMPI SWAP1 JUMP JUMPDEST SWAP1 PUSH1 0x1 DUP3 DUP2 SHR SWAP3 AND DUP1 ISZERO PUSH2 0xD4C JUMPI JUMPDEST PUSH1 0x20 DUP4 LT EQ PUSH2 0xD36 JUMPI JUMP JUMPDEST PUSH4 0x4E487B71 PUSH1 0xE0 SHL PUSH1 0x0 MSTORE PUSH1 0x22 PUSH1 0x4 MSTORE PUSH1 0x24 PUSH1 0x0 REVERT JUMPDEST SWAP2 PUSH1 0x7F AND SWAP2 PUSH2 0xD2B JUMP JUMPDEST SWAP2 SWAP1 DUP3 MLOAD SWAP3 DUP4 DUP3 MSTORE PUSH1 0x0 JUMPDEST DUP5 DUP2 LT PUSH2 0xD82 JUMPI POP POP DUP3 PUSH1 0x0 PUSH1 0x20 DUP1 SWAP5 SWAP6 DUP5 ADD ADD MSTORE PUSH1 0x1F DUP1 NOT SWAP2 ADD AND ADD ADD SWAP1 JUMP JUMPDEST DUP1 PUSH1 0x20 DUP1 SWAP3 DUP5 ADD ADD MLOAD DUP3 DUP3 DUP7 ADD ADD MSTORE ADD PUSH2 0xD61 JUMP JUMPDEST PUSH1 0x40 SWAP1 PUSH1 0x3 NOT ADD SLT PUSH2 0x108 JUMPI PUSH1 0x4 CALLDATALOAD SWAP1 PUSH1 0x24 CALLDATALOAD SWAP1 JUMP JUMPDEST PUSH8 0xFFFFFFFFFFFFFFFF DUP2 GT PUSH2 0x8E7 JUMPI PUSH1 0x5 SHL PUSH1 0x20 ADD SWAP1 JUMP JUMPDEST PUSH1 0x40 MLOAD SWAP1 PUSH2 0xDD2 DUP3 PUSH2 0xCB8 JUMP JUMPDEST PUSH1 0x0 PUSH1 0x60 DUP4 DUP3 DUP2 MSTORE DUP3 PUSH1 0x20 DUP3 ADD MSTORE DUP3 PUSH1 0x40 DUP3 ADD MSTORE ADD MSTORE JUMP JUMPDEST DUP1 MLOAD DUP3 LT ISZERO PUSH2 0xDFE JUMPI PUSH1 0x20 SWAP2 PUSH1 0x5 SHL ADD ADD SWAP1 JUMP JUMPDEST PUSH4 0x4E487B71 PUSH1 0xE0 SHL PUSH1 0x0 MSTORE PUSH1 0x32 PUSH1 0x4 MSTORE PUSH1 0x24 PUSH1 0x0 REVERT JUMPDEST ISZERO PUSH2 0xE1B JUMPI JUMP JUMPDEST PUSH1 0x40 MLOAD PUSH3 0x461BCD PUSH1 0xE5 SHL DUP2 MSTORE PUSH1 0x20 PUSH1 0x4 DUP3 ADD MSTORE PUSH1 0x18 PUSH1 0x24 DUP3 ADD MSTORE PUSH32 0x436F6E747261637420616C726561647920617761726465640000000000000000 PUSH1 0x44 DUP3 ADD MSTORE PUSH1 0x64 SWAP1 REVERT JUMPDEST PUSH1 0x0 NOT DUP2 EQ PUSH2 0xE6F JUMPI PUSH1 0x1 ADD SWAP1 JUMP JUMPDEST PUSH4 0x4E487B71 PUSH1 0xE0 SHL PUSH1 0x0 MSTORE PUSH1 0x11 PUSH1 0x4 MSTORE PUSH1 0x24 PUSH1 0x0 REVERT JUMPDEST CALLER PUSH1 0x0 SWAP1 DUP2 MSTORE PUSH32 0x6320DBDBF18953A1AF49A3FE4EA5804853716848E42ABBCA49898582E53BFC0 PUSH1 0x20 MSTORE PUSH1 0x40 SWAP1 KECCAK256 SLOAD PUSH1 0xFF AND ISZERO PUSH2 0xEBE JUMPI JUMP JUMPDEST PUSH4 0xE2517D3F PUSH1 0xE0 SHL PUSH1 0x0 MSTORE CALLER PUSH1 0x4 MSTORE PUSH32 0x8EB467F061CA67F42A2D2CA4A346FC9FB645EFC0BA75056EE9F71C3A0CCC10A8 PUSH1 0x24 MSTORE PUSH1 0x44 PUSH1 0x0 REVERT JUMPDEST PUSH1 0x0 DUP2 DUP2 MSTORE PUSH1 0x20 DUP2 DUP2 MSTORE PUSH1 0x40 DUP1 DUP4 KECCAK256 CALLER DUP5 MSTORE SWAP1 SWAP2 MSTORE SWAP1 KECCAK256 SLOAD PUSH1 0xFF AND ISZERO PUSH2 0xF1A JUMPI POP JUMP JUMPDEST PUSH4 0xE2517D3F PUSH1 0xE0 SHL PUSH1 0x0 MSTORE CALLER PUSH1 0x4 MSTORE PUSH1 0x24 MSTORE PUSH1 0x44 PUSH1 0x0 REVERT JUMPDEST PUSH1 0x0 DUP2 DUP2 MSTORE PUSH1 0x20 DUP2 DUP2 MSTORE PUSH1 0x40 DUP1 DUP4 KECCAK256 PUSH1 0x1 PUSH1 0x1 PUSH1 0xA0 SHL SUB DUP7 AND DUP5 MSTORE SWAP1 SWAP2 MSTORE SWAP1 KECCAK256 SLOAD PUSH1 0xFF AND PUSH2 0xFB6 JUMPI PUSH1 0x0 DUP2 DUP2 MSTORE PUSH1 0x20 DUP2 DUP2 MSTORE PUSH1 0x40 DUP1 DUP4 KECCAK256 PUSH1 0x1 PUSH1 0x1 PUSH1 0xA0 SHL SUB SWAP6 SWAP1 SWAP6 AND DUP1 DUP5 MSTORE SWAP5 SWAP1 SWAP2 MSTORE DUP2 KECCAK256 DUP1 SLOAD PUSH1 0xFF NOT AND PUSH1 0x1 OR SWAP1 SSTORE CALLER SWAP3 SWAP2 SWAP1 PUSH32 0x2F8788117E7EFF1D82E926EC794901D17C78024A50270940304540A733656F0D SWAP1 DUP1 LOG4 PUSH1 0x1 SWAP1 JUMP JUMPDEST POP POP PUSH1 0x0 SWAP1 JUMP JUMPDEST PUSH1 0x0 DUP2 DUP2 MSTORE PUSH1 0x20 DUP2 DUP2 MSTORE PUSH1 0x40 DUP1 DUP4 KECCAK256 PUSH1 0x1 PUSH1 0x1 PUSH1 0xA0 SHL SUB DUP7 AND DUP5 MSTORE SWAP1 SWAP2 MSTORE SWAP1 KECCAK256 SLOAD PUSH1 0xFF AND ISZERO PUSH2 0xFB6 JUMPI PUSH1 0x0 DUP2 DUP2 MSTORE PUSH1 0x20 DUP2 DUP2 MSTORE PUSH1 0x40 DUP1 DUP4 KECCAK256 PUSH1 0x1 PUSH1 0x1 PUSH1 0xA0 SHL SUB SWAP6 SWAP1 SWAP6 AND DUP1 DUP5 MSTORE SWAP5 SWAP1 SWAP2 MSTORE DUP2 KECCAK256 DUP1 SLOAD PUSH1 0xFF NOT AND SWAP1 SSTORE CALLER SWAP3 SWAP2 SWAP1 PUSH32 0xF6391F5C32D9C69D2A47EA670B442974B53935D1EDC7FD64EB21E047A839171B SWAP1 DUP1 LOG4 PUSH1 0x1 SWAP1 JUMP INVALID LOG2 PUSH5 0x6970667358 0x22 SLT KECCAK256 0xF6 RETURNDATASIZE 0xC1 DUP4 0xC1 BASEFEE PUSH2 0x24A6 NUMBER 0xEA JUMPI MCOPY PUSH5 0xCD3E0AC52D GT PUSH6 0xA8C195F3C8C7 CALLDATASIZE 0xE7 0xA7 CALLVALUE KECCAK256 PUSH5 0x736F6C6343 STOP ADDMOD SHR STOP CALLER 0x2F DUP8 DUP9 GT PUSH31 0x7EFF1D82E926EC794901D17C78024A50270940304540A733656F0D06320DBD 0xBF XOR SWAP6 GASPRICE BYTE DELEGATECALL SWAP11 EXTCODEHASH 0xE4 0xEA PC DIV DUP6 CALLDATACOPY AND DUP5 DUP15 TIMESTAMP 0xAB 0xBC LOG4 SWAP9 SWAP9 PC 0x2E MSTORE8 0xBF 0xC0 PUSH25 0xA77CFE307CE8994419A2F35BABE178CA6C2ED7D27E92A502E3 MSTORE8 0xD 0xBD DELEGATECALL SWAP3 CREATE 0xAD ORIGIN 0x28 0xB6 PUSH23 0xF7D3CD4284A5443F17F1962B36E491B30A40B2405849E5 SWAP8 0xBA PUSH0 0xB5 "},"methodIdentifiers":{"CARRIER_ROLE()":"65a1be48","DEFAULT_ADMIN_ROLE()":"a217fddf","PRODUCER_ROLE()":"cb3e1fe7","awardContract(uint256)":"19da7ca5","contractCounter()":"067bd3b4","contracts(uint256)":"474da79a","createTransportContract(string,uint256)":"19f5c0a0","getBid(uint256,uint256)":"582c7ffd","getBids(uint256)":"131d9a27","getRoleAdmin(bytes32)":"248a9ca3","grantRole(bytes32,address)":"2f2ff15d","hasRole(bytes32,address)":"91d14854","placeBid(uint256,uint256)":"57c90de5","renounceRole(bytes32,address)":"36568abe","revokeRole(bytes32,address)":"d547741f","supportsInterface(bytes4)":"01ffc9a7"}}}}}