{
  "_format": "hh-sol-artifact-1",
  "contractName": "Bidding",
  "sourceName": "contracts/Bidding.sol",
  "abi": [
    {
      "inputs": [],
      "stateMutability": "nonpayable",
      "type": "constructor"
    },
    {
      "inputs": [],
      "name": "AccessControlBadConfirmation",
      "type": "error"
    },
    {
      "inputs": [
        {
          "internalType": "address",
          "name": "account",
          "type": "address"
        },
        {
          "internalType": "bytes32",
          "name": "neededRole",
          "type": "bytes32"
        }
      ],
      "name": "AccessControlUnauthorizedAccount",
      "type": "error"
    },
    {
      "anonymous": false,
      "inputs": [
        {
          "indexed": true,
          "internalType": "uint256",
          "name": "contractId",
          "type": "uint256"
        },
        {
          "indexed": true,
          "internalType": "address",
          "name": "carrier",
          "type": "address"
        }
      ],
      "name": "BidCancelled",
      "type": "event"
    },
    {
      "anonymous": false,
      "inputs": [
        {
          "indexed": true,
          "internalType": "uint256",
          "name": "contractId",
          "type": "uint256"
        },
        {
          "indexed": true,
          "internalType": "address",
          "name": "carrier",
          "type": "address"
        },
        {
          "indexed": false,
          "internalType": "uint256",
          "name": "amount",
          "type": "uint256"
        },
        {
          "indexed": false,
          "internalType": "string",
          "name": "estimatedDeliveryTime",
          "type": "string"
        }
      ],
      "name": "BidPlaced",
      "type": "event"
    },
    {
      "anonymous": false,
      "inputs": [
        {
          "indexed": true,
          "internalType": "uint256",
          "name": "contractId",
          "type": "uint256"
        },
        {
          "indexed": true,
          "internalType": "address",
          "name": "carrier",
          "type": "address"
        },
        {
          "indexed": false,
          "internalType": "uint256",
          "name": "newAmount",
          "type": "uint256"
        },
        {
          "indexed": false,
          "internalType": "string",
          "name": "estimatedDeliveryTime",
          "type": "string"
        }
      ],
      "name": "BidUpdated",
      "type": "event"
    },
    {
      "anonymous": false,
      "inputs": [
        {
          "indexed": true,
          "internalType": "uint256",
          "name": "contractId",
          "type": "uint256"
        },
        {
          "indexed": true,
          "internalType": "address",
          "name": "awardedCarrier",
          "type": "address"
        },
        {
          "indexed": false,
          "internalType": "uint256",
          "name": "awardedAmount",
          "type": "uint256"
        }
      ],
      "name": "ContractAwarded",
      "type": "event"
    },
    {
      "anonymous": false,
      "inputs": [
        {
          "indexed": true,
          "internalType": "uint256",
          "name": "contractId",
          "type": "uint256"
        },
        {
          "indexed": false,
          "internalType": "enum Bidding.ContractStatus",
          "name": "status",
          "type": "uint8"
        }
      ],
      "name": "ContractStatusChanged",
      "type": "event"
    },
    {
      "anonymous": false,
      "inputs": [
        {
          "indexed": true,
          "internalType": "bytes32",
          "name": "role",
          "type": "bytes32"
        },
        {
          "indexed": true,
          "internalType": "bytes32",
          "name": "previousAdminRole",
          "type": "bytes32"
        },
        {
          "indexed": true,
          "internalType": "bytes32",
          "name": "newAdminRole",
          "type": "bytes32"
        }
      ],
      "name": "RoleAdminChanged",
      "type": "event"
    },
    {
      "anonymous": false,
      "inputs": [
        {
          "indexed": true,
          "internalType": "bytes32",
          "name": "role",
          "type": "bytes32"
        },
        {
          "indexed": true,
          "internalType": "address",
          "name": "account",
          "type": "address"
        },
        {
          "indexed": true,
          "internalType": "address",
          "name": "sender",
          "type": "address"
        }
      ],
      "name": "RoleGranted",
      "type": "event"
    },
    {
      "anonymous": false,
      "inputs": [
        {
          "indexed": true,
          "internalType": "bytes32",
          "name": "role",
          "type": "bytes32"
        },
        {
          "indexed": true,
          "internalType": "address",
          "name": "account",
          "type": "address"
        },
        {
          "indexed": true,
          "internalType": "address",
          "name": "sender",
          "type": "address"
        }
      ],
      "name": "RoleRevoked",
      "type": "event"
    },
    {
      "anonymous": false,
      "inputs": [
        {
          "indexed": true,
          "internalType": "uint256",
          "name": "contractId",
          "type": "uint256"
        },
        {
          "indexed": true,
          "internalType": "address",
          "name": "producer",
          "type": "address"
        },
        {
          "indexed": false,
          "internalType": "string",
          "name": "details",
          "type": "string"
        },
        {
          "indexed": false,
          "internalType": "string",
          "name": "pickupLocation",
          "type": "string"
        },
        {
          "indexed": false,
          "internalType": "string",
          "name": "deliveryLocation",
          "type": "string"
        },
        {
          "indexed": false,
          "internalType": "uint256",
          "name": "weight",
          "type": "uint256"
        },
        {
          "indexed": false,
          "internalType": "uint256",
          "name": "startTime",
          "type": "uint256"
        },
        {
          "indexed": false,
          "internalType": "uint256",
          "name": "endTime",
          "type": "uint256"
        }
      ],
      "name": "TransportationContractCreated",
      "type": "event"
    },
    {
      "inputs": [],
      "name": "CARRIER_ROLE",
      "outputs": [
        {
          "internalType": "bytes32",
          "name": "",
          "type": "bytes32"
        }
      ],
      "stateMutability": "view",
      "type": "function"
    },
    {
      "inputs": [],
      "name": "DEFAULT_ADMIN_ROLE",
      "outputs": [
        {
          "internalType": "bytes32",
          "name": "",
          "type": "bytes32"
        }
      ],
      "stateMutability": "view",
      "type": "function"
    },
    {
      "inputs": [],
      "name": "PRODUCER_ROLE",
      "outputs": [
        {
          "internalType": "bytes32",
          "name": "",
          "type": "bytes32"
        }
      ],
      "stateMutability": "view",
      "type": "function"
    },
    {
      "inputs": [
        {
          "internalType": "uint256",
          "name": "contractId",
          "type": "uint256"
        }
      ],
      "name": "awardContract",
      "outputs": [],
      "stateMutability": "nonpayable",
      "type": "function"
    },
    {
      "inputs": [
        {
          "internalType": "uint256",
          "name": "contractId",
          "type": "uint256"
        }
      ],
      "name": "cancelBid",
      "outputs": [],
      "stateMutability": "nonpayable",
      "type": "function"
    },
    {
      "inputs": [],
      "name": "contractCounter",
      "outputs": [
        {
          "internalType": "uint256",
          "name": "",
          "type": "uint256"
        }
      ],
      "stateMutability": "view",
      "type": "function"
    },
    {
      "inputs": [
        {
          "internalType": "uint256",
          "name": "",
          "type": "uint256"
        }
      ],
      "name": "contracts",
      "outputs": [
        {
          "internalType": "uint256",
          "name": "contractId",
          "type": "uint256"
        },
        {
          "internalType": "address",
          "name": "producer",
          "type": "address"
        },
        {
          "internalType": "string",
          "name": "details",
          "type": "string"
        },
        {
          "internalType": "string",
          "name": "pickupLocation",
          "type": "string"
        },
        {
          "internalType": "string",
          "name": "deliveryLocation",
          "type": "string"
        },
        {
          "internalType": "uint256",
          "name": "weight",
          "type": "uint256"
        },
        {
          "internalType": "uint256",
          "name": "startTime",
          "type": "uint256"
        },
        {
          "internalType": "uint256",
          "name": "endTime",
          "type": "uint256"
        },
        {
          "internalType": "enum Bidding.ContractStatus",
          "name": "status",
          "type": "uint8"
        },
        {
          "internalType": "address",
          "name": "awardedCarrier",
          "type": "address"
        },
        {
          "internalType": "uint256",
          "name": "awardedAmount",
          "type": "uint256"
        },
        {
          "internalType": "uint256",
          "name": "bidsCount",
          "type": "uint256"
        }
      ],
      "stateMutability": "view",
      "type": "function"
    },
    {
      "inputs": [
        {
          "internalType": "string",
          "name": "details",
          "type": "string"
        },
        {
          "internalType": "string",
          "name": "pickupLocation",
          "type": "string"
        },
        {
          "internalType": "string",
          "name": "deliveryLocation",
          "type": "string"
        },
        {
          "internalType": "uint256",
          "name": "weight",
          "type": "uint256"
        },
        {
          "internalType": "uint256",
          "name": "endTime",
          "type": "uint256"
        }
      ],
      "name": "createTransportContract",
      "outputs": [],
      "stateMutability": "nonpayable",
      "type": "function"
    },
    {
      "inputs": [
        {
          "internalType": "uint256",
          "name": "contractId",
          "type": "uint256"
        }
      ],
      "name": "getActiveBids",
      "outputs": [
        {
          "components": [
            {
              "internalType": "uint256",
              "name": "contractId",
              "type": "uint256"
            },
            {
              "internalType": "address",
              "name": "carrier",
              "type": "address"
            },
            {
              "internalType": "uint256",
              "name": "amount",
              "type": "uint256"
            },
            {
              "internalType": "string",
              "name": "estimatedDeliveryTime",
              "type": "string"
            },
            {
              "internalType": "uint256",
              "name": "timestamp",
              "type": "uint256"
            },
            {
              "internalType": "bool",
              "name": "isActive",
              "type": "bool"
            }
          ],
          "internalType": "struct Bidding.Bid[]",
          "name": "",
          "type": "tuple[]"
        }
      ],
      "stateMutability": "view",
      "type": "function"
    },
    {
      "inputs": [
        {
          "internalType": "uint256",
          "name": "contractId",
          "type": "uint256"
        }
      ],
      "name": "getAllBids",
      "outputs": [
        {
          "components": [
            {
              "internalType": "uint256",
              "name": "contractId",
              "type": "uint256"
            },
            {
              "internalType": "address",
              "name": "carrier",
              "type": "address"
            },
            {
              "internalType": "uint256",
              "name": "amount",
              "type": "uint256"
            },
            {
              "internalType": "string",
              "name": "estimatedDeliveryTime",
              "type": "string"
            },
            {
              "internalType": "uint256",
              "name": "timestamp",
              "type": "uint256"
            },
            {
              "internalType": "bool",
              "name": "isActive",
              "type": "bool"
            }
          ],
          "internalType": "struct Bidding.Bid[]",
          "name": "",
          "type": "tuple[]"
        }
      ],
      "stateMutability": "view",
      "type": "function"
    },
    {
      "inputs": [
        {
          "internalType": "uint256",
          "name": "contractId",
          "type": "uint256"
        },
        {
          "internalType": "uint256",
          "name": "bidIndex",
          "type": "uint256"
        }
      ],
      "name": "getBid",
      "outputs": [
        {
          "components": [
            {
              "internalType": "uint256",
              "name": "contractId",
              "type": "uint256"
            },
            {
              "internalType": "address",
              "name": "carrier",
              "type": "address"
            },
            {
              "internalType": "uint256",
              "name": "amount",
              "type": "uint256"
            },
            {
              "internalType": "string",
              "name": "estimatedDeliveryTime",
              "type": "string"
            },
            {
              "internalType": "uint256",
              "name": "timestamp",
              "type": "uint256"
            },
            {
              "internalType": "bool",
              "name": "isActive",
              "type": "bool"
            }
          ],
          "internalType": "struct Bidding.Bid",
          "name": "",
          "type": "tuple"
        }
      ],
      "stateMutability": "view",
      "type": "function"
    },
    {
      "inputs": [
        {
          "internalType": "uint256",
          "name": "contractId",
          "type": "uint256"
        },
        {
          "internalType": "address",
          "name": "carrier",
          "type": "address"
        }
      ],
      "name": "getCarrierBid",
      "outputs": [
        {
          "components": [
            {
              "internalType": "uint256",
              "name": "contractId",
              "type": "uint256"
            },
            {
              "internalType": "address",
              "name": "carrier",
              "type": "address"
            },
            {
              "internalType": "uint256",
              "name": "amount",
              "type": "uint256"
            },
            {
              "internalType": "string",
              "name": "estimatedDeliveryTime",
              "type": "string"
            },
            {
              "internalType": "uint256",
              "name": "timestamp",
              "type": "uint256"
            },
            {
              "internalType": "bool",
              "name": "isActive",
              "type": "bool"
            }
          ],
          "internalType": "struct Bidding.Bid",
          "name": "",
          "type": "tuple"
        }
      ],
      "stateMutability": "view",
      "type": "function"
    },
    {
      "inputs": [
        {
          "internalType": "bytes32",
          "name": "role",
          "type": "bytes32"
        }
      ],
      "name": "getRoleAdmin",
      "outputs": [
        {
          "internalType": "bytes32",
          "name": "",
          "type": "bytes32"
        }
      ],
      "stateMutability": "view",
      "type": "function"
    },
    {
      "inputs": [
        {
          "internalType": "address",
          "name": "account",
          "type": "address"
        }
      ],
      "name": "grantCarrierRole",
      "outputs": [],
      "stateMutability": "nonpayable",
      "type": "function"
    },
    {
      "inputs": [
        {
          "internalType": "address",
          "name": "account",
          "type": "address"
        }
      ],
      "name": "grantProducerRole",
      "outputs": [],
      "stateMutability": "nonpayable",
      "type": "function"
    },
    {
      "inputs": [
        {
          "internalType": "bytes32",
          "name": "role",
          "type": "bytes32"
        },
        {
          "internalType": "address",
          "name": "account",
          "type": "address"
        }
      ],
      "name": "grantRole",
      "outputs": [],
      "stateMutability": "nonpayable",
      "type": "function"
    },
    {
      "inputs": [
        {
          "internalType": "uint256",
          "name": "contractId",
          "type": "uint256"
        },
        {
          "internalType": "address",
          "name": "carrier",
          "type": "address"
        }
      ],
      "name": "hasActiveBid",
      "outputs": [
        {
          "internalType": "bool",
          "name": "",
          "type": "bool"
        }
      ],
      "stateMutability": "view",
      "type": "function"
    },
    {
      "inputs": [
        {
          "internalType": "bytes32",
          "name": "role",
          "type": "bytes32"
        },
        {
          "internalType": "address",
          "name": "account",
          "type": "address"
        }
      ],
      "name": "hasRole",
      "outputs": [
        {
          "internalType": "bool",
          "name": "",
          "type": "bool"
        }
      ],
      "stateMutability": "view",
      "type": "function"
    },
    {
      "inputs": [
        {
          "internalType": "uint256",
          "name": "contractId",
          "type": "uint256"
        },
        {
          "internalType": "uint256",
          "name": "amount",
          "type": "uint256"
        },
        {
          "internalType": "string",
          "name": "estimatedDeliveryTime",
          "type": "string"
        }
      ],
      "name": "placeBid",
      "outputs": [],
      "stateMutability": "nonpayable",
      "type": "function"
    },
    {
      "inputs": [
        {
          "internalType": "bytes32",
          "name": "role",
          "type": "bytes32"
        },
        {
          "internalType": "address",
          "name": "callerConfirmation",
          "type": "address"
        }
      ],
      "name": "renounceRole",
      "outputs": [],
      "stateMutability": "nonpayable",
      "type": "function"
    },
    {
      "inputs": [
        {
          "internalType": "address",
          "name": "account",
          "type": "address"
        }
      ],
      "name": "revokeCarrierRole",
      "outputs": [],
      "stateMutability": "nonpayable",
      "type": "function"
    },
    {
      "inputs": [
        {
          "internalType": "address",
          "name": "account",
          "type": "address"
        }
      ],
      "name": "revokeProducerRole",
      "outputs": [],
      "stateMutability": "nonpayable",
      "type": "function"
    },
    {
      "inputs": [
        {
          "internalType": "bytes32",
          "name": "role",
          "type": "bytes32"
        },
        {
          "internalType": "address",
          "name": "account",
          "type": "address"
        }
      ],
      "name": "revokeRole",
      "outputs": [],
      "stateMutability": "nonpayable",
      "type": "function"
    },
    {
      "inputs": [
        {
          "internalType": "bytes4",
          "name": "interfaceId",
          "type": "bytes4"
        }
      ],
      "name": "supportsInterface",
      "outputs": [
        {
          "internalType": "bool",
          "name": "",
          "type": "bool"
        }
      ],
      "stateMutability": "view",
      "type": "function"
    },
    {
      "inputs": [
        {
          "internalType": "uint256",
          "name": "contractId",
          "type": "uint256"
        },
        {
          "internalType": "uint256",
          "name": "newAmount",
          "type": "uint256"
        },
        {
          "internalType": "string",
          "name": "estimatedDeliveryTime",
          "type": "string"
        }
      ],
      "name": "updateBid",
      "outputs": [],
      "stateMutability": "nonpayable",
      "type": "function"
    },
    {
      "inputs": [
        {
          "internalType": "uint256",
          "name": "contractId",
          "type": "uint256"
        },
        {
          "internalType": "enum Bidding.ContractStatus",
          "name": "newStatus",
          "type": "uint8"
        }
      ],
      "name": "updateContractStatus",
      "outputs": [],
      "stateMutability": "nonpayable",
      "type": "function"
    }
  ],
  "bytecode": "0x608060405234610036576100123361003b565b5061001c336100b7565b506100263361014f565b506040516129cb90816101e88239f35b600080fd5b6001600160a01b0381166000908152600080516020612c13833981519152602052604090205460ff166100b1576001600160a01b03166000818152600080516020612c1383398151915260205260408120805460ff19166001179055339190600080516020612bb38339815191528180a4600190565b50600090565b6001600160a01b0381166000908152600080516020612bd3833981519152602052604090205460ff166100b1576001600160a01b03166000818152600080516020612bd383398151915260205260408120805460ff191660011790553391907f8eb467f061ca67f42a2d2ca4a346fc9fb645efc0ba75056ee9f71c3a0ccc10a890600080516020612bb38339815191529080a4600190565b6001600160a01b0381166000908152600080516020612bf3833981519152602052604090205460ff166100b1576001600160a01b03166000818152600080516020612bf383398151915260205260408120805460ff191660011790553391907feb998ffefd22a823ed46d63e27357a1eefa908b6ba6804ac328694f77956b46990600080516020612bb38339815191529080a460019056fe608080604052600436101561001357600080fd5b60003560e01c90816301ffc9a714611a3557508063067bd3b414611a1757806319da7ca514611745578063248a9ca3146117105780632d14145e146116a55780632f2ff15d1461166557806336568abe1461161f57806344739b5214611600578063474da79a146114f95780635286fe141461148e578063582c7ffd146113ed5780635a155b5d146112a657806365a1be481461127d5780637b9c8102146112125780638759b8a414610f4757806391d1485414610efa5780639703ef3514610da3578063a217fddf14610d87578063a528ff8314610cb0578063bb7e4ee114610b64578063c5402b01146108d9578063ca7d6b2f146108a9578063cb3e1fe714610880578063d547741f14610840578063ea1fb2a8146107ce5763f670b3601461013d57600080fd5b346107c95760a03660031901126107c9576004356001600160401b0381116107c95761016d903690600401611af0565b6024356001600160401b0381116107c95761018c903690600401611af0565b6044356001600160401b0381116107c9576101ab903690600401611af0565b336000908152600080516020612916833981519152602052604090205460643593916084359160ff16156107a2574282111561075d57825115610718578351156106d35780511561068457841561064057610207600254611e3c565b60028181556000828152600160208190526040909120928355820180546001600160a01b031916331790558451908201906001600160401b0381116104bc576102508254611b7b565b601f81116105f8575b50806020601f82116001146105955760009161058a575b508160011b916000199060031b1c19161790555b6003810185516001600160401b0381116104bc576102a28254611b7b565b601f8111610542575b50806020601f82116001146104dd576000916104d2575b508160011b916000199060031b1c19161790555b6004810182516001600160401b0381116104bc576102f48254611b7b565b601f8111610474575b506020601f82116001146103e4576103c0937f9833e8f042da8189ba0019129a70b880fca5e30f6a7fca4ea311d05296c127279796959383600094600a9486916103d9575b508160011b9186199060031b1c19161790555b600581018a9055426006820155600781018690556008810180546001600160a81b031916905560098101839055015560025460405160c0808252919790956103b2926103a49190880190611c59565b908682036020880152611c59565b908482036040860152611c59565b94606083015242608083015260a08201528033940390a3005b905086015138610342565b601f1982169083600052806000209160005b81811061045c575093600184600a946103c098946000977f9833e8f042da8189ba0019129a70b880fca5e30f6a7fca4ea311d05296c127279d9c9b9910610444575b5050811b019055610355565b880151871960f88460031b161c191690553880610438565b9192602060018192868b0151815501940192016103f6565b826000526020600020601f830160051c810191602084106104b2575b601f0160051c01905b8181106104a657506102fd565b60008155600101610499565b9091508190610490565b634e487b7160e01b600052604160045260246000fd5b9050870151386102c2565b60008481528181209250601f198416905b8a82821061052a5750509083600194939210610511575b5050811b0190556102d6565b89015160001960f88460031b161c191690553880610505565b600184956020939584930151815501940192016104ee565b826000526020600020601f830160051c81019160208410610580575b601f0160051c01905b81811061057457506102ab565b60008155600101610567565b909150819061055e565b905086015138610270565b60008481528181209250601f198416905b8181106105e0575090836001949392106105c7575b5050811b019055610284565b88015160001960f88460031b161c1916905538806105bb565b9192602060018192868d0151815501940192016105a6565b826000526020600020601f830160051c81019160208410610636575b601f0160051c01905b81811061062a5750610259565b6000815560010161061d565b9091508190610614565b606460405162461bcd60e51b815260206004820152602060248201527f576569676874206d7573742062652067726561746572207468616e207a65726f6044820152fd5b60405162461bcd60e51b815260206004820152602160248201527f44656c6976657279206c6f636174696f6e2063616e6e6f7420626520656d70746044820152607960f81b6064820152608490fd5b60405162461bcd60e51b815260206004820152601f60248201527f5069636b7570206c6f636174696f6e2063616e6e6f7420626520656d707479006044820152606490fd5b60405162461bcd60e51b815260206004820152601760248201527f44657461696c732063616e6e6f7420626520656d7074790000000000000000006044820152606490fd5b60405162461bcd60e51b815260206004820152601e60248201527f456e642074696d65206d75737420626520696e207468652066757475726500006044820152606490fd5b63e2517d3f60e01b600052336004526000805160206128d683398151915260245260446000fd5b600080fd5b346107c95760203660031901126107c95761083e6107ea611a88565b6107f26124a3565b60008051602061293683398151915260009081526020527f78a77cfe307ce8994419a2f35babe178ca6c2ed7d27e92a502e3530dbdf492f15461083990612532565b612532565b61260b565b005b346107c95760403660031901126107c95761083e60043561085f611a9e565b9061087b61083482600052600060205260016040600020015490565b612853565b346107c95760003660031901126107c95760206040516000805160206128d68339815191528152f35b346107c95760403660031901126107c95760206108cf6108c7611a9e565b60043561243d565b6040519015158152f35b346107c9576108e736611b46565b6108f29291926124e4565b816000526001602052604060002061090c81541515611d59565b61091b60078201544210611da5565b60ff6008820154166004811015610b4e576109369015611df1565b336000908152600c8201602052604090205460ff1615610b0957336000908152600d820160209081526040808320548352600b909301905220600581015460ff1615610ad0578360028201556003810182516001600160401b0381116104bc576109a08254611b7b565b601f8111610a88575b506020601f8211600114610a0f5791816109ff94926000805160206128f68339815191529694600091610a04575b508160011b916000199060031b1c19161790555b600442910155604051918291339683611e61565b0390a3005b9050840151896109d7565b601f1982169083600052806000209160005b818110610a705750926000805160206128f6833981519152969492600192826109ff989610610a57575b5050811b0190556109eb565b86015160001960f88460031b161c191690558980610a4b565b9192602060018192868b015181550194019201610a21565b826000526020600020601f830160051c81019160208410610ac6575b601f0160051c01905b818110610aba57506109a9565b60008155600101610aad565b9091508190610aa4565b60405162461bcd60e51b8152602060048201526011602482015270426964206973206e6f742061637469766560781b6044820152606490fd5b60405162461bcd60e51b815260206004820152601960248201527f4e6f206578697374696e672062696420746f20757064617465000000000000006044820152606490fd5b634e487b7160e01b600052602160045260246000fd5b346107c95760203660031901126107c95760043560005260016020526040600020610b9181541515611d59565b600a810154600b909101906000805b828110610c7b5750610bb1906123c3565b916000805b838110610bcf5760405180610bcb8782611cf9565b0390f35b806000528260205260ff60056040600020015416610bf0575b600101610bb6565b90610c736001918360005284602052604060002060ff600560405192610c1584611ab4565b80548452868060a01b038782015416602085015260028101546040850152610c3f60038201611bb5565b606085015260048101546080850152015416151560a0820152610c628289612413565b52610c6d8188612413565b50611e3c565b919050610be8565b806000528360205260ff60056040600020015416610c9c575b600101610ba0565b90610ca8600191611e3c565b919050610c94565b346107c95760203660031901126107c95760043560005260016020526040600020610cdd81541515611d59565b600a810154610ceb816123c3565b91600b0160005b828110610d075760405180610bcb8682611cf9565b8060019160005282602052604060002060ff600560405192610d2884611ab4565b80548452858060a01b038682015416602085015260028101546040850152610d5260038201611bb5565b606085015260048101546080850152015416151560a0820152610d758287612413565b52610d808186612413565b5001610cf2565b346107c95760003660031901126107c957602060405160008152f35b346107c95760203660031901126107c957600435610dbf6124e4565b8060005260016020526040600020610dd981541515611d59565b610de860078201544210611da5565b60ff6008820154166004811015610b4e57610e039015611df1565b336000908152600c8201602052604090205460ff1615610eb557336000908152600d820160209081526040808320548352600b909301905220600501805460ff811615610e795760ff1916905533907f529d3bdff5de00724e674a22c5cc88aeca2e6496bf02e3369a4e43a7171be052600080a3005b60405162461bcd60e51b815260206004820152601460248201527342696420616c726561647920696e61637469766560601b6044820152606490fd5b60405162461bcd60e51b815260206004820152601960248201527f4e6f206578697374696e672062696420746f2063616e63656c000000000000006044820152606490fd5b346107c95760403660031901126107c957610f13611a9e565b600435600052600060205260406000209060018060a01b0316600052602052602060ff604060002054166040519015158152f35b346107c95760403660031901126107c9576004356024356004811080156107c9578260005260016020526040600020610f8281541515611d59565b600283036110d05760018101546001600160a01b0316331480156110aa575b156110505760ff6008820154166004811015610b4e5760010361100b576008905b019015610b4e577fdcba20243cece5ee0f3fd42c582f8201538d034183adfefbc2e6bf21de8fd3769160209160ff1981541660ff83161790556110086040518092611c9a565ba2005b60405162461bcd60e51b815260206004820152601e60248201527f436f6e7472616374206d757374206265206177617264656420666972737400006044820152606490fd5b60405162461bcd60e51b815260206004820152602c60248201527f4f6e6c792070726f6475636572206f722061646d696e2063616e206d61726b2060448201526b185cc818dbdb5c1b195d195960a21b6064820152608490fd5b50336000908152600080516020612976833981519152602052604090205460ff16610fa1565b600383036111cd5760018101546001600160a01b0316331480156111a7575b156111585760ff6008820154166004811015610b4e5760021461111457600890610fc2565b606460405162461bcd60e51b815260206004820152602060248201527f43616e6e6f742063616e63656c20636f6d706c6574656420636f6e74726163746044820152fd5b60405162461bcd60e51b815260206004820152602160248201527f4f6e6c792070726f6475636572206f722061646d696e2063616e2063616e63656044820152601b60fa1b6064820152608490fd5b50336000908152600080516020612976833981519152602052604090205460ff166110ef565b60405162461bcd60e51b815260206004820152601960248201527f496e76616c696420737461747573207472616e736974696f6e000000000000006044820152606490fd5b346107c95760203660031901126107c95761083e61122e611a88565b6112366124a3565b60008051602061293683398151915260009081526020527f78a77cfe307ce8994419a2f35babe178ca6c2ed7d27e92a502e3530dbdf492f15461127890612532565b6127bd565b346107c95760003660031901126107c95760206040516000805160206129368339815191528152f35b346107c95760403660031901126107c9576112bf611a9e565b6112c761237b565b50600435600052600160205260406000206112e481541515611d59565b6001600160a01b0382166000908152600c8201602052604090205460ff161561139c57600b9160018060a01b0316600052600d810160205260406000205460005201602052610bcb604060002060ff60056040519261134284611ab4565b8054845260018101546001600160a01b031660208501526002810154604085015261136f60038201611bb5565b606085015260048101546080850152015416151560a0820152604051918291602083526020830190611ca7565b60405162461bcd60e51b8152602060048201526024808201527f4361727269657220686173206e6f2062696420666f72207468697320636f6e746044820152631c9858dd60e21b6064820152608490fd5b346107c95760403660031901126107c95760243561140961237b565b506004356000526001602052604060002061142681541515611d59565b600a81015482101561145557600b9160005201602052610bcb604060002060ff60056040519261134284611ab4565b60405162461bcd60e51b8152602060048201526011602482015270092dcecc2d8d2c840c4d2c840d2dcc8caf607b1b6044820152606490fd5b346107c95760203660031901126107c95761083e6114aa611a88565b6114b26124a3565b6000805160206128d683398151915260009081526020527f06320dbdbf18953a1af49a3fe4ea5804853716848e42abbca49898582e53bfc1546114f490612532565b612727565b346107c95760203660031901126107c957600435600052600160205260406000208054600160a01b60019003600183015416916002810161153990611bb5565b61154560038301611bb5565b9161155260048201611bb5565b926005820154936006830154600784015491600885015493600986015495600a0154966040519a8b9a8b5260208b015260408a0161018090526101808a0161159991611c59565b89810360608b01526115aa91611c59565b88810360808a01526115bb91611c59565b9560a088015260c087015260e0860152610100850160ff8216906115de91611c9a565b60081c6001600160a01b03166101208501526101408401526101608301520390f35b346107c95761083e61161136611b46565b9161161a6124e4565b611e78565b346107c95760403660031901126107c957611638611a9e565b336001600160a01b038216036116545761083e90600435612853565b63334bd91960e11b60005260046000fd5b346107c95760403660031901126107c95761083e600435611684611a9e565b906116a061083482600052600060205260016040600020015490565b6126a3565b346107c95760203660031901126107c95761083e6116c1611a88565b6116c96124a3565b6000805160206128d683398151915260009081526020527f06320dbdbf18953a1af49a3fe4ea5804853716848e42abbca49898582e53bfc15461170b90612532565b61256d565b346107c95760203660031901126107c957602061173d600435600052600060205260016040600020015490565b604051908152f35b346107c95760203660031901126107c957600435806000526001602052604060002061177381541515611d59565b60018101546001600160a01b031633148080156119f1575b156119bb5760078201544210908115916119b3575b50801561198d575b15611948576008810160ff8154166004811015610b4e5761190357600a82015460001992600091600b8201835b8281106118af575050506001600160a01b03821693841561187a5783546001600160a81b03191660089390931b610100600160a81b03169290921760011790925560099190910181905560405190815282907f95cfe5dda435c017fba94f4be156f154f205ebac397f2374272a04d2ef1b89d690602090a37fdcba20243cece5ee0f3fd42c582f8201538d034183adfefbc2e6bf21de8fd376602060405160018152a2005b60405162461bcd60e51b815260206004820152600d60248201526c4e6f2076616c6964206269647360981b6044820152606490fd5b8060005281602052604060002060ff600582015416806118f6575b6118d8575b506001016117d5565b60028101546001918201549098506001600160a01b031695506118cf565b50876002820154106118ca565b60405162461bcd60e51b815260206004820152601e60248201527f436f6e7472616374206e6f74206f70656e20666f72206177617264696e6700006044820152606490fd5b60405162461bcd60e51b815260206004820152601860248201527f42696464696e672074696d65206973206e6f74206f76657200000000000000006044820152606490fd5b50336000908152600080516020612976833981519152602052604090205460ff166117a8565b9050836117a0565b60405162461bcd60e51b815260206004820152600e60248201526d139bdd08185d5d1a1bdc9a5e995960921b6044820152606490fd5b50336000908152600080516020612976833981519152602052604090205460ff1661178b565b346107c95760003660031901126107c9576020600254604051908152f35b346107c95760203660031901126107c9576004359063ffffffff60e01b82168092036107c957602091637965db0b60e01b8114908115611a77575b5015158152f35b6301ffc9a760e01b14905083611a70565b600435906001600160a01b03821682036107c957565b602435906001600160a01b03821682036107c957565b60c081019081106001600160401b038211176104bc57604052565b90601f801991011681019081106001600160401b038211176104bc57604052565b81601f820112156107c9578035906001600160401b0382116104bc5760405192611b24601f8401601f191660200185611acf565b828452602083830101116107c957816000926020809301838601378301015290565b60606003198201126107c9576004359160243591604435906001600160401b0382116107c957611b7891600401611af0565b90565b90600182811c92168015611bab575b6020831014611b9557565b634e487b7160e01b600052602260045260246000fd5b91607f1691611b8a565b9060405191826000825492611bc984611b7b565b8084529360018116908115611c375750600114611bf0575b50611bee92500383611acf565b565b90506000929192526020600020906000915b818310611c1b575050906020611bee9282010138611be1565b6020919350806001915483858901015201910190918492611c02565b905060209250611bee94915060ff191682840152151560051b82010138611be1565b919082519283825260005b848110611c85575050826000602080949584010152601f8019910116010190565b80602080928401015182828601015201611c64565b906004821015610b4e5752565b908151815260018060a01b0360208301511660208201526040820151604082015260a080611ce4606085015160c0606086015260c0850190611c59565b93608081015160808501520151151591015290565b602081016020825282518091526040820191602060408360051b8301019401926000915b838310611d2c57505050505090565b9091929394602080611d4a600193603f198682030187528951611ca7565b97019301930191939290611d1d565b15611d6057565b60405162461bcd60e51b815260206004820152601760248201527f436f6e747261637420646f6573206e6f742065786973740000000000000000006044820152606490fd5b15611dac57565b60405162461bcd60e51b815260206004820152601860248201527f42696464696e6720706572696f642068617320656e64656400000000000000006044820152606490fd5b15611df857565b606460405162461bcd60e51b815260206004820152602060248201527f436f6e7472616374206973206e6f74206f70656e20666f722062696464696e676044820152fd5b6000198114611e4b5760010190565b634e487b7160e01b600052601160045260246000fd5b604090611b78939281528160208201520190611c59565b90918160005260016020526040600020611e9481541515611d59565b611ea360078201544210611da5565b60ff6008820154166004811015610b4e57611ebe9015611df1565b60018101546001600160a01b0316331461232a57336000908152600c8201602081905260409091205460ff1661214a57600a820191825491604051611f0281611ab4565b86815260208101903382526040810189815260608201888152608083019142835260a08401946001865288600052600b880160205260406000209451855560018060a01b03905116600185019060018060a01b03166bffffffffffffffffffffffff60a01b8254161790555160028401556003830190518051906001600160401b0382116104bc57611f948354611b7b565b601f8111612102575b50602090601f831160011461206a5793600d96938360059461205a9d9b98947f30a2a69b40adbe12d54a071518bad8cd2b2882425282bcd63857bf99aa1fe0a99f9d9b9860009261205f575b50508160011b916000199060031b1c19161790555b51600482015591519101805460ff1990811692151560ff169290921790553360009081526020928352604080822080549093166001179092559290930190522055805461204a90611e3c565b9055604051918291339683611e61565b0390a3565b015190503880611fe9565b90601f1983169184600052816000209260005b8181106120ea57508461205a9d9b98947f30a2a69b40adbe12d54a071518bad8cd2b2882425282bcd63857bf99aa1fe0a99f9d9b9894600d9b9894600598600195106120d1575b505050811b019055611ffe565b015160001960f88460031b161c191690553880806120c4565b9293602060018192878601518155019501930161207d565b836000526020600020601f840160051c81019160208510612140575b601f0160051c01905b8181106121345750611f9d565b60008155600101612127565b909150819061211e565b50506121546124e4565b816000526001602052604060002061216e81541515611d59565b61217d60078201544210611da5565b60ff6008820154166004811015610b4e576121989015611df1565b336000908152600c8201602052604090205460ff1615610b0957336000908152600d820160209081526040808320548352600b909301905220600581015460ff1615610ad0578360028201556003810182516001600160401b0381116104bc576122028254611b7b565b601f81116122e2575b506020601f821160011461226a57918161205a94926000805160206128f6833981519152969460009161225f57508160011b916000199060031b1c1916179055600442910155604051918291339683611e61565b9050840151386109d7565b601f1982169083600052806000209160005b8181106122ca5750926000805160206128f68339815191529694926001928261205a9896106122b1575050811b0190556109eb565b86015160001960f88460031b161c191690553880610a4b565b9192602060018192868b01518155019401920161227c565b826000526020600020601f830160051c81019160208410612320575b601f0160051c01905b818110612314575061220b565b60008155600101612307565b90915081906122fe565b60405162461bcd60e51b815260206004820152602360248201527f50726f64756365722063616e6e6f7420626964206f6e206f776e20636f6e74726044820152621858dd60ea1b6064820152608490fd5b6040519061238882611ab4565b600060a0838281528260208201528260408201526060808201528260808201520152565b6001600160401b0381116104bc5760051b60200190565b906123cd826123ac565b6123da6040519182611acf565b82815280926123eb601f19916123ac565b019060005b8281106123fc57505050565b60209061240761237b565b828285010152016123f0565b80518210156124275760209160051b010190565b634e487b7160e01b600052603260045260246000fd5b6000526001602052604060002060018060a01b038216600052600c810160205260ff604060002054161561249c57600b9160018060a01b0316600052600d81016020526040600020546000520160205260ff6005604060002001541690565b5050600090565b336000908152600080516020612976833981519152602052604090205460ff16156124ca57565b63e2517d3f60e01b60005233600452600060245260446000fd5b336000908152600080516020612956833981519152602052604090205460ff161561250b57565b63e2517d3f60e01b6000523360045260008051602061293683398151915260245260446000fd5b60008181526020818152604080832033845290915290205460ff16156125555750565b63e2517d3f60e01b6000523360045260245260446000fd5b6001600160a01b0381166000908152600080516020612916833981519152602052604090205460ff16612605576001600160a01b0316600081815260008051602061291683398151915260205260408120805460ff191660011790553391906000805160206128d6833981519152907f2f8788117e7eff1d82e926ec794901d17c78024a50270940304540a733656f0d9080a4600190565b50600090565b6001600160a01b0381166000908152600080516020612956833981519152602052604090205460ff16612605576001600160a01b0316600081815260008051602061295683398151915260205260408120805460ff19166001179055339190600080516020612936833981519152907f2f8788117e7eff1d82e926ec794901d17c78024a50270940304540a733656f0d9080a4600190565b6000818152602081815260408083206001600160a01b038616845290915290205460ff1661249c576000818152602081815260408083206001600160a01b0395909516808452949091528120805460ff19166001179055339291907f2f8788117e7eff1d82e926ec794901d17c78024a50270940304540a733656f0d9080a4600190565b6001600160a01b0381166000908152600080516020612916833981519152602052604090205460ff1615612605576001600160a01b0316600081815260008051602061291683398151915260205260408120805460ff191690553391906000805160206128d6833981519152907ff6391f5c32d9c69d2a47ea670b442974b53935d1edc7fd64eb21e047a839171b9080a4600190565b6001600160a01b0381166000908152600080516020612956833981519152602052604090205460ff1615612605576001600160a01b0316600081815260008051602061295683398151915260205260408120805460ff19169055339190600080516020612936833981519152907ff6391f5c32d9c69d2a47ea670b442974b53935d1edc7fd64eb21e047a839171b9080a4600190565b6000818152602081815260408083206001600160a01b038616845290915290205460ff161561249c576000818152602081815260408083206001600160a01b0395909516808452949091528120805460ff19169055339291907ff6391f5c32d9c69d2a47ea670b442974b53935d1edc7fd64eb21e047a839171b9080a460019056fe8eb467f061ca67f42a2d2ca4a346fc9fb645efc0ba75056ee9f71c3a0ccc10a8affb3d806b051d211f932ba367edd981ed525e510f8c849fd8e19839716a25ad06320dbdbf18953a1af49a3fe4ea5804853716848e42abbca49898582e53bfc0eb998ffefd22a823ed46d63e27357a1eefa908b6ba6804ac328694f77956b46978a77cfe307ce8994419a2f35babe178ca6c2ed7d27e92a502e3530dbdf492f0ad3228b676f7d3cd4284a5443f17f1962b36e491b30a40b2405849e597ba5fb5a2646970667358221220f37939e86c14a03cb19e8bed0c31aa207ab897726f2463b31b6845101fe215d964736f6c634300081c00332f8788117e7eff1d82e926ec794901d17c78024a50270940304540a733656f0d06320dbdbf18953a1af49a3fe4ea5804853716848e42abbca49898582e53bfc078a77cfe307ce8994419a2f35babe178ca6c2ed7d27e92a502e3530dbdf492f0ad3228b676f7d3cd4284a5443f17f1962b36e491b30a40b2405849e597ba5fb5",
  "linkReferences": {},
  "deployedLinkReferences": {}
}