{
  "_format": "hh-sol-artifact-1",
  "contractName": "Bidding",
  "sourceName": "contracts/Bidding.sol",
  "abi": [
    {
      "inputs": [],
      "stateMutability": "nonpayable",
      "type": "constructor"
    },
    {
      "inputs": [],
      "name": "AccessControlBadConfirmation",
      "type": "error"
    },
    {
      "inputs": [
        {
          "internalType": "address",
          "name": "account",
          "type": "address"
        },
        {
          "internalType": "bytes32",
          "name": "neededRole",
          "type": "bytes32"
        }
      ],
      "name": "AccessControlUnauthorizedAccount",
      "type": "error"
    },
    {
      "anonymous": false,
      "inputs": [
        {
          "indexed": false,
          "internalType": "uint256",
          "name": "contractId",
          "type": "uint256"
        },
        {
          "indexed": false,
          "internalType": "address",
          "name": "carrier",
          "type": "address"
        },
        {
          "indexed": false,
          "internalType": "uint256",
          "name": "amount",
          "type": "uint256"
        }
      ],
      "name": "BidPlaced",
      "type": "event"
    },
    {
      "anonymous": false,
      "inputs": [
        {
          "indexed": false,
          "internalType": "uint256",
          "name": "contractId",
          "type": "uint256"
        },
        {
          "indexed": false,
          "internalType": "address",
          "name": "awardedCarrier",
          "type": "address"
        },
        {
          "indexed": false,
          "internalType": "uint256",
          "name": "awardedAmount",
          "type": "uint256"
        }
      ],
      "name": "ContractAwarded",
      "type": "event"
    },
    {
      "anonymous": false,
      "inputs": [
        {
          "indexed": true,
          "internalType": "bytes32",
          "name": "role",
          "type": "bytes32"
        },
        {
          "indexed": true,
          "internalType": "bytes32",
          "name": "previousAdminRole",
          "type": "bytes32"
        },
        {
          "indexed": true,
          "internalType": "bytes32",
          "name": "newAdminRole",
          "type": "bytes32"
        }
      ],
      "name": "RoleAdminChanged",
      "type": "event"
    },
    {
      "anonymous": false,
      "inputs": [
        {
          "indexed": true,
          "internalType": "bytes32",
          "name": "role",
          "type": "bytes32"
        },
        {
          "indexed": true,
          "internalType": "address",
          "name": "account",
          "type": "address"
        },
        {
          "indexed": true,
          "internalType": "address",
          "name": "sender",
          "type": "address"
        }
      ],
      "name": "RoleGranted",
      "type": "event"
    },
    {
      "anonymous": false,
      "inputs": [
        {
          "indexed": true,
          "internalType": "bytes32",
          "name": "role",
          "type": "bytes32"
        },
        {
          "indexed": true,
          "internalType": "address",
          "name": "account",
          "type": "address"
        },
        {
          "indexed": true,
          "internalType": "address",
          "name": "sender",
          "type": "address"
        }
      ],
      "name": "RoleRevoked",
      "type": "event"
    },
    {
      "anonymous": false,
      "inputs": [
        {
          "indexed": false,
          "internalType": "uint256",
          "name": "contractId",
          "type": "uint256"
        },
        {
          "indexed": false,
          "internalType": "address",
          "name": "producer",
          "type": "address"
        },
        {
          "indexed": false,
          "internalType": "string",
          "name": "details",
          "type": "string"
        },
        {
          "indexed": false,
          "internalType": "uint256",
          "name": "startTime",
          "type": "uint256"
        },
        {
          "indexed": false,
          "internalType": "uint256",
          "name": "endTime",
          "type": "uint256"
        }
      ],
      "name": "TransportationContractCreated",
      "type": "event"
    },
    {
      "inputs": [],
      "name": "CARRIER_ROLE",
      "outputs": [
        {
          "internalType": "bytes32",
          "name": "",
          "type": "bytes32"
        }
      ],
      "stateMutability": "view",
      "type": "function"
    },
    {
      "inputs": [],
      "name": "DEFAULT_ADMIN_ROLE",
      "outputs": [
        {
          "internalType": "bytes32",
          "name": "",
          "type": "bytes32"
        }
      ],
      "stateMutability": "view",
      "type": "function"
    },
    {
      "inputs": [],
      "name": "PRODUCER_ROLE",
      "outputs": [
        {
          "internalType": "bytes32",
          "name": "",
          "type": "bytes32"
        }
      ],
      "stateMutability": "view",
      "type": "function"
    },
    {
      "inputs": [
        {
          "internalType": "uint256",
          "name": "contractId",
          "type": "uint256"
        }
      ],
      "name": "awardContract",
      "outputs": [],
      "stateMutability": "nonpayable",
      "type": "function"
    },
    {
      "inputs": [],
      "name": "contractCounter",
      "outputs": [
        {
          "internalType": "uint256",
          "name": "",
          "type": "uint256"
        }
      ],
      "stateMutability": "view",
      "type": "function"
    },
    {
      "inputs": [
        {
          "internalType": "uint256",
          "name": "",
          "type": "uint256"
        }
      ],
      "name": "contracts",
      "outputs": [
        {
          "internalType": "uint256",
          "name": "contractId",
          "type": "uint256"
        },
        {
          "internalType": "address",
          "name": "producer",
          "type": "address"
        },
        {
          "internalType": "string",
          "name": "details",
          "type": "string"
        },
        {
          "internalType": "uint256",
          "name": "startTime",
          "type": "uint256"
        },
        {
          "internalType": "uint256",
          "name": "endTime",
          "type": "uint256"
        },
        {
          "internalType": "bool",
          "name": "awarded",
          "type": "bool"
        },
        {
          "internalType": "address",
          "name": "awardedCarrier",
          "type": "address"
        },
        {
          "internalType": "uint256",
          "name": "awardedAmount",
          "type": "uint256"
        },
        {
          "internalType": "uint256",
          "name": "bidsCount",
          "type": "uint256"
        }
      ],
      "stateMutability": "view",
      "type": "function"
    },
    {
      "inputs": [
        {
          "internalType": "string",
          "name": "details",
          "type": "string"
        },
        {
          "internalType": "uint256",
          "name": "endTime",
          "type": "uint256"
        }
      ],
      "name": "createTransportContract",
      "outputs": [],
      "stateMutability": "nonpayable",
      "type": "function"
    },
    {
      "inputs": [
        {
          "internalType": "uint256",
          "name": "contractId",
          "type": "uint256"
        },
        {
          "internalType": "uint256",
          "name": "bidIndex",
          "type": "uint256"
        }
      ],
      "name": "getBid",
      "outputs": [
        {
          "components": [
            {
              "internalType": "uint256",
              "name": "contractId",
              "type": "uint256"
            },
            {
              "internalType": "address",
              "name": "carrier",
              "type": "address"
            },
            {
              "internalType": "uint256",
              "name": "amount",
              "type": "uint256"
            },
            {
              "internalType": "uint256",
              "name": "timestamp",
              "type": "uint256"
            }
          ],
          "internalType": "struct Bidding.Bid",
          "name": "",
          "type": "tuple"
        }
      ],
      "stateMutability": "view",
      "type": "function"
    },
    {
      "inputs": [
        {
          "internalType": "uint256",
          "name": "contractId",
          "type": "uint256"
        }
      ],
      "name": "getBids",
      "outputs": [
        {
          "components": [
            {
              "internalType": "uint256",
              "name": "contractId",
              "type": "uint256"
            },
            {
              "internalType": "address",
              "name": "carrier",
              "type": "address"
            },
            {
              "internalType": "uint256",
              "name": "amount",
              "type": "uint256"
            },
            {
              "internalType": "uint256",
              "name": "timestamp",
              "type": "uint256"
            }
          ],
          "internalType": "struct Bidding.Bid[]",
          "name": "",
          "type": "tuple[]"
        }
      ],
      "stateMutability": "view",
      "type": "function"
    },
    {
      "inputs": [
        {
          "internalType": "bytes32",
          "name": "role",
          "type": "bytes32"
        }
      ],
      "name": "getRoleAdmin",
      "outputs": [
        {
          "internalType": "bytes32",
          "name": "",
          "type": "bytes32"
        }
      ],
      "stateMutability": "view",
      "type": "function"
    },
    {
      "inputs": [
        {
          "internalType": "bytes32",
          "name": "role",
          "type": "bytes32"
        },
        {
          "internalType": "address",
          "name": "account",
          "type": "address"
        }
      ],
      "name": "grantRole",
      "outputs": [],
      "stateMutability": "nonpayable",
      "type": "function"
    },
    {
      "inputs": [
        {
          "internalType": "bytes32",
          "name": "role",
          "type": "bytes32"
        },
        {
          "internalType": "address",
          "name": "account",
          "type": "address"
        }
      ],
      "name": "hasRole",
      "outputs": [
        {
          "internalType": "bool",
          "name": "",
          "type": "bool"
        }
      ],
      "stateMutability": "view",
      "type": "function"
    },
    {
      "inputs": [
        {
          "internalType": "uint256",
          "name": "contractId",
          "type": "uint256"
        },
        {
          "internalType": "uint256",
          "name": "amount",
          "type": "uint256"
        }
      ],
      "name": "placeBid",
      "outputs": [],
      "stateMutability": "nonpayable",
      "type": "function"
    },
    {
      "inputs": [
        {
          "internalType": "bytes32",
          "name": "role",
          "type": "bytes32"
        },
        {
          "internalType": "address",
          "name": "callerConfirmation",
          "type": "address"
        }
      ],
      "name": "renounceRole",
      "outputs": [],
      "stateMutability": "nonpayable",
      "type": "function"
    },
    {
      "inputs": [
        {
          "internalType": "bytes32",
          "name": "role",
          "type": "bytes32"
        },
        {
          "internalType": "address",
          "name": "account",
          "type": "address"
        }
      ],
      "name": "revokeRole",
      "outputs": [],
      "stateMutability": "nonpayable",
      "type": "function"
    },
    {
      "inputs": [
        {
          "internalType": "bytes4",
          "name": "interfaceId",
          "type": "bytes4"
        }
      ],
      "name": "supportsInterface",
      "outputs": [
        {
          "internalType": "bool",
          "name": "",
          "type": "bool"
        }
      ],
      "stateMutability": "view",
      "type": "function"
    }
  ],
  "bytecode": "0x608060405234610036576100123361003b565b5061001c336100b7565b506100263361014f565b5060405161107590816101e88239f35b600080fd5b6001600160a01b03811660009081526000805160206112bd833981519152602052604090205460ff166100b1576001600160a01b031660008181526000805160206112bd83398151915260205260408120805460ff1916600117905533919060008051602061125d8339815191528180a4600190565b50600090565b6001600160a01b038116600090815260008051602061127d833981519152602052604090205460ff166100b1576001600160a01b0316600081815260008051602061127d83398151915260205260408120805460ff191660011790553391907f8eb467f061ca67f42a2d2ca4a346fc9fb645efc0ba75056ee9f71c3a0ccc10a89060008051602061125d8339815191529080a4600190565b6001600160a01b038116600090815260008051602061129d833981519152602052604090205460ff166100b1576001600160a01b0316600081815260008051602061129d83398151915260205260408120805460ff191660011790553391907feb998ffefd22a823ed46d63e27357a1eefa908b6ba6804ac328694f77956b4699060008051602061125d8339815191529080a460019056fe608080604052600436101561001357600080fd5b60003560e01c90816301ffc9a714610c6557508063067bd3b414610c47578063131d9a2714610aef57806319da7ca51461094257806319f5c0a014610665578063248a9ca3146106305780632f2ff15d146105fe57806336568abe146105c6578063474da79a1461047957806357c90de5146102c5578063582c7ffd146101df57806365a1be48146101a457806391d1485414610164578063a217fddf14610148578063cb3e1fe71461010d5763d547741f146100cf57600080fd5b34610108576101066100e036610cf6565b906101016100fc82600052600060205260016040600020015490565b610ef7565b610fbd565b005b600080fd5b346101085760003660031901126101085760206040517f8eb467f061ca67f42a2d2ca4a346fc9fb645efc0ba75056ee9f71c3a0ccc10a88152f35b3461010857600036600319011261010857602060405160008152f35b346101085761017236610cf6565b90600052600060205260406000209060018060a01b0316600052602052602060ff604060002054166040519015158152f35b346101085760003660031901126101085760206040517feb998ffefd22a823ed46d63e27357a1eefa908b6ba6804ac328694f77956b4698152f35b34610108576101ed36610d97565b906101f6610dc5565b5060005260016020526040600020600781015482101561028c57600891600052016020526080604060002060036040519161023083610cb8565b8054835260018060a01b036001820154166020840152600281015460408401520154606082015261028a6040518092606080918051845260018060a01b036020820151166020850152604081015160408501520151910152565bf35b60405162461bcd60e51b8152602060048201526011602482015270092dcecc2d8d2c840c4d2c840d2dcc8caf607b1b6044820152606490fd5b34610108576102d336610d97565b3360009081527f78a77cfe307ce8994419a2f35babe178ca6c2ed7d27e92a502e3530dbdf492f0602052604090205460ff16156104405781600052600160205260406000209160048301544210156103fb578261035860ff60057f0e54eff26401bf69b81b26f60bd85ef47f5d85275c1d268d84f68d6897431c479601541615610e14565b6007810190600382546040519261036e84610cb8565b858452602084013381526008604086019289845260608701944286526000520160205260406000209451855560018060a01b03905116600185019060018060a01b03166bffffffffffffffffffffffff60a01b825416179055516002840155519101556103db8154610e60565b90556040805191825233602083015281019190915280606081015b0390a1005b60405162461bcd60e51b815260206004820152601860248201527f42696464696e6720706572696f642068617320656e64656400000000000000006044820152606490fd5b63e2517d3f60e01b600052336004527feb998ffefd22a823ed46d63e27357a1eefa908b6ba6804ac328694f77956b46960245260446000fd5b346101085760203660031901126101085760043560005260016020526040600020805460018060a01b036001830154169160028101604051908160008254926104c184610d1c565b80845293600181169081156105a4575060011461055d575b506104e692500382610cd4565b60038201549160048101546005820154906105256007600685015494015494604051988998895260208901526101206040890152610120880190610d56565b6060870195909552608086015260ff8116151560a086015260081c6001600160a01b031660c085015260e08401526101008301520390f35b90506000929192526020600020906000915b8183106105885750509060206104e692820101876104d9565b602091935080600191548385880101520191019091839261056f565b9050602092506104e694915060ff191682840152151560051b820101876104d9565b34610108576105d436610cf6565b336001600160a01b038216036105ed5761010691610fbd565b63334bd91960e11b60005260046000fd5b346101085761010661060f36610cf6565b9061062b6100fc82600052600060205260016040600020015490565b610f32565b3461010857602036600319011261010857602061065d600435600052600060205260016040600020015490565b604051908152f35b346101085760403660031901126101085760043567ffffffffffffffff8111610108573660238201121561010857806004013567ffffffffffffffff81116108e757604051916106bf601f8301601f191660200184610cd4565b818352366024838301011161010857816000926024602093018386013783010152602435906106ec610e85565b428211156108fd576106ff600254610e60565b60028181556000828152600160208190526040909120928355820180546001600160a01b0319163317905582519193919084019067ffffffffffffffff81116108e75761074c8254610d1c565b601f811161089f575b506020601f82116001146108155794600092826007937f3afc7b58b17cec2dfc3c2d89f8bc1157152fbec26bb8eeef30fb355f2060c2ad98869161080a575b508160011b9186199060031b1c19161790555b426003820155600481018490556005810180546001600160a81b03191690556006810183905501556002546040805191825233602083015260a090820181905290928392916107f99190840190610d56565b9042606084015260808301520390a1005b905087015189610794565b601f1982169083600052806000209160005b8181106108875750837f3afc7b58b17cec2dfc3c2d89f8bc1157152fbec26bb8eeef30fb355f2060c2ad9893600096936007966001941061086f575b5050811b0190556107a7565b890151871960f88460031b161c191690558980610863565b9192602060018192868b015181550194019201610827565b826000526020600020601f830160051c810191602084106108dd575b601f0160051c01905b8181106108d15750610755565b600081556001016108c4565b90915081906108bb565b634e487b7160e01b600052604160045260246000fd5b60405162461bcd60e51b815260206004820152601e60248201527f456e642074696d65206d75737420626520696e207468652066757475726500006044820152606490fd5b346101085760203660031901126101085760043561095e610e85565b80600052600160205260406000209060048201544210610aaa57600582019081549261098d60ff851615610e14565b60078101546000936000199160088401865b828110610a5f575050506001600160a01b03851615610a2a576001600160a81b0319909516600885901b610100600160a81b031617600117909455600601839055604080519182526001600160a01b039092166020820152908101919091527f95cfe5dda435c017fba94f4be156f154f205ebac397f2374272a04d2ef1b89d69080606081016103f6565b60405162461bcd60e51b815260206004820152600d60248201526c4e6f2076616c6964206269647360981b6044820152606490fd5b80600052816020528460026040600020015410610a7f575b60010161099f565b600081815260208390526040902060028101546001909101546001600160a01b031698509450610a77565b60405162461bcd60e51b815260206004820152601860248201527f42696464696e672074696d65206973206e6f74206f76657200000000000000006044820152606490fd5b346101085760203660031901126101085760043560005260016020526040600020600781015490610b1f82610dad565b91610b2d6040519384610cd4565b808352601f19610b3c82610dad565b0160005b818110610c3057505090600860009101905b828110610bd0578360405180916020820160208352815180915260206040840192019060005b818110610b86575050500390f35b919350916020608082610bc26001948851606080918051845260018060a01b036020820151166020850152604081015160408501520151910152565b019401910191849392610b78565b80600191600052826020526040600020600360405191610bef83610cb8565b80548352848060a01b03858201541660208401526002810154604084015201546060820152610c1e8287610dea565b52610c298186610dea565b5001610b52565b602090610c3b610dc5565b82828801015201610b40565b34610108576000366003190112610108576020600254604051908152f35b34610108576020366003190112610108576004359063ffffffff60e01b821680920361010857602091637965db0b60e01b8114908115610ca7575b5015158152f35b6301ffc9a760e01b14905083610ca0565b6080810190811067ffffffffffffffff8211176108e757604052565b90601f8019910116810190811067ffffffffffffffff8211176108e757604052565b604090600319011261010857600435906024356001600160a01b03811681036101085790565b90600182811c92168015610d4c575b6020831014610d3657565b634e487b7160e01b600052602260045260246000fd5b91607f1691610d2b565b919082519283825260005b848110610d82575050826000602080949584010152601f8019910116010190565b80602080928401015182828601015201610d61565b6040906003190112610108576004359060243590565b67ffffffffffffffff81116108e75760051b60200190565b60405190610dd282610cb8565b60006060838281528260208201528260408201520152565b8051821015610dfe5760209160051b010190565b634e487b7160e01b600052603260045260246000fd5b15610e1b57565b60405162461bcd60e51b815260206004820152601860248201527f436f6e747261637420616c7265616479206177617264656400000000000000006044820152606490fd5b6000198114610e6f5760010190565b634e487b7160e01b600052601160045260246000fd5b3360009081527f06320dbdbf18953a1af49a3fe4ea5804853716848e42abbca49898582e53bfc0602052604090205460ff1615610ebe57565b63e2517d3f60e01b600052336004527f8eb467f061ca67f42a2d2ca4a346fc9fb645efc0ba75056ee9f71c3a0ccc10a860245260446000fd5b60008181526020818152604080832033845290915290205460ff1615610f1a5750565b63e2517d3f60e01b6000523360045260245260446000fd5b6000818152602081815260408083206001600160a01b038616845290915290205460ff16610fb6576000818152602081815260408083206001600160a01b0395909516808452949091528120805460ff19166001179055339291907f2f8788117e7eff1d82e926ec794901d17c78024a50270940304540a733656f0d9080a4600190565b5050600090565b6000818152602081815260408083206001600160a01b038616845290915290205460ff1615610fb6576000818152602081815260408083206001600160a01b0395909516808452949091528120805460ff19169055339291907ff6391f5c32d9c69d2a47ea670b442974b53935d1edc7fd64eb21e047a839171b9080a460019056fea2646970667358221220f63dc183c1486124a643ea575e64cd3e0ac52d1165a8c195f3c8c736e7a7342064736f6c634300081c00332f8788117e7eff1d82e926ec794901d17c78024a50270940304540a733656f0d06320dbdbf18953a1af49a3fe4ea5804853716848e42abbca49898582e53bfc078a77cfe307ce8994419a2f35babe178ca6c2ed7d27e92a502e3530dbdf492f0ad3228b676f7d3cd4284a5443f17f1962b36e491b30a40b2405849e597ba5fb5",
  "linkReferences": {},
  "deployedLinkReferences": {}
}