{
  "_format": "hh-sol-artifact-1",
  "contractName": "ProductRegistration",
  "sourceName": "contracts/ProductRegistration.sol",
  "abi": [
    {
      "inputs": [],
      "stateMutability": "nonpayable",
      "type": "constructor"
    },
    {
      "inputs": [],
      "name": "AccessControlBadConfirmation",
      "type": "error"
    },
    {
      "inputs": [
        {
          "internalType": "address",
          "name": "account",
          "type": "address"
        },
        {
          "internalType": "bytes32",
          "name": "neededRole",
          "type": "bytes32"
        }
      ],
      "name": "AccessControlUnauthorizedAccount",
      "type": "error"
    },
    {
      "anonymous": false,
      "inputs": [
        {
          "indexed": true,
          "internalType": "uint256",
          "name": "productId",
          "type": "uint256"
        },
        {
          "indexed": true,
          "internalType": "address",
          "name": "producer",
          "type": "address"
        },
        {
          "indexed": false,
          "internalType": "string",
          "name": "name",
          "type": "string"
        },
        {
          "indexed": false,
          "internalType": "string",
          "name": "quantity",
          "type": "string"
        },
        {
          "indexed": false,
          "internalType": "uint256",
          "name": "price",
          "type": "uint256"
        },
        {
          "indexed": false,
          "internalType": "uint256",
          "name": "timestamp",
          "type": "uint256"
        }
      ],
      "name": "ProductRegistered",
      "type": "event"
    },
    {
      "anonymous": false,
      "inputs": [
        {
          "indexed": true,
          "internalType": "uint256",
          "name": "productId",
          "type": "uint256"
        },
        {
          "indexed": false,
          "internalType": "enum ProductRegistration.ProductStatus",
          "name": "status",
          "type": "uint8"
        },
        {
          "indexed": false,
          "internalType": "uint256",
          "name": "timestamp",
          "type": "uint256"
        }
      ],
      "name": "ProductStatusChanged",
      "type": "event"
    },
    {
      "anonymous": false,
      "inputs": [
        {
          "indexed": true,
          "internalType": "uint256",
          "name": "productId",
          "type": "uint256"
        },
        {
          "indexed": true,
          "internalType": "address",
          "name": "producer",
          "type": "address"
        },
        {
          "indexed": false,
          "internalType": "string",
          "name": "quantity",
          "type": "string"
        },
        {
          "indexed": false,
          "internalType": "uint256",
          "name": "price",
          "type": "uint256"
        },
        {
          "indexed": false,
          "internalType": "enum ProductRegistration.ProductStatus",
          "name": "status",
          "type": "uint8"
        },
        {
          "indexed": false,
          "internalType": "uint256",
          "name": "timestamp",
          "type": "uint256"
        }
      ],
      "name": "ProductUpdated",
      "type": "event"
    },
    {
      "anonymous": false,
      "inputs": [
        {
          "indexed": true,
          "internalType": "bytes32",
          "name": "role",
          "type": "bytes32"
        },
        {
          "indexed": true,
          "internalType": "bytes32",
          "name": "previousAdminRole",
          "type": "bytes32"
        },
        {
          "indexed": true,
          "internalType": "bytes32",
          "name": "newAdminRole",
          "type": "bytes32"
        }
      ],
      "name": "RoleAdminChanged",
      "type": "event"
    },
    {
      "anonymous": false,
      "inputs": [
        {
          "indexed": true,
          "internalType": "bytes32",
          "name": "role",
          "type": "bytes32"
        },
        {
          "indexed": true,
          "internalType": "address",
          "name": "account",
          "type": "address"
        },
        {
          "indexed": true,
          "internalType": "address",
          "name": "sender",
          "type": "address"
        }
      ],
      "name": "RoleGranted",
      "type": "event"
    },
    {
      "anonymous": false,
      "inputs": [
        {
          "indexed": true,
          "internalType": "bytes32",
          "name": "role",
          "type": "bytes32"
        },
        {
          "indexed": true,
          "internalType": "address",
          "name": "account",
          "type": "address"
        },
        {
          "indexed": true,
          "internalType": "address",
          "name": "sender",
          "type": "address"
        }
      ],
      "name": "RoleRevoked",
      "type": "event"
    },
    {
      "inputs": [],
      "name": "DEFAULT_ADMIN_ROLE",
      "outputs": [
        {
          "internalType": "bytes32",
          "name": "",
          "type": "bytes32"
        }
      ],
      "stateMutability": "view",
      "type": "function"
    },
    {
      "inputs": [],
      "name": "PRODUCER_ROLE",
      "outputs": [
        {
          "internalType": "bytes32",
          "name": "",
          "type": "bytes32"
        }
      ],
      "stateMutability": "view",
      "type": "function"
    },
    {
      "inputs": [
        {
          "internalType": "uint256",
          "name": "productId",
          "type": "uint256"
        },
        {
          "internalType": "enum ProductRegistration.ProductStatus",
          "name": "newStatus",
          "type": "uint8"
        }
      ],
      "name": "changeProductStatus",
      "outputs": [],
      "stateMutability": "nonpayable",
      "type": "function"
    },
    {
      "inputs": [
        {
          "internalType": "uint256",
          "name": "productId",
          "type": "uint256"
        }
      ],
      "name": "getProduct",
      "outputs": [
        {
          "components": [
            {
              "internalType": "uint256",
              "name": "productId",
              "type": "uint256"
            },
            {
              "internalType": "address",
              "name": "producer",
              "type": "address"
            },
            {
              "internalType": "string",
              "name": "name",
              "type": "string"
            },
            {
              "internalType": "string",
              "name": "quantity",
              "type": "string"
            },
            {
              "internalType": "string",
              "name": "details",
              "type": "string"
            },
            {
              "internalType": "uint256",
              "name": "price",
              "type": "uint256"
            },
            {
              "internalType": "enum ProductRegistration.ProductStatus",
              "name": "status",
              "type": "uint8"
            },
            {
              "internalType": "uint256",
              "name": "timestamp",
              "type": "uint256"
            },
            {
              "internalType": "uint256",
              "name": "lastUpdated",
              "type": "uint256"
            }
          ],
          "internalType": "struct ProductRegistration.Product",
          "name": "",
          "type": "tuple"
        }
      ],
      "stateMutability": "view",
      "type": "function"
    },
    {
      "inputs": [],
      "name": "getProductCount",
      "outputs": [
        {
          "internalType": "uint256",
          "name": "",
          "type": "uint256"
        }
      ],
      "stateMutability": "view",
      "type": "function"
    },
    {
      "inputs": [
        {
          "internalType": "address",
          "name": "producer",
          "type": "address"
        },
        {
          "internalType": "uint256",
          "name": "startId",
          "type": "uint256"
        },
        {
          "internalType": "uint256",
          "name": "count",
          "type": "uint256"
        }
      ],
      "name": "getProductsByProducer",
      "outputs": [
        {
          "components": [
            {
              "internalType": "uint256",
              "name": "productId",
              "type": "uint256"
            },
            {
              "internalType": "address",
              "name": "producer",
              "type": "address"
            },
            {
              "internalType": "string",
              "name": "name",
              "type": "string"
            },
            {
              "internalType": "string",
              "name": "quantity",
              "type": "string"
            },
            {
              "internalType": "string",
              "name": "details",
              "type": "string"
            },
            {
              "internalType": "uint256",
              "name": "price",
              "type": "uint256"
            },
            {
              "internalType": "enum ProductRegistration.ProductStatus",
              "name": "status",
              "type": "uint8"
            },
            {
              "internalType": "uint256",
              "name": "timestamp",
              "type": "uint256"
            },
            {
              "internalType": "uint256",
              "name": "lastUpdated",
              "type": "uint256"
            }
          ],
          "internalType": "struct ProductRegistration.Product[]",
          "name": "",
          "type": "tuple[]"
        }
      ],
      "stateMutability": "view",
      "type": "function"
    },
    {
      "inputs": [
        {
          "internalType": "bytes32",
          "name": "role",
          "type": "bytes32"
        }
      ],
      "name": "getRoleAdmin",
      "outputs": [
        {
          "internalType": "bytes32",
          "name": "",
          "type": "bytes32"
        }
      ],
      "stateMutability": "view",
      "type": "function"
    },
    {
      "inputs": [
        {
          "internalType": "address",
          "name": "account",
          "type": "address"
        }
      ],
      "name": "grantProducerRole",
      "outputs": [],
      "stateMutability": "nonpayable",
      "type": "function"
    },
    {
      "inputs": [
        {
          "internalType": "bytes32",
          "name": "role",
          "type": "bytes32"
        },
        {
          "internalType": "address",
          "name": "account",
          "type": "address"
        }
      ],
      "name": "grantRole",
      "outputs": [],
      "stateMutability": "nonpayable",
      "type": "function"
    },
    {
      "inputs": [
        {
          "internalType": "bytes32",
          "name": "role",
          "type": "bytes32"
        },
        {
          "internalType": "address",
          "name": "account",
          "type": "address"
        }
      ],
      "name": "hasRole",
      "outputs": [
        {
          "internalType": "bool",
          "name": "",
          "type": "bool"
        }
      ],
      "stateMutability": "view",
      "type": "function"
    },
    {
      "inputs": [],
      "name": "productCounter",
      "outputs": [
        {
          "internalType": "uint256",
          "name": "",
          "type": "uint256"
        }
      ],
      "stateMutability": "view",
      "type": "function"
    },
    {
      "inputs": [
        {
          "internalType": "uint256",
          "name": "",
          "type": "uint256"
        }
      ],
      "name": "products",
      "outputs": [
        {
          "internalType": "uint256",
          "name": "productId",
          "type": "uint256"
        },
        {
          "internalType": "address",
          "name": "producer",
          "type": "address"
        },
        {
          "internalType": "string",
          "name": "name",
          "type": "string"
        },
        {
          "internalType": "string",
          "name": "quantity",
          "type": "string"
        },
        {
          "internalType": "string",
          "name": "details",
          "type": "string"
        },
        {
          "internalType": "uint256",
          "name": "price",
          "type": "uint256"
        },
        {
          "internalType": "enum ProductRegistration.ProductStatus",
          "name": "status",
          "type": "uint8"
        },
        {
          "internalType": "uint256",
          "name": "timestamp",
          "type": "uint256"
        },
        {
          "internalType": "uint256",
          "name": "lastUpdated",
          "type": "uint256"
        }
      ],
      "stateMutability": "view",
      "type": "function"
    },
    {
      "inputs": [
        {
          "internalType": "string",
          "name": "name",
          "type": "string"
        },
        {
          "internalType": "string",
          "name": "details",
          "type": "string"
        },
        {
          "internalType": "string",
          "name": "quantity",
          "type": "string"
        },
        {
          "internalType": "uint256",
          "name": "price",
          "type": "uint256"
        }
      ],
      "name": "registerProduct",
      "outputs": [],
      "stateMutability": "nonpayable",
      "type": "function"
    },
    {
      "inputs": [
        {
          "internalType": "bytes32",
          "name": "role",
          "type": "bytes32"
        },
        {
          "internalType": "address",
          "name": "callerConfirmation",
          "type": "address"
        }
      ],
      "name": "renounceRole",
      "outputs": [],
      "stateMutability": "nonpayable",
      "type": "function"
    },
    {
      "inputs": [
        {
          "internalType": "address",
          "name": "account",
          "type": "address"
        }
      ],
      "name": "revokeProducerRole",
      "outputs": [],
      "stateMutability": "nonpayable",
      "type": "function"
    },
    {
      "inputs": [
        {
          "internalType": "bytes32",
          "name": "role",
          "type": "bytes32"
        },
        {
          "internalType": "address",
          "name": "account",
          "type": "address"
        }
      ],
      "name": "revokeRole",
      "outputs": [],
      "stateMutability": "nonpayable",
      "type": "function"
    },
    {
      "inputs": [
        {
          "internalType": "bytes4",
          "name": "interfaceId",
          "type": "bytes4"
        }
      ],
      "name": "supportsInterface",
      "outputs": [
        {
          "internalType": "bool",
          "name": "",
          "type": "bool"
        }
      ],
      "stateMutability": "view",
      "type": "function"
    },
    {
      "inputs": [
        {
          "internalType": "uint256",
          "name": "productId",
          "type": "uint256"
        },
        {
          "internalType": "string",
          "name": "quantity",
          "type": "string"
        },
        {
          "internalType": "uint256",
          "name": "price",
          "type": "uint256"
        },
        {
          "internalType": "string",
          "name": "details",
          "type": "string"
        }
      ],
      "name": "updateProduct",
      "outputs": [],
      "stateMutability": "nonpayable",
      "type": "function"
    }
  ],
  "bytecode": "0x60806040523461002c5761001233610031565b5061001c336100ad565b50604051611a6d90816101468239f35b600080fd5b6001600160a01b0381166000908152600080516020611bf3833981519152602052604090205460ff166100a7576001600160a01b03166000818152600080516020611bf383398151915260205260408120805460ff19166001179055339190600080516020611bb38339815191528180a4600190565b50600090565b6001600160a01b0381166000908152600080516020611bd3833981519152602052604090205460ff166100a7576001600160a01b03166000818152600080516020611bd383398151915260205260408120805460ff191660011790553391907f8eb467f061ca67f42a2d2ca4a346fc9fb645efc0ba75056ee9f71c3a0ccc10a890600080516020611bb38339815191529080a460019056fe608080604052600436101561001357600080fd5b60003560e01c90816301ffc9a71461132a5750806315c7dad9146112665780631f16653b14611122578063248a9ca3146112315780632d14145e146111c65780632f2ff15d1461118657806336568abe146111405780634a348da9146111225780635286fe14146110b757806374af6aa014610e1a5780637acc0b2014610d1c57806391d1485414610ccf578063a217fddf14610cb3578063acee9029146108ec578063b9db15b414610792578063cb05765e1461015a578063cb3e1fe7146101315763d547741f146100e557600080fd5b3461012c57604036600319011261012c5761012a600435610104611393565b9061012561012082600052600060205260016040600020015490565b61177b565b611975565b005b600080fd5b3461012c57600036600319011261012c5760206040516000805160206119f88339815191528152f35b3461012c57608036600319011261012c576004356001600160401b03811161012c5761018a903690600401611580565b6024356001600160401b03811161012c576101a9903690600401611580565b6044356001600160401b03811161012c576101c8903690600401611580565b336000908152600080516020611a188339815191526020526040902054606435939192919060ff161561076b5780511561072f578151156106ea578251156106a557610215600254611670565b806002556040519061022682611543565b8082526020820193338552604083019084825260608401908782526080850190815260a085019189835260c08601936000855260e0870198428a526101008801964288526000526001602052604060002097518855600188019060018060a01b039051166bffffffffffffffffffffffff60a01b8254161790556002870190518051906001600160401b0382116105095781906102c38454611486565b601f8111610652575b50602090601f83116001146105ed576000926105e2575b50508160011b916000199060031b1c19161790555b51805160038701916001600160401b03821161050957819061031a8454611486565b601f811161058f575b50602090601f831160011461052a5760009261051f575b50508160011b916000199060031b1c19161790555b51805160048601916001600160401b0382116105095781906103718454611486565b601f81116104b6575b50602090601f831160011461045157600092610446575b50508160011b916000199060031b1c19161790555b51600584015551906003821015610430577f29f137a58665396e77cad1980ff5508a5e402e2af4d25921e321c488fe4cdbd3946103e860089360068601611658565b5160078401555191015561041c6002549361040e604051936080855260808501906113a9565b9083820360208501526113a9565b9360408201524260608201528033940390a3005b634e487b7160e01b600052602160045260246000fd5b015190508b80610391565b60008581528281209350601f198516905b81811061049e5750908460019594939210610485575b505050811b0190556103a6565b015160001960f88460031b161c191690558b8080610478565b92936020600181928786015181550195019301610462565b909150836000526020600020601f840160051c810191602085106104ff575b90601f859493920160051c01905b8181106104f0575061037a565b600081558493506001016104e3565b90915081906104d5565b634e487b7160e01b600052604160045260246000fd5b015190508c8061033a565b60008581528281209350601f198516905b818110610577575090846001959493921061055e575b505050811b01905561034f565b015160001960f88460031b161c191690558c8080610551565b9293602060018192878601518155019501930161053b565b909150836000526020600020601f840160051c810191602085106105d8575b90601f859493920160051c01905b8181106105c95750610323565b600081558493506001016105bc565b90915081906105ae565b015190508d806102e3565b60008581528281209350601f198516905b81811061063a5750908460019594939210610621575b505050811b0190556102f8565b015160001960f88460031b161c191690558d8080610614565b929360206001819287860151815501950193016105fe565b909150836000526020600020601f840160051c8101916020851061069b575b90601f859493920160051c01905b81811061068c57506102cc565b6000815584935060010161067f565b9091508190610671565b60405162461bcd60e51b815260206004820152601860248201527f5175616e746974792063616e6e6f7420626520656d70747900000000000000006044820152606490fd5b60405162461bcd60e51b815260206004820152601760248201527f44657461696c732063616e6e6f7420626520656d7074790000000000000000006044820152606490fd5b60405162461bcd60e51b81526020600482015260146024820152734e616d652063616e6e6f7420626520656d70747960601b6044820152606490fd5b63e2517d3f60e01b600052336004526000805160206119f883398151915260245260446000fd5b3461012c57602036600319011261012c576004356107ae6116ac565b50801515806108e0575b156108a6578060005260016020526107d660406000205415156115d6565b60005260016020526108a260406000206008604051916107f583611543565b8054835260018101546001600160a01b031660208401526040516108278161082081600286016114c0565b038261155f565b60408401526040516108408161082081600386016114c0565b60608401526040516108598161082081600486016114c0565b6080840152600581015460a084015261087c60ff60068301541660c0850161171c565b600781015460e084015201546101008201526040519182916020835260208301906113f7565b0390f35b60405162461bcd60e51b8152602060048201526012602482015271125b9d985b1a59081c1c9bd91d58dd08125160721b6044820152606490fd5b506002548111156107b8565b3461012c57608036600319011261012c576004356024356001600160401b03811161012c5761091f903690600401611580565b90604435916064356001600160401b03811161012c57610943903690600401611580565b82600052600160205260406000209161095e835415156115d6565b60018301546001600160a01b031633148015610c7b575b61097e9061161b565b805180610b5d575b5050805180610a01575b5050808360057fabdbac7f5b88053643bfc43a7b42fe5d04d1645f1a78d33ccec871c472d225ee9301554260088201556109f360ff6006830154166109e3604051936080855260036080860191016114c0565b95602084015260408301906113ea565b4260608201528033940390a3005b60048301916001600160401b03821161050957610a1e8354611486565b601f8111610b15575b50602090601f8311600114610a8b577fabdbac7f5b88053643bfc43a7b42fe5d04d1645f1a78d33ccec871c472d225ee9493929160009183610a80575b50508160011b916000199060031b1c19161790555b9084610990565b015190508780610a64565b90601f1983169184600052816000209260005b818110610afd57509160019391857fabdbac7f5b88053643bfc43a7b42fe5d04d1645f1a78d33ccec871c472d225ee9897969410610ae4575b505050811b019055610a79565b015160001960f88460031b161c19169055878080610ad7565b92936020600181928786015181550195019301610a9e565b836000526020600020601f840160051c81019160208510610b53575b601f0160051c01905b818110610b475750610a27565b60008155600101610b3a565b9091508190610b31565b60038401916001600160401b038211610509578190610b7c8454611486565b601f8111610c28575b50602090601f8311600114610bc357600092610bb8575b50508160011b916000199060031b1c19161790555b8480610986565b015190508780610b9c565b60008581528281209350601f198516905b818110610c105750908460019594939210610bf7575b505050811b019055610bb1565b015160001960f88460031b161c19169055878080610bea565b92936020600181928786015181550195019301610bd4565b909150836000526020600020601f840160051c81019160208510610c71575b90601f859493920160051c01905b818110610c625750610b85565b60008155849350600101610c55565b9091508190610c47565b503360009081527fad3228b676f7d3cd4284a5443f17f1962b36e491b30a40b2405849e597ba5fb5602052604090205460ff16610975565b3461012c57600036600319011261012c57602060405160008152f35b3461012c57604036600319011261012c57610ce8611393565b600435600052600060205260406000209060018060a01b0316600052602052602060ff604060002054166040519015158152f35b3461012c57602036600319011261012c5760043560005260016020526040600020805460018060a01b0360018301541691604051610d618161082081600286016114c0565b60405191610d7d83610d7681600385016114c0565b038461155f565b610e0b60405193610d9c85610d9581600487016114c0565b038661155f565b610dfb600584015495610ded60ff60068701541693610ddf60086007890154980154986040519c8d9c8d5260208d015261012060408d01526101208c01906113a9565b908a820360608c01526113a9565b9088820360808a01526113a9565b9460a087015260c08601906113ea565b60e08401526101008301520390f35b3461012c57606036600319011261012c57610e3361137d565b6024359060443515611072576002546001600160a01b0390911691600090805b8381111561102c5750610e6582611695565b93610e73604051958661155f565b828552601f19610e8284611695565b0160005b8181106110155750506000915b84811115610f08575b50505050506040518091602082016020835281518091526040830190602060408260051b8601019301916000905b828210610ed957505050500390f35b91936001919395506020610ef88192603f198a820301865288516113f7565b9601920192018594939192610eca565b600081815260016020819052604090912001546001600160a01b03168214610f39575b610f3490611670565b610e93565b91611008908360005260016020526040600020600860405191610f5b83611543565b8054835260018101546001600160a01b03166020840152604051610f868161082081600286016114c0565b6040840152604051610f9f8161082081600386016114c0565b6060840152604051610fb88161082081600486016114c0565b6080840152600581015460a0840152610fdb60ff60068301541660c0850161171c565b600781015460e08401520154610100820152610ff782896116f2565b5261100281886116f2565b50611670565b91838310610f2b57610e9c565b6020906110206116ac565b82828a01015201610e86565b600081815260016020819052604090912001546001600160a01b0316851461105d575b61105890611670565b610e53565b9161106a61105891611670565b92905061104f565b60405162461bcd60e51b815260206004820152601f60248201527f436f756e74206d7573742062652067726561746572207468616e207a65726f006044820152606490fd5b3461012c57602036600319011261012c5761012a6110d361137d565b6110db611728565b6000805160206119f883398151915260009081526020527f06320dbdbf18953a1af49a3fe4ea5804853716848e42abbca49898582e53bfc15461111d9061177b565b6118df565b3461012c57600036600319011261012c576020600254604051908152f35b3461012c57604036600319011261012c57611159611393565b336001600160a01b038216036111755761012a90600435611975565b63334bd91960e11b60005260046000fd5b3461012c57604036600319011261012c5761012a6004356111a5611393565b906111c161012082600052600060205260016040600020015490565b611854565b3461012c57602036600319011261012c5761012a6111e261137d565b6111ea611728565b6000805160206119f883398151915260009081526020527f06320dbdbf18953a1af49a3fe4ea5804853716848e42abbca49898582e53bfc15461122c9061177b565b6117b6565b3461012c57602036600319011261012c57602061125e600435600052600060205260016040600020015490565b604051908152f35b3461012c57604036600319011261012c57600435602435600381101561012c5760407f36abbca87ffb0c1b1bbdcfb8a1d932915c6ed3a2dba4bad322d85cce96ff699b91836000526001602052816000206112c3815415156115d6565b60018101546001600160a01b03163314801561130b575b6112e39061161b565b6112f08260068301611658565b600842910155611302825180926113ea565b426020820152a2005b506000808052602081815284822033835290528390205460ff166112da565b3461012c57602036600319011261012c576004359063ffffffff60e01b821680920361012c57602091637965db0b60e01b811490811561136c575b5015158152f35b6301ffc9a760e01b14905083611365565b600435906001600160a01b038216820361012c57565b602435906001600160a01b038216820361012c57565b919082519283825260005b8481106113d5575050826000602080949584010152601f8019910116010190565b806020809284010151828286010152016113b4565b9060038210156104305752565b908151815260018060a01b03602083015116602082015261010080611457611445611433604087015161012060408801526101208701906113a9565b606087015186820360608801526113a9565b608086015185820360808701526113a9565b9360a081015160a085015261147460c082015160c08601906113ea565b60e081015160e0850152015191015290565b90600182811c921680156114b6575b60208310146114a057565b634e487b7160e01b600052602260045260246000fd5b91607f1691611495565b600092918154916114d083611486565b808352926001811690811561152657506001146114ec57505050565b60009081526020812093945091925b83831061150c575060209250010190565b6001816020929493945483858701015201910191906114fb565b915050602093945060ff929192191683830152151560051b010190565b61012081019081106001600160401b0382111761050957604052565b90601f801991011681019081106001600160401b0382111761050957604052565b81601f8201121561012c578035906001600160401b03821161050957604051926115b4601f8401601f19166020018561155f565b8284526020838301011161012c57816000926020809301838601378301015290565b156115dd57565b60405162461bcd60e51b8152602060048201526016602482015275141c9bd91d58dd08191bd95cc81b9bdd08195e1a5cdd60521b6044820152606490fd5b1561162257565b60405162461bcd60e51b815260206004820152600e60248201526d139bdd08185d5d1a1bdc9a5e995960921b6044820152606490fd5b9060038110156104305760ff80198354169116179055565b600019811461167f5760010190565b634e487b7160e01b600052601160045260246000fd5b6001600160401b0381116105095760051b60200190565b604051906116b982611543565b60006101008382815282602082015260606040820152606080820152606060808201528260a08201528260c08201528260e08201520152565b80518210156117065760209160051b010190565b634e487b7160e01b600052603260045260246000fd5b60038210156104305752565b3360009081527fad3228b676f7d3cd4284a5443f17f1962b36e491b30a40b2405849e597ba5fb5602052604090205460ff161561176157565b63e2517d3f60e01b60005233600452600060245260446000fd5b60008181526020818152604080832033845290915290205460ff161561179e5750565b63e2517d3f60e01b6000523360045260245260446000fd5b6001600160a01b0381166000908152600080516020611a18833981519152602052604090205460ff1661184e576001600160a01b03166000818152600080516020611a1883398151915260205260408120805460ff191660011790553391906000805160206119f8833981519152907f2f8788117e7eff1d82e926ec794901d17c78024a50270940304540a733656f0d9080a4600190565b50600090565b6000818152602081815260408083206001600160a01b038616845290915290205460ff166118d8576000818152602081815260408083206001600160a01b0395909516808452949091528120805460ff19166001179055339291907f2f8788117e7eff1d82e926ec794901d17c78024a50270940304540a733656f0d9080a4600190565b5050600090565b6001600160a01b0381166000908152600080516020611a18833981519152602052604090205460ff161561184e576001600160a01b03166000818152600080516020611a1883398151915260205260408120805460ff191690553391906000805160206119f8833981519152907ff6391f5c32d9c69d2a47ea670b442974b53935d1edc7fd64eb21e047a839171b9080a4600190565b6000818152602081815260408083206001600160a01b038616845290915290205460ff16156118d8576000818152602081815260408083206001600160a01b0395909516808452949091528120805460ff19169055339291907ff6391f5c32d9c69d2a47ea670b442974b53935d1edc7fd64eb21e047a839171b9080a460019056fe8eb467f061ca67f42a2d2ca4a346fc9fb645efc0ba75056ee9f71c3a0ccc10a806320dbdbf18953a1af49a3fe4ea5804853716848e42abbca49898582e53bfc0a264697066735822122086d938b2b869f958b2e6085165eb42cc904c26b31c0623872b4ce9fb4471a41a64736f6c634300081c00332f8788117e7eff1d82e926ec794901d17c78024a50270940304540a733656f0d06320dbdbf18953a1af49a3fe4ea5804853716848e42abbca49898582e53bfc0ad3228b676f7d3cd4284a5443f17f1962b36e491b30a40b2405849e597ba5fb5",
  "linkReferences": {},
  "deployedLinkReferences": {}
}