{
  "_format": "hh-sol-artifact-1",
  "contractName": "ProductRegistration",
  "sourceName": "contracts/ProductRegistration.sol",
  "abi": [
    {
      "inputs": [],
      "stateMutability": "nonpayable",
      "type": "constructor"
    },
    {
      "inputs": [],
      "name": "AccessControlBadConfirmation",
      "type": "error"
    },
    {
      "inputs": [
        {
          "internalType": "address",
          "name": "account",
          "type": "address"
        },
        {
          "internalType": "bytes32",
          "name": "neededRole",
          "type": "bytes32"
        }
      ],
      "name": "AccessControlUnauthorizedAccount",
      "type": "error"
    },
    {
      "anonymous": false,
      "inputs": [
        {
          "indexed": true,
          "internalType": "uint256",
          "name": "productId",
          "type": "uint256"
        },
        {
          "indexed": true,
          "internalType": "address",
          "name": "producer",
          "type": "address"
        },
        {
          "indexed": false,
          "internalType": "string",
          "name": "name",
          "type": "string"
        },
        {
          "indexed": false,
          "internalType": "string",
          "name": "quantity",
          "type": "string"
        },
        {
          "indexed": false,
          "internalType": "uint256",
          "name": "price",
          "type": "uint256"
        },
        {
          "indexed": false,
          "internalType": "uint256",
          "name": "timestamp",
          "type": "uint256"
        }
      ],
      "name": "ProductRegistered",
      "type": "event"
    },
    {
      "anonymous": false,
      "inputs": [
        {
          "indexed": true,
          "internalType": "uint256",
          "name": "productId",
          "type": "uint256"
        },
        {
          "indexed": false,
          "internalType": "enum ProductRegistration.ProductStatus",
          "name": "status",
          "type": "uint8"
        },
        {
          "indexed": false,
          "internalType": "uint256",
          "name": "timestamp",
          "type": "uint256"
        }
      ],
      "name": "ProductStatusChanged",
      "type": "event"
    },
    {
      "anonymous": false,
      "inputs": [
        {
          "indexed": true,
          "internalType": "uint256",
          "name": "productId",
          "type": "uint256"
        },
        {
          "indexed": true,
          "internalType": "address",
          "name": "producer",
          "type": "address"
        },
        {
          "indexed": false,
          "internalType": "string",
          "name": "quantity",
          "type": "string"
        },
        {
          "indexed": false,
          "internalType": "uint256",
          "name": "price",
          "type": "uint256"
        },
        {
          "indexed": false,
          "internalType": "enum ProductRegistration.ProductStatus",
          "name": "status",
          "type": "uint8"
        },
        {
          "indexed": false,
          "internalType": "uint256",
          "name": "timestamp",
          "type": "uint256"
        }
      ],
      "name": "ProductUpdated",
      "type": "event"
    },
    {
      "anonymous": false,
      "inputs": [
        {
          "indexed": true,
          "internalType": "bytes32",
          "name": "role",
          "type": "bytes32"
        },
        {
          "indexed": true,
          "internalType": "bytes32",
          "name": "previousAdminRole",
          "type": "bytes32"
        },
        {
          "indexed": true,
          "internalType": "bytes32",
          "name": "newAdminRole",
          "type": "bytes32"
        }
      ],
      "name": "RoleAdminChanged",
      "type": "event"
    },
    {
      "anonymous": false,
      "inputs": [
        {
          "indexed": true,
          "internalType": "bytes32",
          "name": "role",
          "type": "bytes32"
        },
        {
          "indexed": true,
          "internalType": "address",
          "name": "account",
          "type": "address"
        },
        {
          "indexed": true,
          "internalType": "address",
          "name": "sender",
          "type": "address"
        }
      ],
      "name": "RoleGranted",
      "type": "event"
    },
    {
      "anonymous": false,
      "inputs": [
        {
          "indexed": true,
          "internalType": "bytes32",
          "name": "role",
          "type": "bytes32"
        },
        {
          "indexed": true,
          "internalType": "address",
          "name": "account",
          "type": "address"
        },
        {
          "indexed": true,
          "internalType": "address",
          "name": "sender",
          "type": "address"
        }
      ],
      "name": "RoleRevoked",
      "type": "event"
    },
    {
      "inputs": [],
      "name": "DEFAULT_ADMIN_ROLE",
      "outputs": [
        {
          "internalType": "bytes32",
          "name": "",
          "type": "bytes32"
        }
      ],
      "stateMutability": "view",
      "type": "function"
    },
    {
      "inputs": [],
      "name": "PRODUCER_ROLE",
      "outputs": [
        {
          "internalType": "bytes32",
          "name": "",
          "type": "bytes32"
        }
      ],
      "stateMutability": "view",
      "type": "function"
    },
    {
      "inputs": [
        {
          "internalType": "uint256",
          "name": "productId",
          "type": "uint256"
        },
        {
          "internalType": "enum ProductRegistration.ProductStatus",
          "name": "newStatus",
          "type": "uint8"
        }
      ],
      "name": "changeProductStatus",
      "outputs": [],
      "stateMutability": "nonpayable",
      "type": "function"
    },
    {
      "inputs": [
        {
          "internalType": "uint256",
          "name": "productId",
          "type": "uint256"
        }
      ],
      "name": "getProduct",
      "outputs": [
        {
          "components": [
            {
              "internalType": "uint256",
              "name": "productId",
              "type": "uint256"
            },
            {
              "internalType": "address",
              "name": "producer",
              "type": "address"
            },
            {
              "internalType": "string",
              "name": "name",
              "type": "string"
            },
            {
              "internalType": "string",
              "name": "quantity",
              "type": "string"
            },
            {
              "internalType": "string",
              "name": "details",
              "type": "string"
            },
            {
              "internalType": "uint256",
              "name": "price",
              "type": "uint256"
            },
            {
              "internalType": "enum ProductRegistration.ProductStatus",
              "name": "status",
              "type": "uint8"
            },
            {
              "internalType": "uint256",
              "name": "timestamp",
              "type": "uint256"
            },
            {
              "internalType": "uint256",
              "name": "lastUpdated",
              "type": "uint256"
            }
          ],
          "internalType": "struct ProductRegistration.Product",
          "name": "",
          "type": "tuple"
        }
      ],
      "stateMutability": "view",
      "type": "function"
    },
    {
      "inputs": [
        {
          "internalType": "address",
          "name": "producer",
          "type": "address"
        },
        {
          "internalType": "uint256",
          "name": "startId",
          "type": "uint256"
        },
        {
          "internalType": "uint256",
          "name": "count",
          "type": "uint256"
        }
      ],
      "name": "getProductsByProducer",
      "outputs": [
        {
          "internalType": "uint256[]",
          "name": "",
          "type": "uint256[]"
        }
      ],
      "stateMutability": "view",
      "type": "function"
    },
    {
      "inputs": [
        {
          "internalType": "bytes32",
          "name": "role",
          "type": "bytes32"
        }
      ],
      "name": "getRoleAdmin",
      "outputs": [
        {
          "internalType": "bytes32",
          "name": "",
          "type": "bytes32"
        }
      ],
      "stateMutability": "view",
      "type": "function"
    },
    {
      "inputs": [
        {
          "internalType": "address",
          "name": "account",
          "type": "address"
        }
      ],
      "name": "grantProducerRole",
      "outputs": [],
      "stateMutability": "nonpayable",
      "type": "function"
    },
    {
      "inputs": [
        {
          "internalType": "bytes32",
          "name": "role",
          "type": "bytes32"
        },
        {
          "internalType": "address",
          "name": "account",
          "type": "address"
        }
      ],
      "name": "grantRole",
      "outputs": [],
      "stateMutability": "nonpayable",
      "type": "function"
    },
    {
      "inputs": [
        {
          "internalType": "bytes32",
          "name": "role",
          "type": "bytes32"
        },
        {
          "internalType": "address",
          "name": "account",
          "type": "address"
        }
      ],
      "name": "hasRole",
      "outputs": [
        {
          "internalType": "bool",
          "name": "",
          "type": "bool"
        }
      ],
      "stateMutability": "view",
      "type": "function"
    },
    {
      "inputs": [],
      "name": "productCounter",
      "outputs": [
        {
          "internalType": "uint256",
          "name": "",
          "type": "uint256"
        }
      ],
      "stateMutability": "view",
      "type": "function"
    },
    {
      "inputs": [
        {
          "internalType": "uint256",
          "name": "",
          "type": "uint256"
        }
      ],
      "name": "products",
      "outputs": [
        {
          "internalType": "uint256",
          "name": "productId",
          "type": "uint256"
        },
        {
          "internalType": "address",
          "name": "producer",
          "type": "address"
        },
        {
          "internalType": "string",
          "name": "name",
          "type": "string"
        },
        {
          "internalType": "string",
          "name": "quantity",
          "type": "string"
        },
        {
          "internalType": "string",
          "name": "details",
          "type": "string"
        },
        {
          "internalType": "uint256",
          "name": "price",
          "type": "uint256"
        },
        {
          "internalType": "enum ProductRegistration.ProductStatus",
          "name": "status",
          "type": "uint8"
        },
        {
          "internalType": "uint256",
          "name": "timestamp",
          "type": "uint256"
        },
        {
          "internalType": "uint256",
          "name": "lastUpdated",
          "type": "uint256"
        }
      ],
      "stateMutability": "view",
      "type": "function"
    },
    {
      "inputs": [
        {
          "internalType": "string",
          "name": "name",
          "type": "string"
        },
        {
          "internalType": "string",
          "name": "details",
          "type": "string"
        },
        {
          "internalType": "string",
          "name": "quantity",
          "type": "string"
        },
        {
          "internalType": "uint256",
          "name": "price",
          "type": "uint256"
        }
      ],
      "name": "registerProduct",
      "outputs": [],
      "stateMutability": "nonpayable",
      "type": "function"
    },
    {
      "inputs": [
        {
          "internalType": "bytes32",
          "name": "role",
          "type": "bytes32"
        },
        {
          "internalType": "address",
          "name": "callerConfirmation",
          "type": "address"
        }
      ],
      "name": "renounceRole",
      "outputs": [],
      "stateMutability": "nonpayable",
      "type": "function"
    },
    {
      "inputs": [
        {
          "internalType": "address",
          "name": "account",
          "type": "address"
        }
      ],
      "name": "revokeProducerRole",
      "outputs": [],
      "stateMutability": "nonpayable",
      "type": "function"
    },
    {
      "inputs": [
        {
          "internalType": "bytes32",
          "name": "role",
          "type": "bytes32"
        },
        {
          "internalType": "address",
          "name": "account",
          "type": "address"
        }
      ],
      "name": "revokeRole",
      "outputs": [],
      "stateMutability": "nonpayable",
      "type": "function"
    },
    {
      "inputs": [
        {
          "internalType": "bytes4",
          "name": "interfaceId",
          "type": "bytes4"
        }
      ],
      "name": "supportsInterface",
      "outputs": [
        {
          "internalType": "bool",
          "name": "",
          "type": "bool"
        }
      ],
      "stateMutability": "view",
      "type": "function"
    },
    {
      "inputs": [
        {
          "internalType": "uint256",
          "name": "productId",
          "type": "uint256"
        },
        {
          "internalType": "string",
          "name": "quantity",
          "type": "string"
        },
        {
          "internalType": "uint256",
          "name": "price",
          "type": "uint256"
        },
        {
          "internalType": "string",
          "name": "details",
          "type": "string"
        }
      ],
      "name": "updateProduct",
      "outputs": [],
      "stateMutability": "nonpayable",
      "type": "function"
    }
  ],
  "bytecode": "0x60806040523461002c5761001233610031565b5061001c336100ad565b506040516118ff90816101468239f35b600080fd5b6001600160a01b0381166000908152600080516020611a85833981519152602052604090205460ff166100a7576001600160a01b03166000818152600080516020611a8583398151915260205260408120805460ff19166001179055339190600080516020611a458339815191528180a4600190565b50600090565b6001600160a01b0381166000908152600080516020611a65833981519152602052604090205460ff166100a7576001600160a01b03166000818152600080516020611a6583398151915260205260408120805460ff191660011790553391907f8eb467f061ca67f42a2d2ca4a346fc9fb645efc0ba75056ee9f71c3a0ccc10a890600080516020611a458339815191529080a460019056fe608080604052600436101561001357600080fd5b60003560e01c90816301ffc9a7146112c75750806315c7dad9146112035780631f16653b146111e5578063248a9ca3146111b05780632d14145e146111455780632f2ff15d1461110557806336568abe146110bf5780635286fe141461105457806374af6aa014610eda5780637acc0b2014610ddc57806391d1485414610d8f578063a217fddf14610d73578063acee9029146109ac578063b9db15b414610787578063cb05765e1461014f578063cb3e1fe7146101265763d547741f146100da57600080fd5b346101215760403660031901126101215761011f6004356100f9611330565b9061011a61011582600052600060205260016040600020015490565b61160d565b611807565b005b600080fd5b3461012157600036600319011261012157602060405160008051602061188a8339815191528152f35b34610121576080366003190112610121576004356001600160401b0381116101215761017f90369060040161148e565b6024356001600160401b0381116101215761019e90369060040161148e565b6044356001600160401b038111610121576101bd90369060040161148e565b3360009081526000805160206118aa8339815191526020526040902054606435939192919060ff161561076057805115610724578151156106df5782511561069a5761020a600254611595565b806002556040519061021b82611403565b8082526020820193338552604083019084825260608401908782526080850190815260a085019189835260c08601936000855260e0870198428a526101008801964288526000526001602052604060002097518855600188019060018060a01b039051166bffffffffffffffffffffffff60a01b8254161790556002870190518051906001600160401b0382116104fe5781906102b88454611346565b601f8111610647575b50602090601f83116001146105e2576000926105d7575b50508160011b916000199060031b1c19161790555b51805160038701916001600160401b0382116104fe57819061030f8454611346565b601f8111610584575b50602090601f831160011461051f57600092610514575b50508160011b916000199060031b1c19161790555b51805160048601916001600160401b0382116104fe5781906103668454611346565b601f81116104ab575b50602090601f83116001146104465760009261043b575b50508160011b916000199060031b1c19161790555b51600584015551906003821015610425577f29f137a58665396e77cad1980ff5508a5e402e2af4d25921e321c488fe4cdbd3946103dd60089360068601611566565b516007840155519101556104116002549361040360405193608085526080850190611440565b908382036020850152611440565b9360408201524260608201528033940390a3005b634e487b7160e01b600052602160045260246000fd5b015190508b80610386565b60008581528281209350601f198516905b818110610493575090846001959493921061047a575b505050811b01905561039b565b015160001960f88460031b161c191690558b808061046d565b92936020600181928786015181550195019301610457565b909150836000526020600020601f840160051c810191602085106104f4575b90601f859493920160051c01905b8181106104e5575061036f565b600081558493506001016104d8565b90915081906104ca565b634e487b7160e01b600052604160045260246000fd5b015190508c8061032f565b60008581528281209350601f198516905b81811061056c5750908460019594939210610553575b505050811b019055610344565b015160001960f88460031b161c191690558c8080610546565b92936020600181928786015181550195019301610530565b909150836000526020600020601f840160051c810191602085106105cd575b90601f859493920160051c01905b8181106105be5750610318565b600081558493506001016105b1565b90915081906105a3565b015190508d806102d8565b60008581528281209350601f198516905b81811061062f5750908460019594939210610616575b505050811b0190556102ed565b015160001960f88460031b161c191690558d8080610609565b929360206001819287860151815501950193016105f3565b909150836000526020600020601f840160051c81019160208510610690575b90601f859493920160051c01905b81811061068157506102c1565b60008155849350600101610674565b9091508190610666565b60405162461bcd60e51b815260206004820152601860248201527f5175616e746974792063616e6e6f7420626520656d70747900000000000000006044820152606490fd5b60405162461bcd60e51b815260206004820152601760248201527f44657461696c732063616e6e6f7420626520656d7074790000000000000000006044820152606490fd5b60405162461bcd60e51b81526020600482015260146024820152734e616d652063616e6e6f7420626520656d70747960601b6044820152606490fd5b63e2517d3f60e01b6000523360045260008051602061188a83398151915260245260446000fd5b346101215760203660031901126101215760043560006101006040516107ac81611403565b82815282602082015260606040820152606080820152606060808201528260a08201528260c08201528260e08201520152801515806109a0575b156109665780600052600160205261080460406000205415156114e4565b6000526001602052604060002060405161081d81611403565b8154815260018201546001600160a01b03166020820190815260405192906108538461084c8160028601611380565b038561141f565b604083019384526040516108758161086e8160038701611380565b038261141f565b60608401908152604051926108918461084c8160048501611380565b6080850193845260058101549360a0860194855260ff6006830154169660c087019160038910156104255761092f889561091c6109429460086109549860209e895260e060078201549b019a8b520154996101008d019a8b526040518e819f9e829f83525191015260018060a01b0390511660408d01525161012060608d01526101408c0190611440565b90518a8203601f190160808c0152611440565b9051888203601f190160a08a0152611440565b945160c08701525160e0860190611481565b51610100840152516101208301520390f35b60405162461bcd60e51b8152602060048201526012602482015271125b9d985b1a59081c1c9bd91d58dd08125160721b6044820152606490fd5b506002548111156107e6565b34610121576080366003190112610121576004356024356001600160401b038111610121576109df90369060040161148e565b90604435916064356001600160401b03811161012157610a0390369060040161148e565b826000526001602052604060002091610a1e835415156114e4565b60018301546001600160a01b031633148015610d3b575b610a3e90611529565b805180610c1d575b5050805180610ac1575b5050808360057fabdbac7f5b88053643bfc43a7b42fe5d04d1645f1a78d33ccec871c472d225ee930155426008820155610ab360ff600683015416610aa360405193608085526003608086019101611380565b9560208401526040830190611481565b4260608201528033940390a3005b60048301916001600160401b0382116104fe57610ade8354611346565b601f8111610bd5575b50602090601f8311600114610b4b577fabdbac7f5b88053643bfc43a7b42fe5d04d1645f1a78d33ccec871c472d225ee9493929160009183610b40575b50508160011b916000199060031b1c19161790555b9084610a50565b015190508780610b24565b90601f1983169184600052816000209260005b818110610bbd57509160019391857fabdbac7f5b88053643bfc43a7b42fe5d04d1645f1a78d33ccec871c472d225ee9897969410610ba4575b505050811b019055610b39565b015160001960f88460031b161c19169055878080610b97565b92936020600181928786015181550195019301610b5e565b836000526020600020601f840160051c81019160208510610c13575b601f0160051c01905b818110610c075750610ae7565b60008155600101610bfa565b9091508190610bf1565b60038401916001600160401b0382116104fe578190610c3c8454611346565b601f8111610ce8575b50602090601f8311600114610c8357600092610c78575b50508160011b916000199060031b1c19161790555b8480610a46565b015190508780610c5c565b60008581528281209350601f198516905b818110610cd05750908460019594939210610cb7575b505050811b019055610c71565b015160001960f88460031b161c19169055878080610caa565b92936020600181928786015181550195019301610c94565b909150836000526020600020601f840160051c81019160208510610d31575b90601f859493920160051c01905b818110610d225750610c45565b60008155849350600101610d15565b9091508190610d07565b503360009081527fad3228b676f7d3cd4284a5443f17f1962b36e491b30a40b2405849e597ba5fb5602052604090205460ff16610a35565b3461012157600036600319011261012157602060405160008152f35b3461012157604036600319011261012157610da8611330565b600435600052600060205260406000209060018060a01b0316600052602052602060ff604060002054166040519015158152f35b346101215760203660031901126101215760043560005260016020526040600020805460018060a01b0360018301541691604051610e218161086e8160028601611380565b60405191610e3d83610e368160038501611380565b038461141f565b610ecb60405193610e5c85610e558160048701611380565b038661141f565b610ebb600584015495610ead60ff60068701541693610e9f60086007890154980154986040519c8d9c8d5260208d015261012060408d01526101208c0190611440565b908a820360608c0152611440565b9088820360808a0152611440565b9460a087015260c0860190611481565b60e08401526101008301520390f35b3461012157606036600319011261012157610ef361131a565b604435801561100f5790610f068261157e565b610f13604051918261141f565b828152610f1f8361157e565b602082019390601f190136853760025460009490936001600160a01b0316916024355b8581111580611006575b15610fc157600081815260016020819052604090912001546001600160a01b03168414610f82575b610f7d90611595565b610f42565b958451811015610fab57610fa381886020610f7d9460051b89010152611595565b969050610f74565b634e487b7160e01b600052603260045260246000fd5b82856040519182916020830190602084525180915260408301919060005b818110610fed575050500390f35b8251845285945060209384019390920191600101610fdf565b50818710610f4c565b60405162461bcd60e51b815260206004820152601f60248201527f436f756e74206d7573742062652067726561746572207468616e207a65726f006044820152606490fd5b346101215760203660031901126101215761011f61107061131a565b6110786115ba565b60008051602061188a83398151915260009081526020527f06320dbdbf18953a1af49a3fe4ea5804853716848e42abbca49898582e53bfc1546110ba9061160d565b611771565b34610121576040366003190112610121576110d8611330565b336001600160a01b038216036110f45761011f90600435611807565b63334bd91960e11b60005260046000fd5b346101215760403660031901126101215761011f600435611124611330565b9061114061011582600052600060205260016040600020015490565b6116e6565b346101215760203660031901126101215761011f61116161131a565b6111696115ba565b60008051602061188a83398151915260009081526020527f06320dbdbf18953a1af49a3fe4ea5804853716848e42abbca49898582e53bfc1546111ab9061160d565b611648565b346101215760203660031901126101215760206111dd600435600052600060205260016040600020015490565b604051908152f35b34610121576000366003190112610121576020600254604051908152f35b346101215760403660031901126101215760043560243560038110156101215760407f36abbca87ffb0c1b1bbdcfb8a1d932915c6ed3a2dba4bad322d85cce96ff699b9183600052600160205281600020611260815415156114e4565b60018101546001600160a01b0316331480156112a8575b61128090611529565b61128d8260068301611566565b60084291015561129f82518092611481565b426020820152a2005b506000808052602081815284822033835290528390205460ff16611277565b34610121576020366003190112610121576004359063ffffffff60e01b821680920361012157602091637965db0b60e01b8114908115611309575b5015158152f35b6301ffc9a760e01b14905083611302565b600435906001600160a01b038216820361012157565b602435906001600160a01b038216820361012157565b90600182811c92168015611376575b602083101461136057565b634e487b7160e01b600052602260045260246000fd5b91607f1691611355565b6000929181549161139083611346565b80835292600181169081156113e657506001146113ac57505050565b60009081526020812093945091925b8383106113cc575060209250010190565b6001816020929493945483858701015201910191906113bb565b915050602093945060ff929192191683830152151560051b010190565b61012081019081106001600160401b038211176104fe57604052565b90601f801991011681019081106001600160401b038211176104fe57604052565b919082519283825260005b84811061146c575050826000602080949584010152601f8019910116010190565b8060208092840101518282860101520161144b565b9060038210156104255752565b81601f82011215610121578035906001600160401b0382116104fe57604051926114c2601f8401601f19166020018561141f565b8284526020838301011161012157816000926020809301838601378301015290565b156114eb57565b60405162461bcd60e51b8152602060048201526016602482015275141c9bd91d58dd08191bd95cc81b9bdd08195e1a5cdd60521b6044820152606490fd5b1561153057565b60405162461bcd60e51b815260206004820152600e60248201526d139bdd08185d5d1a1bdc9a5e995960921b6044820152606490fd5b9060038110156104255760ff80198354169116179055565b6001600160401b0381116104fe5760051b60200190565b60001981146115a45760010190565b634e487b7160e01b600052601160045260246000fd5b3360009081527fad3228b676f7d3cd4284a5443f17f1962b36e491b30a40b2405849e597ba5fb5602052604090205460ff16156115f357565b63e2517d3f60e01b60005233600452600060245260446000fd5b60008181526020818152604080832033845290915290205460ff16156116305750565b63e2517d3f60e01b6000523360045260245260446000fd5b6001600160a01b03811660009081526000805160206118aa833981519152602052604090205460ff166116e0576001600160a01b031660008181526000805160206118aa83398151915260205260408120805460ff1916600117905533919060008051602061188a833981519152907f2f8788117e7eff1d82e926ec794901d17c78024a50270940304540a733656f0d9080a4600190565b50600090565b6000818152602081815260408083206001600160a01b038616845290915290205460ff1661176a576000818152602081815260408083206001600160a01b0395909516808452949091528120805460ff19166001179055339291907f2f8788117e7eff1d82e926ec794901d17c78024a50270940304540a733656f0d9080a4600190565b5050600090565b6001600160a01b03811660009081526000805160206118aa833981519152602052604090205460ff16156116e0576001600160a01b031660008181526000805160206118aa83398151915260205260408120805460ff1916905533919060008051602061188a833981519152907ff6391f5c32d9c69d2a47ea670b442974b53935d1edc7fd64eb21e047a839171b9080a4600190565b6000818152602081815260408083206001600160a01b038616845290915290205460ff161561176a576000818152602081815260408083206001600160a01b0395909516808452949091528120805460ff19169055339291907ff6391f5c32d9c69d2a47ea670b442974b53935d1edc7fd64eb21e047a839171b9080a460019056fe8eb467f061ca67f42a2d2ca4a346fc9fb645efc0ba75056ee9f71c3a0ccc10a806320dbdbf18953a1af49a3fe4ea5804853716848e42abbca49898582e53bfc0a2646970667358221220e7fb4519053d91f8cf4c5bc3ecd3a0030d247e1cb92c9135a5342cb672b64ae264736f6c634300081c00332f8788117e7eff1d82e926ec794901d17c78024a50270940304540a733656f0d06320dbdbf18953a1af49a3fe4ea5804853716848e42abbca49898582e53bfc0ad3228b676f7d3cd4284a5443f17f1962b36e491b30a40b2405849e597ba5fb5",
  "linkReferences": {},
  "deployedLinkReferences": {}
}